{
	"ERC20_flat.sol": {
		"ERC20": {
			"abi": [
				{
					"inputs": [
						{
							"internalType": "string",
							"name": "name_",
							"type": "string"
						},
						{
							"internalType": "string",
							"name": "symbol_",
							"type": "string"
						}
					],
					"stateMutability": "nonpayable",
					"type": "constructor"
				},
				{
					"anonymous": false,
					"inputs": [
						{
							"indexed": true,
							"internalType": "address",
							"name": "owner",
							"type": "address"
						},
						{
							"indexed": true,
							"internalType": "address",
							"name": "spender",
							"type": "address"
						},
						{
							"indexed": false,
							"internalType": "uint256",
							"name": "value",
							"type": "uint256"
						}
					],
					"name": "Approval",
					"type": "event"
				},
				{
					"anonymous": false,
					"inputs": [
						{
							"indexed": true,
							"internalType": "address",
							"name": "from",
							"type": "address"
						},
						{
							"indexed": true,
							"internalType": "address",
							"name": "to",
							"type": "address"
						},
						{
							"indexed": false,
							"internalType": "uint256",
							"name": "value",
							"type": "uint256"
						}
					],
					"name": "Transfer",
					"type": "event"
				},
				{
					"inputs": [
						{
							"internalType": "address",
							"name": "owner",
							"type": "address"
						},
						{
							"internalType": "address",
							"name": "spender",
							"type": "address"
						}
					],
					"name": "allowance",
					"outputs": [
						{
							"internalType": "uint256",
							"name": "",
							"type": "uint256"
						}
					],
					"stateMutability": "view",
					"type": "function"
				},
				{
					"inputs": [
						{
							"internalType": "address",
							"name": "spender",
							"type": "address"
						},
						{
							"internalType": "uint256",
							"name": "amount",
							"type": "uint256"
						}
					],
					"name": "approve",
					"outputs": [
						{
							"internalType": "bool",
							"name": "",
							"type": "bool"
						}
					],
					"stateMutability": "nonpayable",
					"type": "function"
				},
				{
					"inputs": [
						{
							"internalType": "address",
							"name": "account",
							"type": "address"
						}
					],
					"name": "balanceOf",
					"outputs": [
						{
							"internalType": "uint256",
							"name": "",
							"type": "uint256"
						}
					],
					"stateMutability": "view",
					"type": "function"
				},
				{
					"inputs": [],
					"name": "decimals",
					"outputs": [
						{
							"internalType": "uint8",
							"name": "",
							"type": "uint8"
						}
					],
					"stateMutability": "view",
					"type": "function"
				},
				{
					"inputs": [
						{
							"internalType": "address",
							"name": "spender",
							"type": "address"
						},
						{
							"internalType": "uint256",
							"name": "subtractedValue",
							"type": "uint256"
						}
					],
					"name": "decreaseAllowance",
					"outputs": [
						{
							"internalType": "bool",
							"name": "",
							"type": "bool"
						}
					],
					"stateMutability": "nonpayable",
					"type": "function"
				},
				{
					"inputs": [
						{
							"internalType": "address",
							"name": "spender",
							"type": "address"
						},
						{
							"internalType": "uint256",
							"name": "addedValue",
							"type": "uint256"
						}
					],
					"name": "increaseAllowance",
					"outputs": [
						{
							"internalType": "bool",
							"name": "",
							"type": "bool"
						}
					],
					"stateMutability": "nonpayable",
					"type": "function"
				},
				{
					"inputs": [],
					"name": "name",
					"outputs": [
						{
							"internalType": "string",
							"name": "",
							"type": "string"
						}
					],
					"stateMutability": "view",
					"type": "function"
				},
				{
					"inputs": [],
					"name": "symbol",
					"outputs": [
						{
							"internalType": "string",
							"name": "",
							"type": "string"
						}
					],
					"stateMutability": "view",
					"type": "function"
				},
				{
					"inputs": [],
					"name": "totalSupply",
					"outputs": [
						{
							"internalType": "uint256",
							"name": "",
							"type": "uint256"
						}
					],
					"stateMutability": "view",
					"type": "function"
				},
				{
					"inputs": [
						{
							"internalType": "address",
							"name": "to",
							"type": "address"
						},
						{
							"internalType": "uint256",
							"name": "amount",
							"type": "uint256"
						}
					],
					"name": "transfer",
					"outputs": [
						{
							"internalType": "bool",
							"name": "",
							"type": "bool"
						}
					],
					"stateMutability": "nonpayable",
					"type": "function"
				},
				{
					"inputs": [
						{
							"internalType": "address",
							"name": "from",
							"type": "address"
						},
						{
							"internalType": "address",
							"name": "to",
							"type": "address"
						},
						{
							"internalType": "uint256",
							"name": "amount",
							"type": "uint256"
						}
					],
					"name": "transferFrom",
					"outputs": [
						{
							"internalType": "bool",
							"name": "",
							"type": "bool"
						}
					],
					"stateMutability": "nonpayable",
					"type": "function"
				}
			],
			"devdoc": {
				"details": "Implementation of the {IERC20} interface. This implementation is agnostic to the way tokens are created. This means that a supply mechanism has to be added in a derived contract using {_mint}. For a generic mechanism see {ERC20PresetMinterPauser}. TIP: For a detailed writeup see our guide https://forum.zeppelin.solutions/t/how-to-implement-erc20-supply-mechanisms/226[How to implement supply mechanisms]. We have followed general OpenZeppelin Contracts guidelines: functions revert instead returning `false` on failure. This behavior is nonetheless conventional and does not conflict with the expectations of ERC20 applications. Additionally, an {Approval} event is emitted on calls to {transferFrom}. This allows applications to reconstruct the allowance for all accounts just by listening to said events. Other implementations of the EIP may not emit these events, as it isn't required by the specification. Finally, the non-standard {decreaseAllowance} and {increaseAllowance} functions have been added to mitigate the well-known issues around setting allowances. See {IERC20-approve}.",
				"kind": "dev",
				"methods": {
					"allowance(address,address)": {
						"details": "See {IERC20-allowance}."
					},
					"approve(address,uint256)": {
						"details": "See {IERC20-approve}. NOTE: If `amount` is the maximum `uint256`, the allowance is not updated on `transferFrom`. This is semantically equivalent to an infinite approval. Requirements: - `spender` cannot be the zero address."
					},
					"balanceOf(address)": {
						"details": "See {IERC20-balanceOf}."
					},
					"constructor": {
						"details": "Sets the values for {name} and {symbol}. The default value of {decimals} is 18. To select a different value for {decimals} you should overload it. All two of these values are immutable: they can only be set once during construction."
					},
					"decimals()": {
						"details": "Returns the number of decimals used to get its user representation. For example, if `decimals` equals `2`, a balance of `505` tokens should be displayed to a user as `5.05` (`505 / 10 ** 2`). Tokens usually opt for a value of 18, imitating the relationship between Ether and Wei. This is the value {ERC20} uses, unless this function is overridden; NOTE: This information is only used for _display_ purposes: it in no way affects any of the arithmetic of the contract, including {IERC20-balanceOf} and {IERC20-transfer}."
					},
					"decreaseAllowance(address,uint256)": {
						"details": "Atomically decreases the allowance granted to `spender` by the caller. This is an alternative to {approve} that can be used as a mitigation for problems described in {IERC20-approve}. Emits an {Approval} event indicating the updated allowance. Requirements: - `spender` cannot be the zero address. - `spender` must have allowance for the caller of at least `subtractedValue`."
					},
					"increaseAllowance(address,uint256)": {
						"details": "Atomically increases the allowance granted to `spender` by the caller. This is an alternative to {approve} that can be used as a mitigation for problems described in {IERC20-approve}. Emits an {Approval} event indicating the updated allowance. Requirements: - `spender` cannot be the zero address."
					},
					"name()": {
						"details": "Returns the name of the token."
					},
					"symbol()": {
						"details": "Returns the symbol of the token, usually a shorter version of the name."
					},
					"totalSupply()": {
						"details": "See {IERC20-totalSupply}."
					},
					"transfer(address,uint256)": {
						"details": "See {IERC20-transfer}. Requirements: - `to` cannot be the zero address. - the caller must have a balance of at least `amount`."
					},
					"transferFrom(address,address,uint256)": {
						"details": "See {IERC20-transferFrom}. Emits an {Approval} event indicating the updated allowance. This is not required by the EIP. See the note at the beginning of {ERC20}. NOTE: Does not update the allowance if the current allowance is the maximum `uint256`. Requirements: - `from` and `to` cannot be the zero address. - `from` must have a balance of at least `amount`. - the caller must have allowance for ``from``'s tokens of at least `amount`."
					}
				},
				"version": 1
			},
			"evm": {
				"assembly": "    /* \"ERC20_flat.sol\":8186:19409  contract ERC20 is Context, IERC20, IERC20Metadata {... */\n  mstore(0x40, 0x80)\n    /* \"ERC20_flat.sol\":8761:8874  constructor(string memory name_, string memory symbol_) {... */\n  callvalue\n  dup1\n  iszero\n  tag_1\n  jumpi\n  0x00\n  dup1\n  revert\ntag_1:\n  pop\n  mload(0x40)\n  sub(codesize, bytecodeSize)\n  dup1\n  bytecodeSize\n  dup4\n  codecopy\n  dup2\n  dup2\n  add\n  0x40\n  mstore\n  dup2\n  add\n  swap1\n  tag_2\n  swap2\n  swap1\n  tag_3\n  jump\t// in\ntag_2:\n    /* \"ERC20_flat.sol\":8835:8840  name_ */\n  dup2\n    /* \"ERC20_flat.sol\":8827:8832  _name */\n  0x03\n    /* \"ERC20_flat.sol\":8827:8840  _name = name_ */\n  swap1\n  dup1\n  mload\n  swap1\n  0x20\n  add\n  swap1\n  tag_6\n  swap3\n  swap2\n  swap1\n  tag_7\n  jump\t// in\ntag_6:\n  pop\n    /* \"ERC20_flat.sol\":8860:8867  symbol_ */\n  dup1\n    /* \"ERC20_flat.sol\":8850:8857  _symbol */\n  0x04\n    /* \"ERC20_flat.sol\":8850:8867  _symbol = symbol_ */\n  swap1\n  dup1\n  mload\n  swap1\n  0x20\n  add\n  swap1\n  tag_8\n  swap3\n  swap2\n  swap1\n  tag_7\n  jump\t// in\ntag_8:\n  pop\n    /* \"ERC20_flat.sol\":8761:8874  constructor(string memory name_, string memory symbol_) {... */\n  pop\n  pop\n    /* \"ERC20_flat.sol\":8186:19409  contract ERC20 is Context, IERC20, IERC20Metadata {... */\n  jump(tag_9)\ntag_7:\n  dup3\n  dup1\n  sload\n  tag_10\n  swap1\n  tag_11\n  jump\t// in\ntag_10:\n  swap1\n  0x00\n  mstore\n  keccak256(0x00, 0x20)\n  swap1\n  0x1f\n  add\n  0x20\n  swap1\n  div\n  dup2\n  add\n  swap3\n  dup3\n  tag_13\n  jumpi\n  0x00\n  dup6\n  sstore\n  jump(tag_12)\ntag_13:\n  dup3\n  0x1f\n  lt\n  tag_14\n  jumpi\n  dup1\n  mload\n  not(0xff)\n  and\n  dup4\n  dup1\n  add\n  or\n  dup6\n  sstore\n  jump(tag_12)\ntag_14:\n  dup3\n  dup1\n  add\n  0x01\n  add\n  dup6\n  sstore\n  dup3\n  iszero\n  tag_12\n  jumpi\n  swap2\n  dup3\n  add\ntag_15:\n  dup3\n  dup2\n  gt\n  iszero\n  tag_16\n  jumpi\n  dup3\n  mload\n  dup3\n  sstore\n  swap2\n  0x20\n  add\n  swap2\n  swap1\n  0x01\n  add\n  swap1\n  jump(tag_15)\ntag_16:\ntag_12:\n  pop\n  swap1\n  pop\n  tag_17\n  swap2\n  swap1\n  tag_18\n  jump\t// in\ntag_17:\n  pop\n  swap1\n  jump\t// out\ntag_18:\ntag_19:\n  dup1\n  dup3\n  gt\n  iszero\n  tag_20\n  jumpi\n  0x00\n  dup2\n  0x00\n  swap1\n  sstore\n  pop\n  0x01\n  add\n  jump(tag_19)\ntag_20:\n  pop\n  swap1\n  jump\t// out\n    /* \"#utility.yul\":7:428   */\ntag_22:\n    /* \"#utility.yul\":96:101   */\n  0x00\n    /* \"#utility.yul\":121:187   */\n  tag_24\n    /* \"#utility.yul\":137:186   */\n  tag_25\n    /* \"#utility.yul\":179:185   */\n  dup5\n    /* \"#utility.yul\":137:186   */\n  tag_26\n  jump\t// in\ntag_25:\n    /* \"#utility.yul\":121:187   */\n  tag_27\n  jump\t// in\ntag_24:\n    /* \"#utility.yul\":112:187   */\n  swap1\n  pop\n    /* \"#utility.yul\":210:216   */\n  dup3\n    /* \"#utility.yul\":203:208   */\n  dup2\n    /* \"#utility.yul\":196:217   */\n  mstore\n    /* \"#utility.yul\":248:252   */\n  0x20\n    /* \"#utility.yul\":241:246   */\n  dup2\n    /* \"#utility.yul\":237:253   */\n  add\n    /* \"#utility.yul\":286:289   */\n  dup5\n    /* \"#utility.yul\":277:283   */\n  dup5\n    /* \"#utility.yul\":272:275   */\n  dup5\n    /* \"#utility.yul\":268:284   */\n  add\n    /* \"#utility.yul\":265:290   */\n  gt\n    /* \"#utility.yul\":262:374   */\n  iszero\n  tag_28\n  jumpi\n    /* \"#utility.yul\":293:372   */\n  tag_29\n  tag_30\n  jump\t// in\ntag_29:\n    /* \"#utility.yul\":262:374   */\ntag_28:\n    /* \"#utility.yul\":383:422   */\n  tag_31\n    /* \"#utility.yul\":415:421   */\n  dup5\n    /* \"#utility.yul\":410:413   */\n  dup3\n    /* \"#utility.yul\":405:408   */\n  dup6\n    /* \"#utility.yul\":383:422   */\n  tag_32\n  jump\t// in\ntag_31:\n    /* \"#utility.yul\":102:428   */\n  pop\n    /* \"#utility.yul\":7:428   */\n  swap4\n  swap3\n  pop\n  pop\n  pop\n  jump\t// out\n    /* \"#utility.yul\":448:803   */\ntag_33:\n    /* \"#utility.yul\":515:520   */\n  0x00\n    /* \"#utility.yul\":564:567   */\n  dup3\n    /* \"#utility.yul\":557:561   */\n  0x1f\n    /* \"#utility.yul\":549:555   */\n  dup4\n    /* \"#utility.yul\":545:562   */\n  add\n    /* \"#utility.yul\":541:568   */\n  slt\n    /* \"#utility.yul\":531:653   */\n  tag_35\n  jumpi\n    /* \"#utility.yul\":572:651   */\n  tag_36\n  tag_37\n  jump\t// in\ntag_36:\n    /* \"#utility.yul\":531:653   */\ntag_35:\n    /* \"#utility.yul\":682:688   */\n  dup2\n    /* \"#utility.yul\":676:689   */\n  mload\n    /* \"#utility.yul\":707:797   */\n  tag_38\n    /* \"#utility.yul\":793:796   */\n  dup5\n    /* \"#utility.yul\":785:791   */\n  dup3\n    /* \"#utility.yul\":778:782   */\n  0x20\n    /* \"#utility.yul\":770:776   */\n  dup7\n    /* \"#utility.yul\":766:783   */\n  add\n    /* \"#utility.yul\":707:797   */\n  tag_22\n  jump\t// in\ntag_38:\n    /* \"#utility.yul\":698:797   */\n  swap2\n  pop\n    /* \"#utility.yul\":521:803   */\n  pop\n    /* \"#utility.yul\":448:803   */\n  swap3\n  swap2\n  pop\n  pop\n  jump\t// out\n    /* \"#utility.yul\":809:1662   */\ntag_3:\n    /* \"#utility.yul\":908:914   */\n  0x00\n    /* \"#utility.yul\":916:922   */\n  dup1\n    /* \"#utility.yul\":965:967   */\n  0x40\n    /* \"#utility.yul\":953:962   */\n  dup4\n    /* \"#utility.yul\":944:951   */\n  dup6\n    /* \"#utility.yul\":940:963   */\n  sub\n    /* \"#utility.yul\":936:968   */\n  slt\n    /* \"#utility.yul\":933:1052   */\n  iszero\n  tag_40\n  jumpi\n    /* \"#utility.yul\":971:1050   */\n  tag_41\n  tag_42\n  jump\t// in\ntag_41:\n    /* \"#utility.yul\":933:1052   */\ntag_40:\n    /* \"#utility.yul\":1112:1113   */\n  0x00\n    /* \"#utility.yul\":1101:1110   */\n  dup4\n    /* \"#utility.yul\":1097:1114   */\n  add\n    /* \"#utility.yul\":1091:1115   */\n  mload\n    /* \"#utility.yul\":1142:1160   */\n  0xffffffffffffffff\n    /* \"#utility.yul\":1134:1140   */\n  dup2\n    /* \"#utility.yul\":1131:1161   */\n  gt\n    /* \"#utility.yul\":1128:1245   */\n  iszero\n  tag_43\n  jumpi\n    /* \"#utility.yul\":1164:1243   */\n  tag_44\n  tag_45\n  jump\t// in\ntag_44:\n    /* \"#utility.yul\":1128:1245   */\ntag_43:\n    /* \"#utility.yul\":1269:1343   */\n  tag_46\n    /* \"#utility.yul\":1335:1342   */\n  dup6\n    /* \"#utility.yul\":1326:1332   */\n  dup3\n    /* \"#utility.yul\":1315:1324   */\n  dup7\n    /* \"#utility.yul\":1311:1333   */\n  add\n    /* \"#utility.yul\":1269:1343   */\n  tag_33\n  jump\t// in\ntag_46:\n    /* \"#utility.yul\":1259:1343   */\n  swap3\n  pop\n    /* \"#utility.yul\":1062:1353   */\n  pop\n    /* \"#utility.yul\":1413:1415   */\n  0x20\n    /* \"#utility.yul\":1402:1411   */\n  dup4\n    /* \"#utility.yul\":1398:1416   */\n  add\n    /* \"#utility.yul\":1392:1417   */\n  mload\n    /* \"#utility.yul\":1444:1462   */\n  0xffffffffffffffff\n    /* \"#utility.yul\":1436:1442   */\n  dup2\n    /* \"#utility.yul\":1433:1463   */\n  gt\n    /* \"#utility.yul\":1430:1547   */\n  iszero\n  tag_47\n  jumpi\n    /* \"#utility.yul\":1466:1545   */\n  tag_48\n  tag_45\n  jump\t// in\ntag_48:\n    /* \"#utility.yul\":1430:1547   */\ntag_47:\n    /* \"#utility.yul\":1571:1645   */\n  tag_49\n    /* \"#utility.yul\":1637:1644   */\n  dup6\n    /* \"#utility.yul\":1628:1634   */\n  dup3\n    /* \"#utility.yul\":1617:1626   */\n  dup7\n    /* \"#utility.yul\":1613:1635   */\n  add\n    /* \"#utility.yul\":1571:1645   */\n  tag_33\n  jump\t// in\ntag_49:\n    /* \"#utility.yul\":1561:1645   */\n  swap2\n  pop\n    /* \"#utility.yul\":1363:1655   */\n  pop\n    /* \"#utility.yul\":809:1662   */\n  swap3\n  pop\n  swap3\n  swap1\n  pop\n  jump\t// out\n    /* \"#utility.yul\":1668:1797   */\ntag_27:\n    /* \"#utility.yul\":1702:1708   */\n  0x00\n    /* \"#utility.yul\":1729:1749   */\n  tag_51\n  tag_52\n  jump\t// in\ntag_51:\n    /* \"#utility.yul\":1719:1749   */\n  swap1\n  pop\n    /* \"#utility.yul\":1758:1791   */\n  tag_53\n    /* \"#utility.yul\":1786:1790   */\n  dup3\n    /* \"#utility.yul\":1778:1784   */\n  dup3\n    /* \"#utility.yul\":1758:1791   */\n  tag_54\n  jump\t// in\ntag_53:\n    /* \"#utility.yul\":1668:1797   */\n  swap2\n  swap1\n  pop\n  jump\t// out\n    /* \"#utility.yul\":1803:1878   */\ntag_52:\n    /* \"#utility.yul\":1836:1842   */\n  0x00\n    /* \"#utility.yul\":1869:1871   */\n  0x40\n    /* \"#utility.yul\":1863:1872   */\n  mload\n    /* \"#utility.yul\":1853:1872   */\n  swap1\n  pop\n    /* \"#utility.yul\":1803:1878   */\n  swap1\n  jump\t// out\n    /* \"#utility.yul\":1884:2192   */\ntag_26:\n    /* \"#utility.yul\":1946:1950   */\n  0x00\n    /* \"#utility.yul\":2036:2054   */\n  0xffffffffffffffff\n    /* \"#utility.yul\":2028:2034   */\n  dup3\n    /* \"#utility.yul\":2025:2055   */\n  gt\n    /* \"#utility.yul\":2022:2078   */\n  iszero\n  tag_57\n  jumpi\n    /* \"#utility.yul\":2058:2076   */\n  tag_58\n  tag_59\n  jump\t// in\ntag_58:\n    /* \"#utility.yul\":2022:2078   */\ntag_57:\n    /* \"#utility.yul\":2096:2125   */\n  tag_60\n    /* \"#utility.yul\":2118:2124   */\n  dup3\n    /* \"#utility.yul\":2096:2125   */\n  tag_61\n  jump\t// in\ntag_60:\n    /* \"#utility.yul\":2088:2125   */\n  swap1\n  pop\n    /* \"#utility.yul\":2180:2184   */\n  0x20\n    /* \"#utility.yul\":2174:2178   */\n  dup2\n    /* \"#utility.yul\":2170:2185   */\n  add\n    /* \"#utility.yul\":2162:2185   */\n  swap1\n  pop\n    /* \"#utility.yul\":1884:2192   */\n  swap2\n  swap1\n  pop\n  jump\t// out\n    /* \"#utility.yul\":2198:2505   */\ntag_32:\n    /* \"#utility.yul\":2266:2267   */\n  0x00\n    /* \"#utility.yul\":2276:2389   */\ntag_63:\n    /* \"#utility.yul\":2290:2296   */\n  dup4\n    /* \"#utility.yul\":2287:2288   */\n  dup2\n    /* \"#utility.yul\":2284:2297   */\n  lt\n    /* \"#utility.yul\":2276:2389   */\n  iszero\n  tag_65\n  jumpi\n    /* \"#utility.yul\":2375:2376   */\n  dup1\n    /* \"#utility.yul\":2370:2373   */\n  dup3\n    /* \"#utility.yul\":2366:2377   */\n  add\n    /* \"#utility.yul\":2360:2378   */\n  mload\n    /* \"#utility.yul\":2356:2357   */\n  dup2\n    /* \"#utility.yul\":2351:2354   */\n  dup5\n    /* \"#utility.yul\":2347:2358   */\n  add\n    /* \"#utility.yul\":2340:2379   */\n  mstore\n    /* \"#utility.yul\":2312:2314   */\n  0x20\n    /* \"#utility.yul\":2309:2310   */\n  dup2\n    /* \"#utility.yul\":2305:2315   */\n  add\n    /* \"#utility.yul\":2300:2315   */\n  swap1\n  pop\n    /* \"#utility.yul\":2276:2389   */\n  jump(tag_63)\ntag_65:\n    /* \"#utility.yul\":2407:2413   */\n  dup4\n    /* \"#utility.yul\":2404:2405   */\n  dup2\n    /* \"#utility.yul\":2401:2414   */\n  gt\n    /* \"#utility.yul\":2398:2499   */\n  iszero\n  tag_66\n  jumpi\n    /* \"#utility.yul\":2487:2488   */\n  0x00\n    /* \"#utility.yul\":2478:2484   */\n  dup5\n    /* \"#utility.yul\":2473:2476   */\n  dup5\n    /* \"#utility.yul\":2469:2485   */\n  add\n    /* \"#utility.yul\":2462:2489   */\n  mstore\n    /* \"#utility.yul\":2398:2499   */\ntag_66:\n    /* \"#utility.yul\":2247:2505   */\n  pop\n    /* \"#utility.yul\":2198:2505   */\n  pop\n  pop\n  pop\n  jump\t// out\n    /* \"#utility.yul\":2511:2831   */\ntag_11:\n    /* \"#utility.yul\":2555:2561   */\n  0x00\n    /* \"#utility.yul\":2592:2593   */\n  0x02\n    /* \"#utility.yul\":2586:2590   */\n  dup3\n    /* \"#utility.yul\":2582:2594   */\n  div\n    /* \"#utility.yul\":2572:2594   */\n  swap1\n  pop\n    /* \"#utility.yul\":2639:2640   */\n  0x01\n    /* \"#utility.yul\":2633:2637   */\n  dup3\n    /* \"#utility.yul\":2629:2641   */\n  and\n    /* \"#utility.yul\":2660:2678   */\n  dup1\n    /* \"#utility.yul\":2650:2731   */\n  tag_68\n  jumpi\n    /* \"#utility.yul\":2716:2720   */\n  0x7f\n    /* \"#utility.yul\":2708:2714   */\n  dup3\n    /* \"#utility.yul\":2704:2721   */\n  and\n    /* \"#utility.yul\":2694:2721   */\n  swap2\n  pop\n    /* \"#utility.yul\":2650:2731   */\ntag_68:\n    /* \"#utility.yul\":2778:2780   */\n  0x20\n    /* \"#utility.yul\":2770:2776   */\n  dup3\n    /* \"#utility.yul\":2767:2781   */\n  lt\n    /* \"#utility.yul\":2747:2765   */\n  dup2\n    /* \"#utility.yul\":2744:2782   */\n  eq\n    /* \"#utility.yul\":2741:2825   */\n  iszero\n  tag_69\n  jumpi\n    /* \"#utility.yul\":2797:2815   */\n  tag_70\n  tag_71\n  jump\t// in\ntag_70:\n    /* \"#utility.yul\":2741:2825   */\ntag_69:\n    /* \"#utility.yul\":2562:2831   */\n  pop\n    /* \"#utility.yul\":2511:2831   */\n  swap2\n  swap1\n  pop\n  jump\t// out\n    /* \"#utility.yul\":2837:3118   */\ntag_54:\n    /* \"#utility.yul\":2920:2947   */\n  tag_73\n    /* \"#utility.yul\":2942:2946   */\n  dup3\n    /* \"#utility.yul\":2920:2947   */\n  tag_61\n  jump\t// in\ntag_73:\n    /* \"#utility.yul\":2912:2918   */\n  dup2\n    /* \"#utility.yul\":2908:2948   */\n  add\n    /* \"#utility.yul\":3050:3056   */\n  dup2\n    /* \"#utility.yul\":3038:3048   */\n  dup2\n    /* \"#utility.yul\":3035:3057   */\n  lt\n    /* \"#utility.yul\":3014:3032   */\n  0xffffffffffffffff\n    /* \"#utility.yul\":3002:3012   */\n  dup3\n    /* \"#utility.yul\":2999:3033   */\n  gt\n    /* \"#utility.yul\":2996:3058   */\n  or\n    /* \"#utility.yul\":2993:3081   */\n  iszero\n  tag_74\n  jumpi\n    /* \"#utility.yul\":3061:3079   */\n  tag_75\n  tag_59\n  jump\t// in\ntag_75:\n    /* \"#utility.yul\":2993:3081   */\ntag_74:\n    /* \"#utility.yul\":3101:3111   */\n  dup1\n    /* \"#utility.yul\":3097:3099   */\n  0x40\n    /* \"#utility.yul\":3090:3112   */\n  mstore\n    /* \"#utility.yul\":2880:3118   */\n  pop\n    /* \"#utility.yul\":2837:3118   */\n  pop\n  pop\n  jump\t// out\n    /* \"#utility.yul\":3124:3304   */\ntag_71:\n    /* \"#utility.yul\":3172:3249   */\n  0x4e487b7100000000000000000000000000000000000000000000000000000000\n    /* \"#utility.yul\":3169:3170   */\n  0x00\n    /* \"#utility.yul\":3162:3250   */\n  mstore\n    /* \"#utility.yul\":3269:3273   */\n  0x22\n    /* \"#utility.yul\":3266:3267   */\n  0x04\n    /* \"#utility.yul\":3259:3274   */\n  mstore\n    /* \"#utility.yul\":3293:3297   */\n  0x24\n    /* \"#utility.yul\":3290:3291   */\n  0x00\n    /* \"#utility.yul\":3283:3298   */\n  revert\n    /* \"#utility.yul\":3310:3490   */\ntag_59:\n    /* \"#utility.yul\":3358:3435   */\n  0x4e487b7100000000000000000000000000000000000000000000000000000000\n    /* \"#utility.yul\":3355:3356   */\n  0x00\n    /* \"#utility.yul\":3348:3436   */\n  mstore\n    /* \"#utility.yul\":3455:3459   */\n  0x41\n    /* \"#utility.yul\":3452:3453   */\n  0x04\n    /* \"#utility.yul\":3445:3460   */\n  mstore\n    /* \"#utility.yul\":3479:3483   */\n  0x24\n    /* \"#utility.yul\":3476:3477   */\n  0x00\n    /* \"#utility.yul\":3469:3484   */\n  revert\n    /* \"#utility.yul\":3496:3613   */\ntag_37:\n    /* \"#utility.yul\":3605:3606   */\n  0x00\n    /* \"#utility.yul\":3602:3603   */\n  dup1\n    /* \"#utility.yul\":3595:3607   */\n  revert\n    /* \"#utility.yul\":3619:3736   */\ntag_30:\n    /* \"#utility.yul\":3728:3729   */\n  0x00\n    /* \"#utility.yul\":3725:3726   */\n  dup1\n    /* \"#utility.yul\":3718:3730   */\n  revert\n    /* \"#utility.yul\":3742:3859   */\ntag_45:\n    /* \"#utility.yul\":3851:3852   */\n  0x00\n    /* \"#utility.yul\":3848:3849   */\n  dup1\n    /* \"#utility.yul\":3841:3853   */\n  revert\n    /* \"#utility.yul\":3865:3982   */\ntag_42:\n    /* \"#utility.yul\":3974:3975   */\n  0x00\n    /* \"#utility.yul\":3971:3972   */\n  dup1\n    /* \"#utility.yul\":3964:3976   */\n  revert\n    /* \"#utility.yul\":3988:4090   */\ntag_61:\n    /* \"#utility.yul\":4029:4035   */\n  0x00\n    /* \"#utility.yul\":4080:4082   */\n  0x1f\n    /* \"#utility.yul\":4076:4083   */\n  not\n    /* \"#utility.yul\":4071:4073   */\n  0x1f\n    /* \"#utility.yul\":4064:4069   */\n  dup4\n    /* \"#utility.yul\":4060:4074   */\n  add\n    /* \"#utility.yul\":4056:4084   */\n  and\n    /* \"#utility.yul\":4046:4084   */\n  swap1\n  pop\n    /* \"#utility.yul\":3988:4090   */\n  swap2\n  swap1\n  pop\n  jump\t// out\n    /* \"ERC20_flat.sol\":8186:19409  contract ERC20 is Context, IERC20, IERC20Metadata {... */\ntag_9:\n  dataSize(sub_0)\n  dup1\n  dataOffset(sub_0)\n  0x00\n  codecopy\n  0x00\n  return\nstop\n\nsub_0: assembly {\n        /* \"ERC20_flat.sol\":8186:19409  contract ERC20 is Context, IERC20, IERC20Metadata {... */\n      mstore(0x40, 0x80)\n      callvalue\n      dup1\n      iszero\n      tag_1\n      jumpi\n      0x00\n      dup1\n      revert\n    tag_1:\n      pop\n      jumpi(tag_2, lt(calldatasize, 0x04))\n      shr(0xe0, calldataload(0x00))\n      dup1\n      0x39509351\n      gt\n      tag_14\n      jumpi\n      dup1\n      0x39509351\n      eq\n      tag_8\n      jumpi\n      dup1\n      0x70a08231\n      eq\n      tag_9\n      jumpi\n      dup1\n      0x95d89b41\n      eq\n      tag_10\n      jumpi\n      dup1\n      0xa457c2d7\n      eq\n      tag_11\n      jumpi\n      dup1\n      0xa9059cbb\n      eq\n      tag_12\n      jumpi\n      dup1\n      0xdd62ed3e\n      eq\n      tag_13\n      jumpi\n      jump(tag_2)\n    tag_14:\n      dup1\n      0x06fdde03\n      eq\n      tag_3\n      jumpi\n      dup1\n      0x095ea7b3\n      eq\n      tag_4\n      jumpi\n      dup1\n      0x18160ddd\n      eq\n      tag_5\n      jumpi\n      dup1\n      0x23b872dd\n      eq\n      tag_6\n      jumpi\n      dup1\n      0x313ce567\n      eq\n      tag_7\n      jumpi\n    tag_2:\n      0x00\n      dup1\n      revert\n        /* \"ERC20_flat.sol\":8939:9037  function name() public view virtual override returns (string memory) {... */\n    tag_3:\n      tag_15\n      tag_16\n      jump\t// in\n    tag_15:\n      mload(0x40)\n      tag_17\n      swap2\n      swap1\n      tag_18\n      jump\t// in\n    tag_17:\n      mload(0x40)\n      dup1\n      swap2\n      sub\n      swap1\n      return\n        /* \"ERC20_flat.sol\":11216:11413  function approve(address spender, uint256 amount) public virtual override returns (bool) {... */\n    tag_4:\n      tag_19\n      0x04\n      dup1\n      calldatasize\n      sub\n      dup2\n      add\n      swap1\n      tag_20\n      swap2\n      swap1\n      tag_21\n      jump\t// in\n    tag_20:\n      tag_22\n      jump\t// in\n    tag_19:\n      mload(0x40)\n      tag_23\n      swap2\n      swap1\n      tag_24\n      jump\t// in\n    tag_23:\n      mload(0x40)\n      dup1\n      swap2\n      sub\n      swap1\n      return\n        /* \"ERC20_flat.sol\":10027:10133  function totalSupply() public view virtual override returns (uint256) {... */\n    tag_5:\n      tag_25\n      tag_26\n      jump\t// in\n    tag_25:\n      mload(0x40)\n      tag_27\n      swap2\n      swap1\n      tag_28\n      jump\t// in\n    tag_27:\n      mload(0x40)\n      dup1\n      swap2\n      sub\n      swap1\n      return\n        /* \"ERC20_flat.sol\":11975:12261  function transferFrom(... */\n    tag_6:\n      tag_29\n      0x04\n      dup1\n      calldatasize\n      sub\n      dup2\n      add\n      swap1\n      tag_30\n      swap2\n      swap1\n      tag_31\n      jump\t// in\n    tag_30:\n      tag_32\n      jump\t// in\n    tag_29:\n      mload(0x40)\n      tag_33\n      swap2\n      swap1\n      tag_24\n      jump\t// in\n    tag_33:\n      mload(0x40)\n      dup1\n      swap2\n      sub\n      swap1\n      return\n        /* \"ERC20_flat.sol\":9876:9967  function decimals() public view virtual override returns (uint8) {... */\n    tag_7:\n      tag_34\n      tag_35\n      jump\t// in\n    tag_34:\n      mload(0x40)\n      tag_36\n      swap2\n      swap1\n      tag_37\n      jump\t// in\n    tag_36:\n      mload(0x40)\n      dup1\n      swap2\n      sub\n      swap1\n      return\n        /* \"ERC20_flat.sol\":12656:12892  function increaseAllowance(address spender, uint256 addedValue) public virtual returns (bool) {... */\n    tag_8:\n      tag_38\n      0x04\n      dup1\n      calldatasize\n      sub\n      dup2\n      add\n      swap1\n      tag_39\n      swap2\n      swap1\n      tag_21\n      jump\t// in\n    tag_39:\n      tag_40\n      jump\t// in\n    tag_38:\n      mload(0x40)\n      tag_41\n      swap2\n      swap1\n      tag_24\n      jump\t// in\n    tag_41:\n      mload(0x40)\n      dup1\n      swap2\n      sub\n      swap1\n      return\n        /* \"ERC20_flat.sol\":10191:10316  function balanceOf(address account) public view virtual override returns (uint256) {... */\n    tag_9:\n      tag_42\n      0x04\n      dup1\n      calldatasize\n      sub\n      dup2\n      add\n      swap1\n      tag_43\n      swap2\n      swap1\n      tag_44\n      jump\t// in\n    tag_43:\n      tag_45\n      jump\t// in\n    tag_42:\n      mload(0x40)\n      tag_46\n      swap2\n      swap1\n      tag_28\n      jump\t// in\n    tag_46:\n      mload(0x40)\n      dup1\n      swap2\n      sub\n      swap1\n      return\n        /* \"ERC20_flat.sol\":9150:9252  function symbol() public view virtual override returns (string memory) {... */\n    tag_10:\n      tag_47\n      tag_48\n      jump\t// in\n    tag_47:\n      mload(0x40)\n      tag_49\n      swap2\n      swap1\n      tag_18\n      jump\t// in\n    tag_49:\n      mload(0x40)\n      dup1\n      swap2\n      sub\n      swap1\n      return\n        /* \"ERC20_flat.sol\":13379:13808  function decreaseAllowance(address spender, uint256 subtractedValue) public virtual returns (bool) {... */\n    tag_11:\n      tag_50\n      0x04\n      dup1\n      calldatasize\n      sub\n      dup2\n      add\n      swap1\n      tag_51\n      swap2\n      swap1\n      tag_21\n      jump\t// in\n    tag_51:\n      tag_52\n      jump\t// in\n    tag_50:\n      mload(0x40)\n      tag_53\n      swap2\n      swap1\n      tag_24\n      jump\t// in\n    tag_53:\n      mload(0x40)\n      dup1\n      swap2\n      sub\n      swap1\n      return\n        /* \"ERC20_flat.sol\":10512:10701  function transfer(address to, uint256 amount) public virtual override returns (bool) {... */\n    tag_12:\n      tag_54\n      0x04\n      dup1\n      calldatasize\n      sub\n      dup2\n      add\n      swap1\n      tag_55\n      swap2\n      swap1\n      tag_21\n      jump\t// in\n    tag_55:\n      tag_56\n      jump\t// in\n    tag_54:\n      mload(0x40)\n      tag_57\n      swap2\n      swap1\n      tag_24\n      jump\t// in\n    tag_57:\n      mload(0x40)\n      dup1\n      swap2\n      sub\n      swap1\n      return\n        /* \"ERC20_flat.sol\":10759:10908  function allowance(address owner, address spender) public view virtual override returns (uint256) {... */\n    tag_13:\n      tag_58\n      0x04\n      dup1\n      calldatasize\n      sub\n      dup2\n      add\n      swap1\n      tag_59\n      swap2\n      swap1\n      tag_60\n      jump\t// in\n    tag_59:\n      tag_61\n      jump\t// in\n    tag_58:\n      mload(0x40)\n      tag_62\n      swap2\n      swap1\n      tag_28\n      jump\t// in\n    tag_62:\n      mload(0x40)\n      dup1\n      swap2\n      sub\n      swap1\n      return\n        /* \"ERC20_flat.sol\":8939:9037  function name() public view virtual override returns (string memory) {... */\n    tag_16:\n        /* \"ERC20_flat.sol\":8993:9006  string memory */\n      0x60\n        /* \"ERC20_flat.sol\":9025:9030  _name */\n      0x03\n        /* \"ERC20_flat.sol\":9018:9030  return _name */\n      dup1\n      sload\n      tag_64\n      swap1\n      tag_65\n      jump\t// in\n    tag_64:\n      dup1\n      0x1f\n      add\n      0x20\n      dup1\n      swap2\n      div\n      mul\n      0x20\n      add\n      mload(0x40)\n      swap1\n      dup2\n      add\n      0x40\n      mstore\n      dup1\n      swap3\n      swap2\n      swap1\n      dup2\n      dup2\n      mstore\n      0x20\n      add\n      dup3\n      dup1\n      sload\n      tag_66\n      swap1\n      tag_65\n      jump\t// in\n    tag_66:\n      dup1\n      iszero\n      tag_67\n      jumpi\n      dup1\n      0x1f\n      lt\n      tag_68\n      jumpi\n      0x0100\n      dup1\n      dup4\n      sload\n      div\n      mul\n      dup4\n      mstore\n      swap2\n      0x20\n      add\n      swap2\n      jump(tag_67)\n    tag_68:\n      dup3\n      add\n      swap2\n      swap1\n      0x00\n      mstore\n      keccak256(0x00, 0x20)\n      swap1\n    tag_69:\n      dup2\n      sload\n      dup2\n      mstore\n      swap1\n      0x01\n      add\n      swap1\n      0x20\n      add\n      dup1\n      dup4\n      gt\n      tag_69\n      jumpi\n      dup3\n      swap1\n      sub\n      0x1f\n      and\n      dup3\n      add\n      swap2\n    tag_67:\n      pop\n      pop\n      pop\n      pop\n      pop\n      swap1\n      pop\n        /* \"ERC20_flat.sol\":8939:9037  function name() public view virtual override returns (string memory) {... */\n      swap1\n      jump\t// out\n        /* \"ERC20_flat.sol\":11216:11413  function approve(address spender, uint256 amount) public virtual override returns (bool) {... */\n    tag_22:\n        /* \"ERC20_flat.sol\":11299:11303  bool */\n      0x00\n        /* \"ERC20_flat.sol\":11315:11328  address owner */\n      dup1\n        /* \"ERC20_flat.sol\":11331:11343  _msgSender() */\n      tag_71\n        /* \"ERC20_flat.sol\":11331:11341  _msgSender */\n      tag_72\n        /* \"ERC20_flat.sol\":11331:11343  _msgSender() */\n      jump\t// in\n    tag_71:\n        /* \"ERC20_flat.sol\":11315:11343  address owner = _msgSender() */\n      swap1\n      pop\n        /* \"ERC20_flat.sol\":11353:11385  _approve(owner, spender, amount) */\n      tag_73\n        /* \"ERC20_flat.sol\":11362:11367  owner */\n      dup2\n        /* \"ERC20_flat.sol\":11369:11376  spender */\n      dup6\n        /* \"ERC20_flat.sol\":11378:11384  amount */\n      dup6\n        /* \"ERC20_flat.sol\":11353:11361  _approve */\n      tag_74\n        /* \"ERC20_flat.sol\":11353:11385  _approve(owner, spender, amount) */\n      jump\t// in\n    tag_73:\n        /* \"ERC20_flat.sol\":11402:11406  true */\n      0x01\n        /* \"ERC20_flat.sol\":11395:11406  return true */\n      swap2\n      pop\n      pop\n        /* \"ERC20_flat.sol\":11216:11413  function approve(address spender, uint256 amount) public virtual override returns (bool) {... */\n      swap3\n      swap2\n      pop\n      pop\n      jump\t// out\n        /* \"ERC20_flat.sol\":10027:10133  function totalSupply() public view virtual override returns (uint256) {... */\n    tag_26:\n        /* \"ERC20_flat.sol\":10088:10095  uint256 */\n      0x00\n        /* \"ERC20_flat.sol\":10114:10126  _totalSupply */\n      sload(0x02)\n        /* \"ERC20_flat.sol\":10107:10126  return _totalSupply */\n      swap1\n      pop\n        /* \"ERC20_flat.sol\":10027:10133  function totalSupply() public view virtual override returns (uint256) {... */\n      swap1\n      jump\t// out\n        /* \"ERC20_flat.sol\":11975:12261  function transferFrom(... */\n    tag_32:\n        /* \"ERC20_flat.sol\":12102:12106  bool */\n      0x00\n        /* \"ERC20_flat.sol\":12118:12133  address spender */\n      dup1\n        /* \"ERC20_flat.sol\":12136:12148  _msgSender() */\n      tag_77\n        /* \"ERC20_flat.sol\":12136:12146  _msgSender */\n      tag_72\n        /* \"ERC20_flat.sol\":12136:12148  _msgSender() */\n      jump\t// in\n    tag_77:\n        /* \"ERC20_flat.sol\":12118:12148  address spender = _msgSender() */\n      swap1\n      pop\n        /* \"ERC20_flat.sol\":12158:12196  _spendAllowance(from, spender, amount) */\n      tag_78\n        /* \"ERC20_flat.sol\":12174:12178  from */\n      dup6\n        /* \"ERC20_flat.sol\":12180:12187  spender */\n      dup3\n        /* \"ERC20_flat.sol\":12189:12195  amount */\n      dup6\n        /* \"ERC20_flat.sol\":12158:12173  _spendAllowance */\n      tag_79\n        /* \"ERC20_flat.sol\":12158:12196  _spendAllowance(from, spender, amount) */\n      jump\t// in\n    tag_78:\n        /* \"ERC20_flat.sol\":12206:12233  _transfer(from, to, amount) */\n      tag_80\n        /* \"ERC20_flat.sol\":12216:12220  from */\n      dup6\n        /* \"ERC20_flat.sol\":12222:12224  to */\n      dup6\n        /* \"ERC20_flat.sol\":12226:12232  amount */\n      dup6\n        /* \"ERC20_flat.sol\":12206:12215  _transfer */\n      tag_81\n        /* \"ERC20_flat.sol\":12206:12233  _transfer(from, to, amount) */\n      jump\t// in\n    tag_80:\n        /* \"ERC20_flat.sol\":12250:12254  true */\n      0x01\n        /* \"ERC20_flat.sol\":12243:12254  return true */\n      swap2\n      pop\n      pop\n        /* \"ERC20_flat.sol\":11975:12261  function transferFrom(... */\n      swap4\n      swap3\n      pop\n      pop\n      pop\n      jump\t// out\n        /* \"ERC20_flat.sol\":9876:9967  function decimals() public view virtual override returns (uint8) {... */\n    tag_35:\n        /* \"ERC20_flat.sol\":9934:9939  uint8 */\n      0x00\n        /* \"ERC20_flat.sol\":9958:9960  18 */\n      0x12\n        /* \"ERC20_flat.sol\":9951:9960  return 18 */\n      swap1\n      pop\n        /* \"ERC20_flat.sol\":9876:9967  function decimals() public view virtual override returns (uint8) {... */\n      swap1\n      jump\t// out\n        /* \"ERC20_flat.sol\":12656:12892  function increaseAllowance(address spender, uint256 addedValue) public virtual returns (bool) {... */\n    tag_40:\n        /* \"ERC20_flat.sol\":12744:12748  bool */\n      0x00\n        /* \"ERC20_flat.sol\":12760:12773  address owner */\n      dup1\n        /* \"ERC20_flat.sol\":12776:12788  _msgSender() */\n      tag_84\n        /* \"ERC20_flat.sol\":12776:12786  _msgSender */\n      tag_72\n        /* \"ERC20_flat.sol\":12776:12788  _msgSender() */\n      jump\t// in\n    tag_84:\n        /* \"ERC20_flat.sol\":12760:12788  address owner = _msgSender() */\n      swap1\n      pop\n        /* \"ERC20_flat.sol\":12798:12864  _approve(owner, spender, _allowances[owner][spender] + addedValue) */\n      tag_85\n        /* \"ERC20_flat.sol\":12807:12812  owner */\n      dup2\n        /* \"ERC20_flat.sol\":12814:12821  spender */\n      dup6\n        /* \"ERC20_flat.sol\":12853:12863  addedValue */\n      dup6\n        /* \"ERC20_flat.sol\":12823:12834  _allowances */\n      0x01\n        /* \"ERC20_flat.sol\":12823:12841  _allowances[owner] */\n      0x00\n        /* \"ERC20_flat.sol\":12835:12840  owner */\n      dup7\n        /* \"ERC20_flat.sol\":12823:12841  _allowances[owner] */\n      0xffffffffffffffffffffffffffffffffffffffff\n      and\n      0xffffffffffffffffffffffffffffffffffffffff\n      and\n      dup2\n      mstore\n      0x20\n      add\n      swap1\n      dup2\n      mstore\n      0x20\n      add\n      0x00\n      keccak256\n        /* \"ERC20_flat.sol\":12823:12850  _allowances[owner][spender] */\n      0x00\n        /* \"ERC20_flat.sol\":12842:12849  spender */\n      dup10\n        /* \"ERC20_flat.sol\":12823:12850  _allowances[owner][spender] */\n      0xffffffffffffffffffffffffffffffffffffffff\n      and\n      0xffffffffffffffffffffffffffffffffffffffff\n      and\n      dup2\n      mstore\n      0x20\n      add\n      swap1\n      dup2\n      mstore\n      0x20\n      add\n      0x00\n      keccak256\n      sload\n        /* \"ERC20_flat.sol\":12823:12863  _allowances[owner][spender] + addedValue */\n      tag_86\n      swap2\n      swap1\n      tag_87\n      jump\t// in\n    tag_86:\n        /* \"ERC20_flat.sol\":12798:12806  _approve */\n      tag_74\n        /* \"ERC20_flat.sol\":12798:12864  _approve(owner, spender, _allowances[owner][spender] + addedValue) */\n      jump\t// in\n    tag_85:\n        /* \"ERC20_flat.sol\":12881:12885  true */\n      0x01\n        /* \"ERC20_flat.sol\":12874:12885  return true */\n      swap2\n      pop\n      pop\n        /* \"ERC20_flat.sol\":12656:12892  function increaseAllowance(address spender, uint256 addedValue) public virtual returns (bool) {... */\n      swap3\n      swap2\n      pop\n      pop\n      jump\t// out\n        /* \"ERC20_flat.sol\":10191:10316  function balanceOf(address account) public view virtual override returns (uint256) {... */\n    tag_45:\n        /* \"ERC20_flat.sol\":10265:10272  uint256 */\n      0x00\n        /* \"ERC20_flat.sol\":10291:10300  _balances */\n      dup1\n        /* \"ERC20_flat.sol\":10291:10309  _balances[account] */\n      0x00\n        /* \"ERC20_flat.sol\":10301:10308  account */\n      dup4\n        /* \"ERC20_flat.sol\":10291:10309  _balances[account] */\n      0xffffffffffffffffffffffffffffffffffffffff\n      and\n      0xffffffffffffffffffffffffffffffffffffffff\n      and\n      dup2\n      mstore\n      0x20\n      add\n      swap1\n      dup2\n      mstore\n      0x20\n      add\n      0x00\n      keccak256\n      sload\n        /* \"ERC20_flat.sol\":10284:10309  return _balances[account] */\n      swap1\n      pop\n        /* \"ERC20_flat.sol\":10191:10316  function balanceOf(address account) public view virtual override returns (uint256) {... */\n      swap2\n      swap1\n      pop\n      jump\t// out\n        /* \"ERC20_flat.sol\":9150:9252  function symbol() public view virtual override returns (string memory) {... */\n    tag_48:\n        /* \"ERC20_flat.sol\":9206:9219  string memory */\n      0x60\n        /* \"ERC20_flat.sol\":9238:9245  _symbol */\n      0x04\n        /* \"ERC20_flat.sol\":9231:9245  return _symbol */\n      dup1\n      sload\n      tag_90\n      swap1\n      tag_65\n      jump\t// in\n    tag_90:\n      dup1\n      0x1f\n      add\n      0x20\n      dup1\n      swap2\n      div\n      mul\n      0x20\n      add\n      mload(0x40)\n      swap1\n      dup2\n      add\n      0x40\n      mstore\n      dup1\n      swap3\n      swap2\n      swap1\n      dup2\n      dup2\n      mstore\n      0x20\n      add\n      dup3\n      dup1\n      sload\n      tag_91\n      swap1\n      tag_65\n      jump\t// in\n    tag_91:\n      dup1\n      iszero\n      tag_92\n      jumpi\n      dup1\n      0x1f\n      lt\n      tag_93\n      jumpi\n      0x0100\n      dup1\n      dup4\n      sload\n      div\n      mul\n      dup4\n      mstore\n      swap2\n      0x20\n      add\n      swap2\n      jump(tag_92)\n    tag_93:\n      dup3\n      add\n      swap2\n      swap1\n      0x00\n      mstore\n      keccak256(0x00, 0x20)\n      swap1\n    tag_94:\n      dup2\n      sload\n      dup2\n      mstore\n      swap1\n      0x01\n      add\n      swap1\n      0x20\n      add\n      dup1\n      dup4\n      gt\n      tag_94\n      jumpi\n      dup3\n      swap1\n      sub\n      0x1f\n      and\n      dup3\n      add\n      swap2\n    tag_92:\n      pop\n      pop\n      pop\n      pop\n      pop\n      swap1\n      pop\n        /* \"ERC20_flat.sol\":9150:9252  function symbol() public view virtual override returns (string memory) {... */\n      swap1\n      jump\t// out\n        /* \"ERC20_flat.sol\":13379:13808  function decreaseAllowance(address spender, uint256 subtractedValue) public virtual returns (bool) {... */\n    tag_52:\n        /* \"ERC20_flat.sol\":13472:13476  bool */\n      0x00\n        /* \"ERC20_flat.sol\":13488:13501  address owner */\n      dup1\n        /* \"ERC20_flat.sol\":13504:13516  _msgSender() */\n      tag_96\n        /* \"ERC20_flat.sol\":13504:13514  _msgSender */\n      tag_72\n        /* \"ERC20_flat.sol\":13504:13516  _msgSender() */\n      jump\t// in\n    tag_96:\n        /* \"ERC20_flat.sol\":13488:13516  address owner = _msgSender() */\n      swap1\n      pop\n        /* \"ERC20_flat.sol\":13526:13550  uint256 currentAllowance */\n      0x00\n        /* \"ERC20_flat.sol\":13553:13564  _allowances */\n      0x01\n        /* \"ERC20_flat.sol\":13553:13571  _allowances[owner] */\n      0x00\n        /* \"ERC20_flat.sol\":13565:13570  owner */\n      dup4\n        /* \"ERC20_flat.sol\":13553:13571  _allowances[owner] */\n      0xffffffffffffffffffffffffffffffffffffffff\n      and\n      0xffffffffffffffffffffffffffffffffffffffff\n      and\n      dup2\n      mstore\n      0x20\n      add\n      swap1\n      dup2\n      mstore\n      0x20\n      add\n      0x00\n      keccak256\n        /* \"ERC20_flat.sol\":13553:13580  _allowances[owner][spender] */\n      0x00\n        /* \"ERC20_flat.sol\":13572:13579  spender */\n      dup7\n        /* \"ERC20_flat.sol\":13553:13580  _allowances[owner][spender] */\n      0xffffffffffffffffffffffffffffffffffffffff\n      and\n      0xffffffffffffffffffffffffffffffffffffffff\n      and\n      dup2\n      mstore\n      0x20\n      add\n      swap1\n      dup2\n      mstore\n      0x20\n      add\n      0x00\n      keccak256\n      sload\n        /* \"ERC20_flat.sol\":13526:13580  uint256 currentAllowance = _allowances[owner][spender] */\n      swap1\n      pop\n        /* \"ERC20_flat.sol\":13618:13633  subtractedValue */\n      dup4\n        /* \"ERC20_flat.sol\":13598:13614  currentAllowance */\n      dup2\n        /* \"ERC20_flat.sol\":13598:13633  currentAllowance >= subtractedValue */\n      lt\n      iszero\n        /* \"ERC20_flat.sol\":13590:13675  require(currentAllowance >= subtractedValue, \"ERC20: decreased allowance below zero\") */\n      tag_97\n      jumpi\n      mload(0x40)\n      0x08c379a000000000000000000000000000000000000000000000000000000000\n      dup2\n      mstore\n      0x04\n      add\n      tag_98\n      swap1\n      tag_99\n      jump\t// in\n    tag_98:\n      mload(0x40)\n      dup1\n      swap2\n      sub\n      swap1\n      revert\n    tag_97:\n        /* \"ERC20_flat.sol\":13709:13769  _approve(owner, spender, currentAllowance - subtractedValue) */\n      tag_100\n        /* \"ERC20_flat.sol\":13718:13723  owner */\n      dup3\n        /* \"ERC20_flat.sol\":13725:13732  spender */\n      dup7\n        /* \"ERC20_flat.sol\":13753:13768  subtractedValue */\n      dup7\n        /* \"ERC20_flat.sol\":13734:13750  currentAllowance */\n      dup5\n        /* \"ERC20_flat.sol\":13734:13768  currentAllowance - subtractedValue */\n      sub\n        /* \"ERC20_flat.sol\":13709:13717  _approve */\n      tag_74\n        /* \"ERC20_flat.sol\":13709:13769  _approve(owner, spender, currentAllowance - subtractedValue) */\n      jump\t// in\n    tag_100:\n        /* \"ERC20_flat.sol\":13797:13801  true */\n      0x01\n        /* \"ERC20_flat.sol\":13790:13801  return true */\n      swap3\n      pop\n      pop\n      pop\n        /* \"ERC20_flat.sol\":13379:13808  function decreaseAllowance(address spender, uint256 subtractedValue) public virtual returns (bool) {... */\n      swap3\n      swap2\n      pop\n      pop\n      jump\t// out\n        /* \"ERC20_flat.sol\":10512:10701  function transfer(address to, uint256 amount) public virtual override returns (bool) {... */\n    tag_56:\n        /* \"ERC20_flat.sol\":10591:10595  bool */\n      0x00\n        /* \"ERC20_flat.sol\":10607:10620  address owner */\n      dup1\n        /* \"ERC20_flat.sol\":10623:10635  _msgSender() */\n      tag_102\n        /* \"ERC20_flat.sol\":10623:10633  _msgSender */\n      tag_72\n        /* \"ERC20_flat.sol\":10623:10635  _msgSender() */\n      jump\t// in\n    tag_102:\n        /* \"ERC20_flat.sol\":10607:10635  address owner = _msgSender() */\n      swap1\n      pop\n        /* \"ERC20_flat.sol\":10645:10673  _transfer(owner, to, amount) */\n      tag_103\n        /* \"ERC20_flat.sol\":10655:10660  owner */\n      dup2\n        /* \"ERC20_flat.sol\":10662:10664  to */\n      dup6\n        /* \"ERC20_flat.sol\":10666:10672  amount */\n      dup6\n        /* \"ERC20_flat.sol\":10645:10654  _transfer */\n      tag_81\n        /* \"ERC20_flat.sol\":10645:10673  _transfer(owner, to, amount) */\n      jump\t// in\n    tag_103:\n        /* \"ERC20_flat.sol\":10690:10694  true */\n      0x01\n        /* \"ERC20_flat.sol\":10683:10694  return true */\n      swap2\n      pop\n      pop\n        /* \"ERC20_flat.sol\":10512:10701  function transfer(address to, uint256 amount) public virtual override returns (bool) {... */\n      swap3\n      swap2\n      pop\n      pop\n      jump\t// out\n        /* \"ERC20_flat.sol\":10759:10908  function allowance(address owner, address spender) public view virtual override returns (uint256) {... */\n    tag_61:\n        /* \"ERC20_flat.sol\":10848:10855  uint256 */\n      0x00\n        /* \"ERC20_flat.sol\":10874:10885  _allowances */\n      0x01\n        /* \"ERC20_flat.sol\":10874:10892  _allowances[owner] */\n      0x00\n        /* \"ERC20_flat.sol\":10886:10891  owner */\n      dup5\n        /* \"ERC20_flat.sol\":10874:10892  _allowances[owner] */\n      0xffffffffffffffffffffffffffffffffffffffff\n      and\n      0xffffffffffffffffffffffffffffffffffffffff\n      and\n      dup2\n      mstore\n      0x20\n      add\n      swap1\n      dup2\n      mstore\n      0x20\n      add\n      0x00\n      keccak256\n        /* \"ERC20_flat.sol\":10874:10901  _allowances[owner][spender] */\n      0x00\n        /* \"ERC20_flat.sol\":10893:10900  spender */\n      dup4\n        /* \"ERC20_flat.sol\":10874:10901  _allowances[owner][spender] */\n      0xffffffffffffffffffffffffffffffffffffffff\n      and\n      0xffffffffffffffffffffffffffffffffffffffff\n      and\n      dup2\n      mstore\n      0x20\n      add\n      swap1\n      dup2\n      mstore\n      0x20\n      add\n      0x00\n      keccak256\n      sload\n        /* \"ERC20_flat.sol\":10867:10901  return _allowances[owner][spender] */\n      swap1\n      pop\n        /* \"ERC20_flat.sol\":10759:10908  function allowance(address owner, address spender) public view virtual override returns (uint256) {... */\n      swap3\n      swap2\n      pop\n      pop\n      jump\t// out\n        /* \"ERC20_flat.sol\":699:795  function _msgSender() internal view virtual returns (address) {... */\n    tag_72:\n        /* \"ERC20_flat.sol\":752:759  address */\n      0x00\n        /* \"ERC20_flat.sol\":778:788  msg.sender */\n      caller\n        /* \"ERC20_flat.sol\":771:788  return msg.sender */\n      swap1\n      pop\n        /* \"ERC20_flat.sol\":699:795  function _msgSender() internal view virtual returns (address) {... */\n      swap1\n      jump\t// out\n        /* \"ERC20_flat.sol\":16906:17276  function _approve(... */\n    tag_74:\n        /* \"ERC20_flat.sol\":17054:17055  0 */\n      0x00\n        /* \"ERC20_flat.sol\":17037:17056  owner != address(0) */\n      0xffffffffffffffffffffffffffffffffffffffff\n      and\n        /* \"ERC20_flat.sol\":17037:17042  owner */\n      dup4\n        /* \"ERC20_flat.sol\":17037:17056  owner != address(0) */\n      0xffffffffffffffffffffffffffffffffffffffff\n      and\n      eq\n      iszero\n        /* \"ERC20_flat.sol\":17029:17097  require(owner != address(0), \"ERC20: approve from the zero address\") */\n      tag_107\n      jumpi\n      mload(0x40)\n      0x08c379a000000000000000000000000000000000000000000000000000000000\n      dup2\n      mstore\n      0x04\n      add\n      tag_108\n      swap1\n      tag_109\n      jump\t// in\n    tag_108:\n      mload(0x40)\n      dup1\n      swap2\n      sub\n      swap1\n      revert\n    tag_107:\n        /* \"ERC20_flat.sol\":17134:17135  0 */\n      0x00\n        /* \"ERC20_flat.sol\":17115:17136  spender != address(0) */\n      0xffffffffffffffffffffffffffffffffffffffff\n      and\n        /* \"ERC20_flat.sol\":17115:17122  spender */\n      dup3\n        /* \"ERC20_flat.sol\":17115:17136  spender != address(0) */\n      0xffffffffffffffffffffffffffffffffffffffff\n      and\n      eq\n      iszero\n        /* \"ERC20_flat.sol\":17107:17175  require(spender != address(0), \"ERC20: approve to the zero address\") */\n      tag_110\n      jumpi\n      mload(0x40)\n      0x08c379a000000000000000000000000000000000000000000000000000000000\n      dup2\n      mstore\n      0x04\n      add\n      tag_111\n      swap1\n      tag_112\n      jump\t// in\n    tag_111:\n      mload(0x40)\n      dup1\n      swap2\n      sub\n      swap1\n      revert\n    tag_110:\n        /* \"ERC20_flat.sol\":17216:17222  amount */\n      dup1\n        /* \"ERC20_flat.sol\":17186:17197  _allowances */\n      0x01\n        /* \"ERC20_flat.sol\":17186:17204  _allowances[owner] */\n      0x00\n        /* \"ERC20_flat.sol\":17198:17203  owner */\n      dup6\n        /* \"ERC20_flat.sol\":17186:17204  _allowances[owner] */\n      0xffffffffffffffffffffffffffffffffffffffff\n      and\n      0xffffffffffffffffffffffffffffffffffffffff\n      and\n      dup2\n      mstore\n      0x20\n      add\n      swap1\n      dup2\n      mstore\n      0x20\n      add\n      0x00\n      keccak256\n        /* \"ERC20_flat.sol\":17186:17213  _allowances[owner][spender] */\n      0x00\n        /* \"ERC20_flat.sol\":17205:17212  spender */\n      dup5\n        /* \"ERC20_flat.sol\":17186:17213  _allowances[owner][spender] */\n      0xffffffffffffffffffffffffffffffffffffffff\n      and\n      0xffffffffffffffffffffffffffffffffffffffff\n      and\n      dup2\n      mstore\n      0x20\n      add\n      swap1\n      dup2\n      mstore\n      0x20\n      add\n      0x00\n      keccak256\n        /* \"ERC20_flat.sol\":17186:17222  _allowances[owner][spender] = amount */\n      dup2\n      swap1\n      sstore\n      pop\n        /* \"ERC20_flat.sol\":17253:17260  spender */\n      dup2\n        /* \"ERC20_flat.sol\":17237:17269  Approval(owner, spender, amount) */\n      0xffffffffffffffffffffffffffffffffffffffff\n      and\n        /* \"ERC20_flat.sol\":17246:17251  owner */\n      dup4\n        /* \"ERC20_flat.sol\":17237:17269  Approval(owner, spender, amount) */\n      0xffffffffffffffffffffffffffffffffffffffff\n      and\n      0x8c5be1e5ebec7d5bd14f71427d1e84f3dd0314c0f7b2291e5b200ac8c7c3b925\n        /* \"ERC20_flat.sol\":17262:17268  amount */\n      dup4\n        /* \"ERC20_flat.sol\":17237:17269  Approval(owner, spender, amount) */\n      mload(0x40)\n      tag_113\n      swap2\n      swap1\n      tag_28\n      jump\t// in\n    tag_113:\n      mload(0x40)\n      dup1\n      swap2\n      sub\n      swap1\n      log3\n        /* \"ERC20_flat.sol\":16906:17276  function _approve(... */\n      pop\n      pop\n      pop\n      jump\t// out\n        /* \"ERC20_flat.sol\":17553:17994  function _spendAllowance(... */\n    tag_79:\n        /* \"ERC20_flat.sol\":17683:17707  uint256 currentAllowance */\n      0x00\n        /* \"ERC20_flat.sol\":17710:17735  allowance(owner, spender) */\n      tag_115\n        /* \"ERC20_flat.sol\":17720:17725  owner */\n      dup5\n        /* \"ERC20_flat.sol\":17727:17734  spender */\n      dup5\n        /* \"ERC20_flat.sol\":17710:17719  allowance */\n      tag_61\n        /* \"ERC20_flat.sol\":17710:17735  allowance(owner, spender) */\n      jump\t// in\n    tag_115:\n        /* \"ERC20_flat.sol\":17683:17735  uint256 currentAllowance = allowance(owner, spender) */\n      swap1\n      pop\n        /* \"ERC20_flat.sol\":17769:17786  type(uint256).max */\n      0xffffffffffffffffffffffffffffffffffffffffffffffffffffffffffffffff\n        /* \"ERC20_flat.sol\":17749:17765  currentAllowance */\n      dup2\n        /* \"ERC20_flat.sol\":17749:17786  currentAllowance != type(uint256).max */\n      eq\n        /* \"ERC20_flat.sol\":17745:17988  if (currentAllowance != type(uint256).max) {... */\n      tag_116\n      jumpi\n        /* \"ERC20_flat.sol\":17830:17836  amount */\n      dup2\n        /* \"ERC20_flat.sol\":17810:17826  currentAllowance */\n      dup2\n        /* \"ERC20_flat.sol\":17810:17836  currentAllowance >= amount */\n      lt\n      iszero\n        /* \"ERC20_flat.sol\":17802:17870  require(currentAllowance >= amount, \"ERC20: insufficient allowance\") */\n      tag_117\n      jumpi\n      mload(0x40)\n      0x08c379a000000000000000000000000000000000000000000000000000000000\n      dup2\n      mstore\n      0x04\n      add\n      tag_118\n      swap1\n      tag_119\n      jump\t// in\n    tag_118:\n      mload(0x40)\n      dup1\n      swap2\n      sub\n      swap1\n      revert\n    tag_117:\n        /* \"ERC20_flat.sol\":17912:17963  _approve(owner, spender, currentAllowance - amount) */\n      tag_120\n        /* \"ERC20_flat.sol\":17921:17926  owner */\n      dup5\n        /* \"ERC20_flat.sol\":17928:17935  spender */\n      dup5\n        /* \"ERC20_flat.sol\":17956:17962  amount */\n      dup5\n        /* \"ERC20_flat.sol\":17937:17953  currentAllowance */\n      dup5\n        /* \"ERC20_flat.sol\":17937:17962  currentAllowance - amount */\n      sub\n        /* \"ERC20_flat.sol\":17912:17920  _approve */\n      tag_74\n        /* \"ERC20_flat.sol\":17912:17963  _approve(owner, spender, currentAllowance - amount) */\n      jump\t// in\n    tag_120:\n        /* \"ERC20_flat.sol\":17745:17988  if (currentAllowance != type(uint256).max) {... */\n    tag_116:\n        /* \"ERC20_flat.sol\":17673:17994  {... */\n      pop\n        /* \"ERC20_flat.sol\":17553:17994  function _spendAllowance(... */\n      pop\n      pop\n      pop\n      jump\t// out\n        /* \"ERC20_flat.sol\":14271:14922  function _transfer(... */\n    tag_81:\n        /* \"ERC20_flat.sol\":14413:14414  0 */\n      0x00\n        /* \"ERC20_flat.sol\":14397:14415  from != address(0) */\n      0xffffffffffffffffffffffffffffffffffffffff\n      and\n        /* \"ERC20_flat.sol\":14397:14401  from */\n      dup4\n        /* \"ERC20_flat.sol\":14397:14415  from != address(0) */\n      0xffffffffffffffffffffffffffffffffffffffff\n      and\n      eq\n      iszero\n        /* \"ERC20_flat.sol\":14389:14457  require(from != address(0), \"ERC20: transfer from the zero address\") */\n      tag_122\n      jumpi\n      mload(0x40)\n      0x08c379a000000000000000000000000000000000000000000000000000000000\n      dup2\n      mstore\n      0x04\n      add\n      tag_123\n      swap1\n      tag_124\n      jump\t// in\n    tag_123:\n      mload(0x40)\n      dup1\n      swap2\n      sub\n      swap1\n      revert\n    tag_122:\n        /* \"ERC20_flat.sol\":14489:14490  0 */\n      0x00\n        /* \"ERC20_flat.sol\":14475:14491  to != address(0) */\n      0xffffffffffffffffffffffffffffffffffffffff\n      and\n        /* \"ERC20_flat.sol\":14475:14477  to */\n      dup3\n        /* \"ERC20_flat.sol\":14475:14491  to != address(0) */\n      0xffffffffffffffffffffffffffffffffffffffff\n      and\n      eq\n      iszero\n        /* \"ERC20_flat.sol\":14467:14531  require(to != address(0), \"ERC20: transfer to the zero address\") */\n      tag_125\n      jumpi\n      mload(0x40)\n      0x08c379a000000000000000000000000000000000000000000000000000000000\n      dup2\n      mstore\n      0x04\n      add\n      tag_126\n      swap1\n      tag_127\n      jump\t// in\n    tag_126:\n      mload(0x40)\n      dup1\n      swap2\n      sub\n      swap1\n      revert\n    tag_125:\n        /* \"ERC20_flat.sol\":14542:14580  _beforeTokenTransfer(from, to, amount) */\n      tag_128\n        /* \"ERC20_flat.sol\":14563:14567  from */\n      dup4\n        /* \"ERC20_flat.sol\":14569:14571  to */\n      dup4\n        /* \"ERC20_flat.sol\":14573:14579  amount */\n      dup4\n        /* \"ERC20_flat.sol\":14542:14562  _beforeTokenTransfer */\n      tag_129\n        /* \"ERC20_flat.sol\":14542:14580  _beforeTokenTransfer(from, to, amount) */\n      jump\t// in\n    tag_128:\n        /* \"ERC20_flat.sol\":14591:14610  uint256 fromBalance */\n      0x00\n        /* \"ERC20_flat.sol\":14613:14622  _balances */\n      dup1\n        /* \"ERC20_flat.sol\":14613:14628  _balances[from] */\n      0x00\n        /* \"ERC20_flat.sol\":14623:14627  from */\n      dup6\n        /* \"ERC20_flat.sol\":14613:14628  _balances[from] */\n      0xffffffffffffffffffffffffffffffffffffffff\n      and\n      0xffffffffffffffffffffffffffffffffffffffff\n      and\n      dup2\n      mstore\n      0x20\n      add\n      swap1\n      dup2\n      mstore\n      0x20\n      add\n      0x00\n      keccak256\n      sload\n        /* \"ERC20_flat.sol\":14591:14628  uint256 fromBalance = _balances[from] */\n      swap1\n      pop\n        /* \"ERC20_flat.sol\":14661:14667  amount */\n      dup2\n        /* \"ERC20_flat.sol\":14646:14657  fromBalance */\n      dup2\n        /* \"ERC20_flat.sol\":14646:14667  fromBalance >= amount */\n      lt\n      iszero\n        /* \"ERC20_flat.sol\":14638:14710  require(fromBalance >= amount, \"ERC20: transfer amount exceeds balance\") */\n      tag_130\n      jumpi\n      mload(0x40)\n      0x08c379a000000000000000000000000000000000000000000000000000000000\n      dup2\n      mstore\n      0x04\n      add\n      tag_131\n      swap1\n      tag_132\n      jump\t// in\n    tag_131:\n      mload(0x40)\n      dup1\n      swap2\n      sub\n      swap1\n      revert\n    tag_130:\n        /* \"ERC20_flat.sol\":14776:14782  amount */\n      dup2\n        /* \"ERC20_flat.sol\":14762:14773  fromBalance */\n      dup2\n        /* \"ERC20_flat.sol\":14762:14782  fromBalance - amount */\n      sub\n        /* \"ERC20_flat.sol\":14744:14753  _balances */\n      0x00\n        /* \"ERC20_flat.sol\":14744:14759  _balances[from] */\n      dup1\n        /* \"ERC20_flat.sol\":14754:14758  from */\n      dup7\n        /* \"ERC20_flat.sol\":14744:14759  _balances[from] */\n      0xffffffffffffffffffffffffffffffffffffffff\n      and\n      0xffffffffffffffffffffffffffffffffffffffff\n      and\n      dup2\n      mstore\n      0x20\n      add\n      swap1\n      dup2\n      mstore\n      0x20\n      add\n      0x00\n      keccak256\n        /* \"ERC20_flat.sol\":14744:14782  _balances[from] = fromBalance - amount */\n      dup2\n      swap1\n      sstore\n      pop\n        /* \"ERC20_flat.sol\":14819:14825  amount */\n      dup2\n        /* \"ERC20_flat.sol\":14802:14811  _balances */\n      0x00\n        /* \"ERC20_flat.sol\":14802:14815  _balances[to] */\n      dup1\n        /* \"ERC20_flat.sol\":14812:14814  to */\n      dup6\n        /* \"ERC20_flat.sol\":14802:14815  _balances[to] */\n      0xffffffffffffffffffffffffffffffffffffffff\n      and\n      0xffffffffffffffffffffffffffffffffffffffff\n      and\n      dup2\n      mstore\n      0x20\n      add\n      swap1\n      dup2\n      mstore\n      0x20\n      add\n      0x00\n      keccak256\n      0x00\n        /* \"ERC20_flat.sol\":14802:14825  _balances[to] += amount */\n      dup3\n      dup3\n      sload\n      tag_133\n      swap2\n      swap1\n      tag_87\n      jump\t// in\n    tag_133:\n      swap3\n      pop\n      pop\n      dup2\n      swap1\n      sstore\n      pop\n        /* \"ERC20_flat.sol\":14856:14858  to */\n      dup3\n        /* \"ERC20_flat.sol\":14841:14867  Transfer(from, to, amount) */\n      0xffffffffffffffffffffffffffffffffffffffff\n      and\n        /* \"ERC20_flat.sol\":14850:14854  from */\n      dup5\n        /* \"ERC20_flat.sol\":14841:14867  Transfer(from, to, amount) */\n      0xffffffffffffffffffffffffffffffffffffffff\n      and\n      0xddf252ad1be2c89b69c2b068fc378daa952ba7f163c4a11628f55a4df523b3ef\n        /* \"ERC20_flat.sol\":14860:14866  amount */\n      dup5\n        /* \"ERC20_flat.sol\":14841:14867  Transfer(from, to, amount) */\n      mload(0x40)\n      tag_134\n      swap2\n      swap1\n      tag_28\n      jump\t// in\n    tag_134:\n      mload(0x40)\n      dup1\n      swap2\n      sub\n      swap1\n      log3\n        /* \"ERC20_flat.sol\":14878:14915  _afterTokenTransfer(from, to, amount) */\n      tag_135\n        /* \"ERC20_flat.sol\":14898:14902  from */\n      dup5\n        /* \"ERC20_flat.sol\":14904:14906  to */\n      dup5\n        /* \"ERC20_flat.sol\":14908:14914  amount */\n      dup5\n        /* \"ERC20_flat.sol\":14878:14897  _afterTokenTransfer */\n      tag_136\n        /* \"ERC20_flat.sol\":14878:14915  _afterTokenTransfer(from, to, amount) */\n      jump\t// in\n    tag_135:\n        /* \"ERC20_flat.sol\":14379:14922  {... */\n      pop\n        /* \"ERC20_flat.sol\":14271:14922  function _transfer(... */\n      pop\n      pop\n      pop\n      jump\t// out\n        /* \"ERC20_flat.sol\":18578:18699  function _beforeTokenTransfer(... */\n    tag_129:\n      pop\n      pop\n      pop\n      jump\t// out\n        /* \"ERC20_flat.sol\":19287:19407  function _afterTokenTransfer(... */\n    tag_136:\n      pop\n      pop\n      pop\n      jump\t// out\n        /* \"#utility.yul\":7:146   */\n    tag_140:\n        /* \"#utility.yul\":53:58   */\n      0x00\n        /* \"#utility.yul\":91:97   */\n      dup2\n        /* \"#utility.yul\":78:98   */\n      calldataload\n        /* \"#utility.yul\":69:98   */\n      swap1\n      pop\n        /* \"#utility.yul\":107:140   */\n      tag_142\n        /* \"#utility.yul\":134:139   */\n      dup2\n        /* \"#utility.yul\":107:140   */\n      tag_143\n      jump\t// in\n    tag_142:\n        /* \"#utility.yul\":7:146   */\n      swap3\n      swap2\n      pop\n      pop\n      jump\t// out\n        /* \"#utility.yul\":152:291   */\n    tag_144:\n        /* \"#utility.yul\":198:203   */\n      0x00\n        /* \"#utility.yul\":236:242   */\n      dup2\n        /* \"#utility.yul\":223:243   */\n      calldataload\n        /* \"#utility.yul\":214:243   */\n      swap1\n      pop\n        /* \"#utility.yul\":252:285   */\n      tag_146\n        /* \"#utility.yul\":279:284   */\n      dup2\n        /* \"#utility.yul\":252:285   */\n      tag_147\n      jump\t// in\n    tag_146:\n        /* \"#utility.yul\":152:291   */\n      swap3\n      swap2\n      pop\n      pop\n      jump\t// out\n        /* \"#utility.yul\":297:626   */\n    tag_44:\n        /* \"#utility.yul\":356:362   */\n      0x00\n        /* \"#utility.yul\":405:407   */\n      0x20\n        /* \"#utility.yul\":393:402   */\n      dup3\n        /* \"#utility.yul\":384:391   */\n      dup5\n        /* \"#utility.yul\":380:403   */\n      sub\n        /* \"#utility.yul\":376:408   */\n      slt\n        /* \"#utility.yul\":373:492   */\n      iszero\n      tag_149\n      jumpi\n        /* \"#utility.yul\":411:490   */\n      tag_150\n      tag_151\n      jump\t// in\n    tag_150:\n        /* \"#utility.yul\":373:492   */\n    tag_149:\n        /* \"#utility.yul\":531:532   */\n      0x00\n        /* \"#utility.yul\":556:609   */\n      tag_152\n        /* \"#utility.yul\":601:608   */\n      dup5\n        /* \"#utility.yul\":592:598   */\n      dup3\n        /* \"#utility.yul\":581:590   */\n      dup6\n        /* \"#utility.yul\":577:599   */\n      add\n        /* \"#utility.yul\":556:609   */\n      tag_140\n      jump\t// in\n    tag_152:\n        /* \"#utility.yul\":546:609   */\n      swap2\n      pop\n        /* \"#utility.yul\":502:619   */\n      pop\n        /* \"#utility.yul\":297:626   */\n      swap3\n      swap2\n      pop\n      pop\n      jump\t// out\n        /* \"#utility.yul\":632:1106   */\n    tag_60:\n        /* \"#utility.yul\":700:706   */\n      0x00\n        /* \"#utility.yul\":708:714   */\n      dup1\n        /* \"#utility.yul\":757:759   */\n      0x40\n        /* \"#utility.yul\":745:754   */\n      dup4\n        /* \"#utility.yul\":736:743   */\n      dup6\n        /* \"#utility.yul\":732:755   */\n      sub\n        /* \"#utility.yul\":728:760   */\n      slt\n        /* \"#utility.yul\":725:844   */\n      iszero\n      tag_154\n      jumpi\n        /* \"#utility.yul\":763:842   */\n      tag_155\n      tag_151\n      jump\t// in\n    tag_155:\n        /* \"#utility.yul\":725:844   */\n    tag_154:\n        /* \"#utility.yul\":883:884   */\n      0x00\n        /* \"#utility.yul\":908:961   */\n      tag_156\n        /* \"#utility.yul\":953:960   */\n      dup6\n        /* \"#utility.yul\":944:950   */\n      dup3\n        /* \"#utility.yul\":933:942   */\n      dup7\n        /* \"#utility.yul\":929:951   */\n      add\n        /* \"#utility.yul\":908:961   */\n      tag_140\n      jump\t// in\n    tag_156:\n        /* \"#utility.yul\":898:961   */\n      swap3\n      pop\n        /* \"#utility.yul\":854:971   */\n      pop\n        /* \"#utility.yul\":1010:1012   */\n      0x20\n        /* \"#utility.yul\":1036:1089   */\n      tag_157\n        /* \"#utility.yul\":1081:1088   */\n      dup6\n        /* \"#utility.yul\":1072:1078   */\n      dup3\n        /* \"#utility.yul\":1061:1070   */\n      dup7\n        /* \"#utility.yul\":1057:1079   */\n      add\n        /* \"#utility.yul\":1036:1089   */\n      tag_140\n      jump\t// in\n    tag_157:\n        /* \"#utility.yul\":1026:1089   */\n      swap2\n      pop\n        /* \"#utility.yul\":981:1099   */\n      pop\n        /* \"#utility.yul\":632:1106   */\n      swap3\n      pop\n      swap3\n      swap1\n      pop\n      jump\t// out\n        /* \"#utility.yul\":1112:1731   */\n    tag_31:\n        /* \"#utility.yul\":1189:1195   */\n      0x00\n        /* \"#utility.yul\":1197:1203   */\n      dup1\n        /* \"#utility.yul\":1205:1211   */\n      0x00\n        /* \"#utility.yul\":1254:1256   */\n      0x60\n        /* \"#utility.yul\":1242:1251   */\n      dup5\n        /* \"#utility.yul\":1233:1240   */\n      dup7\n        /* \"#utility.yul\":1229:1252   */\n      sub\n        /* \"#utility.yul\":1225:1257   */\n      slt\n        /* \"#utility.yul\":1222:1341   */\n      iszero\n      tag_159\n      jumpi\n        /* \"#utility.yul\":1260:1339   */\n      tag_160\n      tag_151\n      jump\t// in\n    tag_160:\n        /* \"#utility.yul\":1222:1341   */\n    tag_159:\n        /* \"#utility.yul\":1380:1381   */\n      0x00\n        /* \"#utility.yul\":1405:1458   */\n      tag_161\n        /* \"#utility.yul\":1450:1457   */\n      dup7\n        /* \"#utility.yul\":1441:1447   */\n      dup3\n        /* \"#utility.yul\":1430:1439   */\n      dup8\n        /* \"#utility.yul\":1426:1448   */\n      add\n        /* \"#utility.yul\":1405:1458   */\n      tag_140\n      jump\t// in\n    tag_161:\n        /* \"#utility.yul\":1395:1458   */\n      swap4\n      pop\n        /* \"#utility.yul\":1351:1468   */\n      pop\n        /* \"#utility.yul\":1507:1509   */\n      0x20\n        /* \"#utility.yul\":1533:1586   */\n      tag_162\n        /* \"#utility.yul\":1578:1585   */\n      dup7\n        /* \"#utility.yul\":1569:1575   */\n      dup3\n        /* \"#utility.yul\":1558:1567   */\n      dup8\n        /* \"#utility.yul\":1554:1576   */\n      add\n        /* \"#utility.yul\":1533:1586   */\n      tag_140\n      jump\t// in\n    tag_162:\n        /* \"#utility.yul\":1523:1586   */\n      swap3\n      pop\n        /* \"#utility.yul\":1478:1596   */\n      pop\n        /* \"#utility.yul\":1635:1637   */\n      0x40\n        /* \"#utility.yul\":1661:1714   */\n      tag_163\n        /* \"#utility.yul\":1706:1713   */\n      dup7\n        /* \"#utility.yul\":1697:1703   */\n      dup3\n        /* \"#utility.yul\":1686:1695   */\n      dup8\n        /* \"#utility.yul\":1682:1704   */\n      add\n        /* \"#utility.yul\":1661:1714   */\n      tag_144\n      jump\t// in\n    tag_163:\n        /* \"#utility.yul\":1651:1714   */\n      swap2\n      pop\n        /* \"#utility.yul\":1606:1724   */\n      pop\n        /* \"#utility.yul\":1112:1731   */\n      swap3\n      pop\n      swap3\n      pop\n      swap3\n      jump\t// out\n        /* \"#utility.yul\":1737:2211   */\n    tag_21:\n        /* \"#utility.yul\":1805:1811   */\n      0x00\n        /* \"#utility.yul\":1813:1819   */\n      dup1\n        /* \"#utility.yul\":1862:1864   */\n      0x40\n        /* \"#utility.yul\":1850:1859   */\n      dup4\n        /* \"#utility.yul\":1841:1848   */\n      dup6\n        /* \"#utility.yul\":1837:1860   */\n      sub\n        /* \"#utility.yul\":1833:1865   */\n      slt\n        /* \"#utility.yul\":1830:1949   */\n      iszero\n      tag_165\n      jumpi\n        /* \"#utility.yul\":1868:1947   */\n      tag_166\n      tag_151\n      jump\t// in\n    tag_166:\n        /* \"#utility.yul\":1830:1949   */\n    tag_165:\n        /* \"#utility.yul\":1988:1989   */\n      0x00\n        /* \"#utility.yul\":2013:2066   */\n      tag_167\n        /* \"#utility.yul\":2058:2065   */\n      dup6\n        /* \"#utility.yul\":2049:2055   */\n      dup3\n        /* \"#utility.yul\":2038:2047   */\n      dup7\n        /* \"#utility.yul\":2034:2056   */\n      add\n        /* \"#utility.yul\":2013:2066   */\n      tag_140\n      jump\t// in\n    tag_167:\n        /* \"#utility.yul\":2003:2066   */\n      swap3\n      pop\n        /* \"#utility.yul\":1959:2076   */\n      pop\n        /* \"#utility.yul\":2115:2117   */\n      0x20\n        /* \"#utility.yul\":2141:2194   */\n      tag_168\n        /* \"#utility.yul\":2186:2193   */\n      dup6\n        /* \"#utility.yul\":2177:2183   */\n      dup3\n        /* \"#utility.yul\":2166:2175   */\n      dup7\n        /* \"#utility.yul\":2162:2184   */\n      add\n        /* \"#utility.yul\":2141:2194   */\n      tag_144\n      jump\t// in\n    tag_168:\n        /* \"#utility.yul\":2131:2194   */\n      swap2\n      pop\n        /* \"#utility.yul\":2086:2204   */\n      pop\n        /* \"#utility.yul\":1737:2211   */\n      swap3\n      pop\n      swap3\n      swap1\n      pop\n      jump\t// out\n        /* \"#utility.yul\":2217:2326   */\n    tag_169:\n        /* \"#utility.yul\":2298:2319   */\n      tag_171\n        /* \"#utility.yul\":2313:2318   */\n      dup2\n        /* \"#utility.yul\":2298:2319   */\n      tag_172\n      jump\t// in\n    tag_171:\n        /* \"#utility.yul\":2293:2296   */\n      dup3\n        /* \"#utility.yul\":2286:2320   */\n      mstore\n        /* \"#utility.yul\":2217:2326   */\n      pop\n      pop\n      jump\t// out\n        /* \"#utility.yul\":2332:2696   */\n    tag_173:\n        /* \"#utility.yul\":2420:2423   */\n      0x00\n        /* \"#utility.yul\":2448:2487   */\n      tag_175\n        /* \"#utility.yul\":2481:2486   */\n      dup3\n        /* \"#utility.yul\":2448:2487   */\n      tag_176\n      jump\t// in\n    tag_175:\n        /* \"#utility.yul\":2503:2574   */\n      tag_177\n        /* \"#utility.yul\":2567:2573   */\n      dup2\n        /* \"#utility.yul\":2562:2565   */\n      dup6\n        /* \"#utility.yul\":2503:2574   */\n      tag_178\n      jump\t// in\n    tag_177:\n        /* \"#utility.yul\":2496:2574   */\n      swap4\n      pop\n        /* \"#utility.yul\":2583:2635   */\n      tag_179\n        /* \"#utility.yul\":2628:2634   */\n      dup2\n        /* \"#utility.yul\":2623:2626   */\n      dup6\n        /* \"#utility.yul\":2616:2620   */\n      0x20\n        /* \"#utility.yul\":2609:2614   */\n      dup7\n        /* \"#utility.yul\":2605:2621   */\n      add\n        /* \"#utility.yul\":2583:2635   */\n      tag_180\n      jump\t// in\n    tag_179:\n        /* \"#utility.yul\":2660:2689   */\n      tag_181\n        /* \"#utility.yul\":2682:2688   */\n      dup2\n        /* \"#utility.yul\":2660:2689   */\n      tag_182\n      jump\t// in\n    tag_181:\n        /* \"#utility.yul\":2655:2658   */\n      dup5\n        /* \"#utility.yul\":2651:2690   */\n      add\n        /* \"#utility.yul\":2644:2690   */\n      swap2\n      pop\n        /* \"#utility.yul\":2424:2696   */\n      pop\n        /* \"#utility.yul\":2332:2696   */\n      swap3\n      swap2\n      pop\n      pop\n      jump\t// out\n        /* \"#utility.yul\":2702:3068   */\n    tag_183:\n        /* \"#utility.yul\":2844:2847   */\n      0x00\n        /* \"#utility.yul\":2865:2932   */\n      tag_185\n        /* \"#utility.yul\":2929:2931   */\n      0x23\n        /* \"#utility.yul\":2924:2927   */\n      dup4\n        /* \"#utility.yul\":2865:2932   */\n      tag_178\n      jump\t// in\n    tag_185:\n        /* \"#utility.yul\":2858:2932   */\n      swap2\n      pop\n        /* \"#utility.yul\":2941:3034   */\n      tag_186\n        /* \"#utility.yul\":3030:3033   */\n      dup3\n        /* \"#utility.yul\":2941:3034   */\n      tag_187\n      jump\t// in\n    tag_186:\n        /* \"#utility.yul\":3059:3061   */\n      0x40\n        /* \"#utility.yul\":3054:3057   */\n      dup3\n        /* \"#utility.yul\":3050:3062   */\n      add\n        /* \"#utility.yul\":3043:3062   */\n      swap1\n      pop\n        /* \"#utility.yul\":2702:3068   */\n      swap2\n      swap1\n      pop\n      jump\t// out\n        /* \"#utility.yul\":3074:3440   */\n    tag_188:\n        /* \"#utility.yul\":3216:3219   */\n      0x00\n        /* \"#utility.yul\":3237:3304   */\n      tag_190\n        /* \"#utility.yul\":3301:3303   */\n      0x22\n        /* \"#utility.yul\":3296:3299   */\n      dup4\n        /* \"#utility.yul\":3237:3304   */\n      tag_178\n      jump\t// in\n    tag_190:\n        /* \"#utility.yul\":3230:3304   */\n      swap2\n      pop\n        /* \"#utility.yul\":3313:3406   */\n      tag_191\n        /* \"#utility.yul\":3402:3405   */\n      dup3\n        /* \"#utility.yul\":3313:3406   */\n      tag_192\n      jump\t// in\n    tag_191:\n        /* \"#utility.yul\":3431:3433   */\n      0x40\n        /* \"#utility.yul\":3426:3429   */\n      dup3\n        /* \"#utility.yul\":3422:3434   */\n      add\n        /* \"#utility.yul\":3415:3434   */\n      swap1\n      pop\n        /* \"#utility.yul\":3074:3440   */\n      swap2\n      swap1\n      pop\n      jump\t// out\n        /* \"#utility.yul\":3446:3812   */\n    tag_193:\n        /* \"#utility.yul\":3588:3591   */\n      0x00\n        /* \"#utility.yul\":3609:3676   */\n      tag_195\n        /* \"#utility.yul\":3673:3675   */\n      0x1d\n        /* \"#utility.yul\":3668:3671   */\n      dup4\n        /* \"#utility.yul\":3609:3676   */\n      tag_178\n      jump\t// in\n    tag_195:\n        /* \"#utility.yul\":3602:3676   */\n      swap2\n      pop\n        /* \"#utility.yul\":3685:3778   */\n      tag_196\n        /* \"#utility.yul\":3774:3777   */\n      dup3\n        /* \"#utility.yul\":3685:3778   */\n      tag_197\n      jump\t// in\n    tag_196:\n        /* \"#utility.yul\":3803:3805   */\n      0x20\n        /* \"#utility.yul\":3798:3801   */\n      dup3\n        /* \"#utility.yul\":3794:3806   */\n      add\n        /* \"#utility.yul\":3787:3806   */\n      swap1\n      pop\n        /* \"#utility.yul\":3446:3812   */\n      swap2\n      swap1\n      pop\n      jump\t// out\n        /* \"#utility.yul\":3818:4184   */\n    tag_198:\n        /* \"#utility.yul\":3960:3963   */\n      0x00\n        /* \"#utility.yul\":3981:4048   */\n      tag_200\n        /* \"#utility.yul\":4045:4047   */\n      0x26\n        /* \"#utility.yul\":4040:4043   */\n      dup4\n        /* \"#utility.yul\":3981:4048   */\n      tag_178\n      jump\t// in\n    tag_200:\n        /* \"#utility.yul\":3974:4048   */\n      swap2\n      pop\n        /* \"#utility.yul\":4057:4150   */\n      tag_201\n        /* \"#utility.yul\":4146:4149   */\n      dup3\n        /* \"#utility.yul\":4057:4150   */\n      tag_202\n      jump\t// in\n    tag_201:\n        /* \"#utility.yul\":4175:4177   */\n      0x40\n        /* \"#utility.yul\":4170:4173   */\n      dup3\n        /* \"#utility.yul\":4166:4178   */\n      add\n        /* \"#utility.yul\":4159:4178   */\n      swap1\n      pop\n        /* \"#utility.yul\":3818:4184   */\n      swap2\n      swap1\n      pop\n      jump\t// out\n        /* \"#utility.yul\":4190:4556   */\n    tag_203:\n        /* \"#utility.yul\":4332:4335   */\n      0x00\n        /* \"#utility.yul\":4353:4420   */\n      tag_205\n        /* \"#utility.yul\":4417:4419   */\n      0x25\n        /* \"#utility.yul\":4412:4415   */\n      dup4\n        /* \"#utility.yul\":4353:4420   */\n      tag_178\n      jump\t// in\n    tag_205:\n        /* \"#utility.yul\":4346:4420   */\n      swap2\n      pop\n        /* \"#utility.yul\":4429:4522   */\n      tag_206\n        /* \"#utility.yul\":4518:4521   */\n      dup3\n        /* \"#utility.yul\":4429:4522   */\n      tag_207\n      jump\t// in\n    tag_206:\n        /* \"#utility.yul\":4547:4549   */\n      0x40\n        /* \"#utility.yul\":4542:4545   */\n      dup3\n        /* \"#utility.yul\":4538:4550   */\n      add\n        /* \"#utility.yul\":4531:4550   */\n      swap1\n      pop\n        /* \"#utility.yul\":4190:4556   */\n      swap2\n      swap1\n      pop\n      jump\t// out\n        /* \"#utility.yul\":4562:4928   */\n    tag_208:\n        /* \"#utility.yul\":4704:4707   */\n      0x00\n        /* \"#utility.yul\":4725:4792   */\n      tag_210\n        /* \"#utility.yul\":4789:4791   */\n      0x24\n        /* \"#utility.yul\":4784:4787   */\n      dup4\n        /* \"#utility.yul\":4725:4792   */\n      tag_178\n      jump\t// in\n    tag_210:\n        /* \"#utility.yul\":4718:4792   */\n      swap2\n      pop\n        /* \"#utility.yul\":4801:4894   */\n      tag_211\n        /* \"#utility.yul\":4890:4893   */\n      dup3\n        /* \"#utility.yul\":4801:4894   */\n      tag_212\n      jump\t// in\n    tag_211:\n        /* \"#utility.yul\":4919:4921   */\n      0x40\n        /* \"#utility.yul\":4914:4917   */\n      dup3\n        /* \"#utility.yul\":4910:4922   */\n      add\n        /* \"#utility.yul\":4903:4922   */\n      swap1\n      pop\n        /* \"#utility.yul\":4562:4928   */\n      swap2\n      swap1\n      pop\n      jump\t// out\n        /* \"#utility.yul\":4934:5300   */\n    tag_213:\n        /* \"#utility.yul\":5076:5079   */\n      0x00\n        /* \"#utility.yul\":5097:5164   */\n      tag_215\n        /* \"#utility.yul\":5161:5163   */\n      0x25\n        /* \"#utility.yul\":5156:5159   */\n      dup4\n        /* \"#utility.yul\":5097:5164   */\n      tag_178\n      jump\t// in\n    tag_215:\n        /* \"#utility.yul\":5090:5164   */\n      swap2\n      pop\n        /* \"#utility.yul\":5173:5266   */\n      tag_216\n        /* \"#utility.yul\":5262:5265   */\n      dup3\n        /* \"#utility.yul\":5173:5266   */\n      tag_217\n      jump\t// in\n    tag_216:\n        /* \"#utility.yul\":5291:5293   */\n      0x40\n        /* \"#utility.yul\":5286:5289   */\n      dup3\n        /* \"#utility.yul\":5282:5294   */\n      add\n        /* \"#utility.yul\":5275:5294   */\n      swap1\n      pop\n        /* \"#utility.yul\":4934:5300   */\n      swap2\n      swap1\n      pop\n      jump\t// out\n        /* \"#utility.yul\":5306:5424   */\n    tag_218:\n        /* \"#utility.yul\":5393:5417   */\n      tag_220\n        /* \"#utility.yul\":5411:5416   */\n      dup2\n        /* \"#utility.yul\":5393:5417   */\n      tag_221\n      jump\t// in\n    tag_220:\n        /* \"#utility.yul\":5388:5391   */\n      dup3\n        /* \"#utility.yul\":5381:5418   */\n      mstore\n        /* \"#utility.yul\":5306:5424   */\n      pop\n      pop\n      jump\t// out\n        /* \"#utility.yul\":5430:5542   */\n    tag_222:\n        /* \"#utility.yul\":5513:5535   */\n      tag_224\n        /* \"#utility.yul\":5529:5534   */\n      dup2\n        /* \"#utility.yul\":5513:5535   */\n      tag_225\n      jump\t// in\n    tag_224:\n        /* \"#utility.yul\":5508:5511   */\n      dup3\n        /* \"#utility.yul\":5501:5536   */\n      mstore\n        /* \"#utility.yul\":5430:5542   */\n      pop\n      pop\n      jump\t// out\n        /* \"#utility.yul\":5548:5758   */\n    tag_24:\n        /* \"#utility.yul\":5635:5639   */\n      0x00\n        /* \"#utility.yul\":5673:5675   */\n      0x20\n        /* \"#utility.yul\":5662:5671   */\n      dup3\n        /* \"#utility.yul\":5658:5676   */\n      add\n        /* \"#utility.yul\":5650:5676   */\n      swap1\n      pop\n        /* \"#utility.yul\":5686:5751   */\n      tag_227\n        /* \"#utility.yul\":5748:5749   */\n      0x00\n        /* \"#utility.yul\":5737:5746   */\n      dup4\n        /* \"#utility.yul\":5733:5750   */\n      add\n        /* \"#utility.yul\":5724:5730   */\n      dup5\n        /* \"#utility.yul\":5686:5751   */\n      tag_169\n      jump\t// in\n    tag_227:\n        /* \"#utility.yul\":5548:5758   */\n      swap3\n      swap2\n      pop\n      pop\n      jump\t// out\n        /* \"#utility.yul\":5764:6077   */\n    tag_18:\n        /* \"#utility.yul\":5877:5881   */\n      0x00\n        /* \"#utility.yul\":5915:5917   */\n      0x20\n        /* \"#utility.yul\":5904:5913   */\n      dup3\n        /* \"#utility.yul\":5900:5918   */\n      add\n        /* \"#utility.yul\":5892:5918   */\n      swap1\n      pop\n        /* \"#utility.yul\":5964:5973   */\n      dup2\n        /* \"#utility.yul\":5958:5962   */\n      dup2\n        /* \"#utility.yul\":5954:5974   */\n      sub\n        /* \"#utility.yul\":5950:5951   */\n      0x00\n        /* \"#utility.yul\":5939:5948   */\n      dup4\n        /* \"#utility.yul\":5935:5952   */\n      add\n        /* \"#utility.yul\":5928:5975   */\n      mstore\n        /* \"#utility.yul\":5992:6070   */\n      tag_229\n        /* \"#utility.yul\":6065:6069   */\n      dup2\n        /* \"#utility.yul\":6056:6062   */\n      dup5\n        /* \"#utility.yul\":5992:6070   */\n      tag_173\n      jump\t// in\n    tag_229:\n        /* \"#utility.yul\":5984:6070   */\n      swap1\n      pop\n        /* \"#utility.yul\":5764:6077   */\n      swap3\n      swap2\n      pop\n      pop\n      jump\t// out\n        /* \"#utility.yul\":6083:6502   */\n    tag_127:\n        /* \"#utility.yul\":6249:6253   */\n      0x00\n        /* \"#utility.yul\":6287:6289   */\n      0x20\n        /* \"#utility.yul\":6276:6285   */\n      dup3\n        /* \"#utility.yul\":6272:6290   */\n      add\n        /* \"#utility.yul\":6264:6290   */\n      swap1\n      pop\n        /* \"#utility.yul\":6336:6345   */\n      dup2\n        /* \"#utility.yul\":6330:6334   */\n      dup2\n        /* \"#utility.yul\":6326:6346   */\n      sub\n        /* \"#utility.yul\":6322:6323   */\n      0x00\n        /* \"#utility.yul\":6311:6320   */\n      dup4\n        /* \"#utility.yul\":6307:6324   */\n      add\n        /* \"#utility.yul\":6300:6347   */\n      mstore\n        /* \"#utility.yul\":6364:6495   */\n      tag_231\n        /* \"#utility.yul\":6490:6494   */\n      dup2\n        /* \"#utility.yul\":6364:6495   */\n      tag_183\n      jump\t// in\n    tag_231:\n        /* \"#utility.yul\":6356:6495   */\n      swap1\n      pop\n        /* \"#utility.yul\":6083:6502   */\n      swap2\n      swap1\n      pop\n      jump\t// out\n        /* \"#utility.yul\":6508:6927   */\n    tag_112:\n        /* \"#utility.yul\":6674:6678   */\n      0x00\n        /* \"#utility.yul\":6712:6714   */\n      0x20\n        /* \"#utility.yul\":6701:6710   */\n      dup3\n        /* \"#utility.yul\":6697:6715   */\n      add\n        /* \"#utility.yul\":6689:6715   */\n      swap1\n      pop\n        /* \"#utility.yul\":6761:6770   */\n      dup2\n        /* \"#utility.yul\":6755:6759   */\n      dup2\n        /* \"#utility.yul\":6751:6771   */\n      sub\n        /* \"#utility.yul\":6747:6748   */\n      0x00\n        /* \"#utility.yul\":6736:6745   */\n      dup4\n        /* \"#utility.yul\":6732:6749   */\n      add\n        /* \"#utility.yul\":6725:6772   */\n      mstore\n        /* \"#utility.yul\":6789:6920   */\n      tag_233\n        /* \"#utility.yul\":6915:6919   */\n      dup2\n        /* \"#utility.yul\":6789:6920   */\n      tag_188\n      jump\t// in\n    tag_233:\n        /* \"#utility.yul\":6781:6920   */\n      swap1\n      pop\n        /* \"#utility.yul\":6508:6927   */\n      swap2\n      swap1\n      pop\n      jump\t// out\n        /* \"#utility.yul\":6933:7352   */\n    tag_119:\n        /* \"#utility.yul\":7099:7103   */\n      0x00\n        /* \"#utility.yul\":7137:7139   */\n      0x20\n        /* \"#utility.yul\":7126:7135   */\n      dup3\n        /* \"#utility.yul\":7122:7140   */\n      add\n        /* \"#utility.yul\":7114:7140   */\n      swap1\n      pop\n        /* \"#utility.yul\":7186:7195   */\n      dup2\n        /* \"#utility.yul\":7180:7184   */\n      dup2\n        /* \"#utility.yul\":7176:7196   */\n      sub\n        /* \"#utility.yul\":7172:7173   */\n      0x00\n        /* \"#utility.yul\":7161:7170   */\n      dup4\n        /* \"#utility.yul\":7157:7174   */\n      add\n        /* \"#utility.yul\":7150:7197   */\n      mstore\n        /* \"#utility.yul\":7214:7345   */\n      tag_235\n        /* \"#utility.yul\":7340:7344   */\n      dup2\n        /* \"#utility.yul\":7214:7345   */\n      tag_193\n      jump\t// in\n    tag_235:\n        /* \"#utility.yul\":7206:7345   */\n      swap1\n      pop\n        /* \"#utility.yul\":6933:7352   */\n      swap2\n      swap1\n      pop\n      jump\t// out\n        /* \"#utility.yul\":7358:7777   */\n    tag_132:\n        /* \"#utility.yul\":7524:7528   */\n      0x00\n        /* \"#utility.yul\":7562:7564   */\n      0x20\n        /* \"#utility.yul\":7551:7560   */\n      dup3\n        /* \"#utility.yul\":7547:7565   */\n      add\n        /* \"#utility.yul\":7539:7565   */\n      swap1\n      pop\n        /* \"#utility.yul\":7611:7620   */\n      dup2\n        /* \"#utility.yul\":7605:7609   */\n      dup2\n        /* \"#utility.yul\":7601:7621   */\n      sub\n        /* \"#utility.yul\":7597:7598   */\n      0x00\n        /* \"#utility.yul\":7586:7595   */\n      dup4\n        /* \"#utility.yul\":7582:7599   */\n      add\n        /* \"#utility.yul\":7575:7622   */\n      mstore\n        /* \"#utility.yul\":7639:7770   */\n      tag_237\n        /* \"#utility.yul\":7765:7769   */\n      dup2\n        /* \"#utility.yul\":7639:7770   */\n      tag_198\n      jump\t// in\n    tag_237:\n        /* \"#utility.yul\":7631:7770   */\n      swap1\n      pop\n        /* \"#utility.yul\":7358:7777   */\n      swap2\n      swap1\n      pop\n      jump\t// out\n        /* \"#utility.yul\":7783:8202   */\n    tag_124:\n        /* \"#utility.yul\":7949:7953   */\n      0x00\n        /* \"#utility.yul\":7987:7989   */\n      0x20\n        /* \"#utility.yul\":7976:7985   */\n      dup3\n        /* \"#utility.yul\":7972:7990   */\n      add\n        /* \"#utility.yul\":7964:7990   */\n      swap1\n      pop\n        /* \"#utility.yul\":8036:8045   */\n      dup2\n        /* \"#utility.yul\":8030:8034   */\n      dup2\n        /* \"#utility.yul\":8026:8046   */\n      sub\n        /* \"#utility.yul\":8022:8023   */\n      0x00\n        /* \"#utility.yul\":8011:8020   */\n      dup4\n        /* \"#utility.yul\":8007:8024   */\n      add\n        /* \"#utility.yul\":8000:8047   */\n      mstore\n        /* \"#utility.yul\":8064:8195   */\n      tag_239\n        /* \"#utility.yul\":8190:8194   */\n      dup2\n        /* \"#utility.yul\":8064:8195   */\n      tag_203\n      jump\t// in\n    tag_239:\n        /* \"#utility.yul\":8056:8195   */\n      swap1\n      pop\n        /* \"#utility.yul\":7783:8202   */\n      swap2\n      swap1\n      pop\n      jump\t// out\n        /* \"#utility.yul\":8208:8627   */\n    tag_109:\n        /* \"#utility.yul\":8374:8378   */\n      0x00\n        /* \"#utility.yul\":8412:8414   */\n      0x20\n        /* \"#utility.yul\":8401:8410   */\n      dup3\n        /* \"#utility.yul\":8397:8415   */\n      add\n        /* \"#utility.yul\":8389:8415   */\n      swap1\n      pop\n        /* \"#utility.yul\":8461:8470   */\n      dup2\n        /* \"#utility.yul\":8455:8459   */\n      dup2\n        /* \"#utility.yul\":8451:8471   */\n      sub\n        /* \"#utility.yul\":8447:8448   */\n      0x00\n        /* \"#utility.yul\":8436:8445   */\n      dup4\n        /* \"#utility.yul\":8432:8449   */\n      add\n        /* \"#utility.yul\":8425:8472   */\n      mstore\n        /* \"#utility.yul\":8489:8620   */\n      tag_241\n        /* \"#utility.yul\":8615:8619   */\n      dup2\n        /* \"#utility.yul\":8489:8620   */\n      tag_208\n      jump\t// in\n    tag_241:\n        /* \"#utility.yul\":8481:8620   */\n      swap1\n      pop\n        /* \"#utility.yul\":8208:8627   */\n      swap2\n      swap1\n      pop\n      jump\t// out\n        /* \"#utility.yul\":8633:9052   */\n    tag_99:\n        /* \"#utility.yul\":8799:8803   */\n      0x00\n        /* \"#utility.yul\":8837:8839   */\n      0x20\n        /* \"#utility.yul\":8826:8835   */\n      dup3\n        /* \"#utility.yul\":8822:8840   */\n      add\n        /* \"#utility.yul\":8814:8840   */\n      swap1\n      pop\n        /* \"#utility.yul\":8886:8895   */\n      dup2\n        /* \"#utility.yul\":8880:8884   */\n      dup2\n        /* \"#utility.yul\":8876:8896   */\n      sub\n        /* \"#utility.yul\":8872:8873   */\n      0x00\n        /* \"#utility.yul\":8861:8870   */\n      dup4\n        /* \"#utility.yul\":8857:8874   */\n      add\n        /* \"#utility.yul\":8850:8897   */\n      mstore\n        /* \"#utility.yul\":8914:9045   */\n      tag_243\n        /* \"#utility.yul\":9040:9044   */\n      dup2\n        /* \"#utility.yul\":8914:9045   */\n      tag_213\n      jump\t// in\n    tag_243:\n        /* \"#utility.yul\":8906:9045   */\n      swap1\n      pop\n        /* \"#utility.yul\":8633:9052   */\n      swap2\n      swap1\n      pop\n      jump\t// out\n        /* \"#utility.yul\":9058:9280   */\n    tag_28:\n        /* \"#utility.yul\":9151:9155   */\n      0x00\n        /* \"#utility.yul\":9189:9191   */\n      0x20\n        /* \"#utility.yul\":9178:9187   */\n      dup3\n        /* \"#utility.yul\":9174:9192   */\n      add\n        /* \"#utility.yul\":9166:9192   */\n      swap1\n      pop\n        /* \"#utility.yul\":9202:9273   */\n      tag_245\n        /* \"#utility.yul\":9270:9271   */\n      0x00\n        /* \"#utility.yul\":9259:9268   */\n      dup4\n        /* \"#utility.yul\":9255:9272   */\n      add\n        /* \"#utility.yul\":9246:9252   */\n      dup5\n        /* \"#utility.yul\":9202:9273   */\n      tag_218\n      jump\t// in\n    tag_245:\n        /* \"#utility.yul\":9058:9280   */\n      swap3\n      swap2\n      pop\n      pop\n      jump\t// out\n        /* \"#utility.yul\":9286:9500   */\n    tag_37:\n        /* \"#utility.yul\":9375:9379   */\n      0x00\n        /* \"#utility.yul\":9413:9415   */\n      0x20\n        /* \"#utility.yul\":9402:9411   */\n      dup3\n        /* \"#utility.yul\":9398:9416   */\n      add\n        /* \"#utility.yul\":9390:9416   */\n      swap1\n      pop\n        /* \"#utility.yul\":9426:9493   */\n      tag_247\n        /* \"#utility.yul\":9490:9491   */\n      0x00\n        /* \"#utility.yul\":9479:9488   */\n      dup4\n        /* \"#utility.yul\":9475:9492   */\n      add\n        /* \"#utility.yul\":9466:9472   */\n      dup5\n        /* \"#utility.yul\":9426:9493   */\n      tag_222\n      jump\t// in\n    tag_247:\n        /* \"#utility.yul\":9286:9500   */\n      swap3\n      swap2\n      pop\n      pop\n      jump\t// out\n        /* \"#utility.yul\":9587:9686   */\n    tag_176:\n        /* \"#utility.yul\":9639:9645   */\n      0x00\n        /* \"#utility.yul\":9673:9678   */\n      dup2\n        /* \"#utility.yul\":9667:9679   */\n      mload\n        /* \"#utility.yul\":9657:9679   */\n      swap1\n      pop\n        /* \"#utility.yul\":9587:9686   */\n      swap2\n      swap1\n      pop\n      jump\t// out\n        /* \"#utility.yul\":9692:9861   */\n    tag_178:\n        /* \"#utility.yul\":9776:9787   */\n      0x00\n        /* \"#utility.yul\":9810:9816   */\n      dup3\n        /* \"#utility.yul\":9805:9808   */\n      dup3\n        /* \"#utility.yul\":9798:9817   */\n      mstore\n        /* \"#utility.yul\":9850:9854   */\n      0x20\n        /* \"#utility.yul\":9845:9848   */\n      dup3\n        /* \"#utility.yul\":9841:9855   */\n      add\n        /* \"#utility.yul\":9826:9855   */\n      swap1\n      pop\n        /* \"#utility.yul\":9692:9861   */\n      swap3\n      swap2\n      pop\n      pop\n      jump\t// out\n        /* \"#utility.yul\":9867:10172   */\n    tag_87:\n        /* \"#utility.yul\":9907:9910   */\n      0x00\n        /* \"#utility.yul\":9926:9946   */\n      tag_253\n        /* \"#utility.yul\":9944:9945   */\n      dup3\n        /* \"#utility.yul\":9926:9946   */\n      tag_221\n      jump\t// in\n    tag_253:\n        /* \"#utility.yul\":9921:9946   */\n      swap2\n      pop\n        /* \"#utility.yul\":9960:9980   */\n      tag_254\n        /* \"#utility.yul\":9978:9979   */\n      dup4\n        /* \"#utility.yul\":9960:9980   */\n      tag_221\n      jump\t// in\n    tag_254:\n        /* \"#utility.yul\":9955:9980   */\n      swap3\n      pop\n        /* \"#utility.yul\":10114:10115   */\n      dup3\n        /* \"#utility.yul\":10046:10112   */\n      0xffffffffffffffffffffffffffffffffffffffffffffffffffffffffffffffff\n        /* \"#utility.yul\":10042:10116   */\n      sub\n        /* \"#utility.yul\":10039:10040   */\n      dup3\n        /* \"#utility.yul\":10036:10117   */\n      gt\n        /* \"#utility.yul\":10033:10140   */\n      iszero\n      tag_255\n      jumpi\n        /* \"#utility.yul\":10120:10138   */\n      tag_256\n      tag_257\n      jump\t// in\n    tag_256:\n        /* \"#utility.yul\":10033:10140   */\n    tag_255:\n        /* \"#utility.yul\":10164:10165   */\n      dup3\n        /* \"#utility.yul\":10161:10162   */\n      dup3\n        /* \"#utility.yul\":10157:10166   */\n      add\n        /* \"#utility.yul\":10150:10166   */\n      swap1\n      pop\n        /* \"#utility.yul\":9867:10172   */\n      swap3\n      swap2\n      pop\n      pop\n      jump\t// out\n        /* \"#utility.yul\":10178:10274   */\n    tag_258:\n        /* \"#utility.yul\":10215:10222   */\n      0x00\n        /* \"#utility.yul\":10244:10268   */\n      tag_260\n        /* \"#utility.yul\":10262:10267   */\n      dup3\n        /* \"#utility.yul\":10244:10268   */\n      tag_261\n      jump\t// in\n    tag_260:\n        /* \"#utility.yul\":10233:10268   */\n      swap1\n      pop\n        /* \"#utility.yul\":10178:10274   */\n      swap2\n      swap1\n      pop\n      jump\t// out\n        /* \"#utility.yul\":10280:10370   */\n    tag_172:\n        /* \"#utility.yul\":10314:10321   */\n      0x00\n        /* \"#utility.yul\":10357:10362   */\n      dup2\n        /* \"#utility.yul\":10350:10363   */\n      iszero\n        /* \"#utility.yul\":10343:10364   */\n      iszero\n        /* \"#utility.yul\":10332:10364   */\n      swap1\n      pop\n        /* \"#utility.yul\":10280:10370   */\n      swap2\n      swap1\n      pop\n      jump\t// out\n        /* \"#utility.yul\":10376:10502   */\n    tag_261:\n        /* \"#utility.yul\":10413:10420   */\n      0x00\n        /* \"#utility.yul\":10453:10495   */\n      0xffffffffffffffffffffffffffffffffffffffff\n        /* \"#utility.yul\":10446:10451   */\n      dup3\n        /* \"#utility.yul\":10442:10496   */\n      and\n        /* \"#utility.yul\":10431:10496   */\n      swap1\n      pop\n        /* \"#utility.yul\":10376:10502   */\n      swap2\n      swap1\n      pop\n      jump\t// out\n        /* \"#utility.yul\":10508:10585   */\n    tag_221:\n        /* \"#utility.yul\":10545:10552   */\n      0x00\n        /* \"#utility.yul\":10574:10579   */\n      dup2\n        /* \"#utility.yul\":10563:10579   */\n      swap1\n      pop\n        /* \"#utility.yul\":10508:10585   */\n      swap2\n      swap1\n      pop\n      jump\t// out\n        /* \"#utility.yul\":10591:10677   */\n    tag_225:\n        /* \"#utility.yul\":10626:10633   */\n      0x00\n        /* \"#utility.yul\":10666:10670   */\n      0xff\n        /* \"#utility.yul\":10659:10664   */\n      dup3\n        /* \"#utility.yul\":10655:10671   */\n      and\n        /* \"#utility.yul\":10644:10671   */\n      swap1\n      pop\n        /* \"#utility.yul\":10591:10677   */\n      swap2\n      swap1\n      pop\n      jump\t// out\n        /* \"#utility.yul\":10683:10990   */\n    tag_180:\n        /* \"#utility.yul\":10751:10752   */\n      0x00\n        /* \"#utility.yul\":10761:10874   */\n    tag_267:\n        /* \"#utility.yul\":10775:10781   */\n      dup4\n        /* \"#utility.yul\":10772:10773   */\n      dup2\n        /* \"#utility.yul\":10769:10782   */\n      lt\n        /* \"#utility.yul\":10761:10874   */\n      iszero\n      tag_269\n      jumpi\n        /* \"#utility.yul\":10860:10861   */\n      dup1\n        /* \"#utility.yul\":10855:10858   */\n      dup3\n        /* \"#utility.yul\":10851:10862   */\n      add\n        /* \"#utility.yul\":10845:10863   */\n      mload\n        /* \"#utility.yul\":10841:10842   */\n      dup2\n        /* \"#utility.yul\":10836:10839   */\n      dup5\n        /* \"#utility.yul\":10832:10843   */\n      add\n        /* \"#utility.yul\":10825:10864   */\n      mstore\n        /* \"#utility.yul\":10797:10799   */\n      0x20\n        /* \"#utility.yul\":10794:10795   */\n      dup2\n        /* \"#utility.yul\":10790:10800   */\n      add\n        /* \"#utility.yul\":10785:10800   */\n      swap1\n      pop\n        /* \"#utility.yul\":10761:10874   */\n      jump(tag_267)\n    tag_269:\n        /* \"#utility.yul\":10892:10898   */\n      dup4\n        /* \"#utility.yul\":10889:10890   */\n      dup2\n        /* \"#utility.yul\":10886:10899   */\n      gt\n        /* \"#utility.yul\":10883:10984   */\n      iszero\n      tag_270\n      jumpi\n        /* \"#utility.yul\":10972:10973   */\n      0x00\n        /* \"#utility.yul\":10963:10969   */\n      dup5\n        /* \"#utility.yul\":10958:10961   */\n      dup5\n        /* \"#utility.yul\":10954:10970   */\n      add\n        /* \"#utility.yul\":10947:10974   */\n      mstore\n        /* \"#utility.yul\":10883:10984   */\n    tag_270:\n        /* \"#utility.yul\":10732:10990   */\n      pop\n        /* \"#utility.yul\":10683:10990   */\n      pop\n      pop\n      pop\n      jump\t// out\n        /* \"#utility.yul\":10996:11316   */\n    tag_65:\n        /* \"#utility.yul\":11040:11046   */\n      0x00\n        /* \"#utility.yul\":11077:11078   */\n      0x02\n        /* \"#utility.yul\":11071:11075   */\n      dup3\n        /* \"#utility.yul\":11067:11079   */\n      div\n        /* \"#utility.yul\":11057:11079   */\n      swap1\n      pop\n        /* \"#utility.yul\":11124:11125   */\n      0x01\n        /* \"#utility.yul\":11118:11122   */\n      dup3\n        /* \"#utility.yul\":11114:11126   */\n      and\n        /* \"#utility.yul\":11145:11163   */\n      dup1\n        /* \"#utility.yul\":11135:11216   */\n      tag_272\n      jumpi\n        /* \"#utility.yul\":11201:11205   */\n      0x7f\n        /* \"#utility.yul\":11193:11199   */\n      dup3\n        /* \"#utility.yul\":11189:11206   */\n      and\n        /* \"#utility.yul\":11179:11206   */\n      swap2\n      pop\n        /* \"#utility.yul\":11135:11216   */\n    tag_272:\n        /* \"#utility.yul\":11263:11265   */\n      0x20\n        /* \"#utility.yul\":11255:11261   */\n      dup3\n        /* \"#utility.yul\":11252:11266   */\n      lt\n        /* \"#utility.yul\":11232:11250   */\n      dup2\n        /* \"#utility.yul\":11229:11267   */\n      eq\n        /* \"#utility.yul\":11226:11310   */\n      iszero\n      tag_273\n      jumpi\n        /* \"#utility.yul\":11282:11300   */\n      tag_274\n      tag_275\n      jump\t// in\n    tag_274:\n        /* \"#utility.yul\":11226:11310   */\n    tag_273:\n        /* \"#utility.yul\":11047:11316   */\n      pop\n        /* \"#utility.yul\":10996:11316   */\n      swap2\n      swap1\n      pop\n      jump\t// out\n        /* \"#utility.yul\":11322:11502   */\n    tag_257:\n        /* \"#utility.yul\":11370:11447   */\n      0x4e487b7100000000000000000000000000000000000000000000000000000000\n        /* \"#utility.yul\":11367:11368   */\n      0x00\n        /* \"#utility.yul\":11360:11448   */\n      mstore\n        /* \"#utility.yul\":11467:11471   */\n      0x11\n        /* \"#utility.yul\":11464:11465   */\n      0x04\n        /* \"#utility.yul\":11457:11472   */\n      mstore\n        /* \"#utility.yul\":11491:11495   */\n      0x24\n        /* \"#utility.yul\":11488:11489   */\n      0x00\n        /* \"#utility.yul\":11481:11496   */\n      revert\n        /* \"#utility.yul\":11508:11688   */\n    tag_275:\n        /* \"#utility.yul\":11556:11633   */\n      0x4e487b7100000000000000000000000000000000000000000000000000000000\n        /* \"#utility.yul\":11553:11554   */\n      0x00\n        /* \"#utility.yul\":11546:11634   */\n      mstore\n        /* \"#utility.yul\":11653:11657   */\n      0x22\n        /* \"#utility.yul\":11650:11651   */\n      0x04\n        /* \"#utility.yul\":11643:11658   */\n      mstore\n        /* \"#utility.yul\":11677:11681   */\n      0x24\n        /* \"#utility.yul\":11674:11675   */\n      0x00\n        /* \"#utility.yul\":11667:11682   */\n      revert\n        /* \"#utility.yul\":11817:11934   */\n    tag_151:\n        /* \"#utility.yul\":11926:11927   */\n      0x00\n        /* \"#utility.yul\":11923:11924   */\n      dup1\n        /* \"#utility.yul\":11916:11928   */\n      revert\n        /* \"#utility.yul\":11940:12042   */\n    tag_182:\n        /* \"#utility.yul\":11981:11987   */\n      0x00\n        /* \"#utility.yul\":12032:12034   */\n      0x1f\n        /* \"#utility.yul\":12028:12035   */\n      not\n        /* \"#utility.yul\":12023:12025   */\n      0x1f\n        /* \"#utility.yul\":12016:12021   */\n      dup4\n        /* \"#utility.yul\":12012:12026   */\n      add\n        /* \"#utility.yul\":12008:12036   */\n      and\n        /* \"#utility.yul\":11998:12036   */\n      swap1\n      pop\n        /* \"#utility.yul\":11940:12042   */\n      swap2\n      swap1\n      pop\n      jump\t// out\n        /* \"#utility.yul\":12048:12270   */\n    tag_187:\n        /* \"#utility.yul\":12188:12222   */\n      0x45524332303a207472616e7366657220746f20746865207a65726f2061646472\n        /* \"#utility.yul\":12184:12185   */\n      0x00\n        /* \"#utility.yul\":12176:12182   */\n      dup3\n        /* \"#utility.yul\":12172:12186   */\n      add\n        /* \"#utility.yul\":12165:12223   */\n      mstore\n        /* \"#utility.yul\":12257:12262   */\n      0x6573730000000000000000000000000000000000000000000000000000000000\n        /* \"#utility.yul\":12252:12254   */\n      0x20\n        /* \"#utility.yul\":12244:12250   */\n      dup3\n        /* \"#utility.yul\":12240:12255   */\n      add\n        /* \"#utility.yul\":12233:12263   */\n      mstore\n        /* \"#utility.yul\":12048:12270   */\n      pop\n      jump\t// out\n        /* \"#utility.yul\":12276:12497   */\n    tag_192:\n        /* \"#utility.yul\":12416:12450   */\n      0x45524332303a20617070726f766520746f20746865207a65726f206164647265\n        /* \"#utility.yul\":12412:12413   */\n      0x00\n        /* \"#utility.yul\":12404:12410   */\n      dup3\n        /* \"#utility.yul\":12400:12414   */\n      add\n        /* \"#utility.yul\":12393:12451   */\n      mstore\n        /* \"#utility.yul\":12485:12489   */\n      0x7373000000000000000000000000000000000000000000000000000000000000\n        /* \"#utility.yul\":12480:12482   */\n      0x20\n        /* \"#utility.yul\":12472:12478   */\n      dup3\n        /* \"#utility.yul\":12468:12483   */\n      add\n        /* \"#utility.yul\":12461:12490   */\n      mstore\n        /* \"#utility.yul\":12276:12497   */\n      pop\n      jump\t// out\n        /* \"#utility.yul\":12503:12682   */\n    tag_197:\n        /* \"#utility.yul\":12643:12674   */\n      0x45524332303a20696e73756666696369656e7420616c6c6f77616e6365000000\n        /* \"#utility.yul\":12639:12640   */\n      0x00\n        /* \"#utility.yul\":12631:12637   */\n      dup3\n        /* \"#utility.yul\":12627:12641   */\n      add\n        /* \"#utility.yul\":12620:12675   */\n      mstore\n        /* \"#utility.yul\":12503:12682   */\n      pop\n      jump\t// out\n        /* \"#utility.yul\":12688:12913   */\n    tag_202:\n        /* \"#utility.yul\":12828:12862   */\n      0x45524332303a207472616e7366657220616d6f756e7420657863656564732062\n        /* \"#utility.yul\":12824:12825   */\n      0x00\n        /* \"#utility.yul\":12816:12822   */\n      dup3\n        /* \"#utility.yul\":12812:12826   */\n      add\n        /* \"#utility.yul\":12805:12863   */\n      mstore\n        /* \"#utility.yul\":12897:12905   */\n      0x616c616e63650000000000000000000000000000000000000000000000000000\n        /* \"#utility.yul\":12892:12894   */\n      0x20\n        /* \"#utility.yul\":12884:12890   */\n      dup3\n        /* \"#utility.yul\":12880:12895   */\n      add\n        /* \"#utility.yul\":12873:12906   */\n      mstore\n        /* \"#utility.yul\":12688:12913   */\n      pop\n      jump\t// out\n        /* \"#utility.yul\":12919:13143   */\n    tag_207:\n        /* \"#utility.yul\":13059:13093   */\n      0x45524332303a207472616e736665722066726f6d20746865207a65726f206164\n        /* \"#utility.yul\":13055:13056   */\n      0x00\n        /* \"#utility.yul\":13047:13053   */\n      dup3\n        /* \"#utility.yul\":13043:13057   */\n      add\n        /* \"#utility.yul\":13036:13094   */\n      mstore\n        /* \"#utility.yul\":13128:13135   */\n      0x6472657373000000000000000000000000000000000000000000000000000000\n        /* \"#utility.yul\":13123:13125   */\n      0x20\n        /* \"#utility.yul\":13115:13121   */\n      dup3\n        /* \"#utility.yul\":13111:13126   */\n      add\n        /* \"#utility.yul\":13104:13136   */\n      mstore\n        /* \"#utility.yul\":12919:13143   */\n      pop\n      jump\t// out\n        /* \"#utility.yul\":13149:13372   */\n    tag_212:\n        /* \"#utility.yul\":13289:13323   */\n      0x45524332303a20617070726f76652066726f6d20746865207a65726f20616464\n        /* \"#utility.yul\":13285:13286   */\n      0x00\n        /* \"#utility.yul\":13277:13283   */\n      dup3\n        /* \"#utility.yul\":13273:13287   */\n      add\n        /* \"#utility.yul\":13266:13324   */\n      mstore\n        /* \"#utility.yul\":13358:13364   */\n      0x7265737300000000000000000000000000000000000000000000000000000000\n        /* \"#utility.yul\":13353:13355   */\n      0x20\n        /* \"#utility.yul\":13345:13351   */\n      dup3\n        /* \"#utility.yul\":13341:13356   */\n      add\n        /* \"#utility.yul\":13334:13365   */\n      mstore\n        /* \"#utility.yul\":13149:13372   */\n      pop\n      jump\t// out\n        /* \"#utility.yul\":13378:13602   */\n    tag_217:\n        /* \"#utility.yul\":13518:13552   */\n      0x45524332303a2064656372656173656420616c6c6f77616e63652062656c6f77\n        /* \"#utility.yul\":13514:13515   */\n      0x00\n        /* \"#utility.yul\":13506:13512   */\n      dup3\n        /* \"#utility.yul\":13502:13516   */\n      add\n        /* \"#utility.yul\":13495:13553   */\n      mstore\n        /* \"#utility.yul\":13587:13594   */\n      0x207a65726f000000000000000000000000000000000000000000000000000000\n        /* \"#utility.yul\":13582:13584   */\n      0x20\n        /* \"#utility.yul\":13574:13580   */\n      dup3\n        /* \"#utility.yul\":13570:13585   */\n      add\n        /* \"#utility.yul\":13563:13595   */\n      mstore\n        /* \"#utility.yul\":13378:13602   */\n      pop\n      jump\t// out\n        /* \"#utility.yul\":13608:13730   */\n    tag_143:\n        /* \"#utility.yul\":13681:13705   */\n      tag_290\n        /* \"#utility.yul\":13699:13704   */\n      dup2\n        /* \"#utility.yul\":13681:13705   */\n      tag_258\n      jump\t// in\n    tag_290:\n        /* \"#utility.yul\":13674:13679   */\n      dup2\n        /* \"#utility.yul\":13671:13706   */\n      eq\n        /* \"#utility.yul\":13661:13724   */\n      tag_291\n      jumpi\n        /* \"#utility.yul\":13720:13721   */\n      0x00\n        /* \"#utility.yul\":13717:13718   */\n      dup1\n        /* \"#utility.yul\":13710:13722   */\n      revert\n        /* \"#utility.yul\":13661:13724   */\n    tag_291:\n        /* \"#utility.yul\":13608:13730   */\n      pop\n      jump\t// out\n        /* \"#utility.yul\":13736:13858   */\n    tag_147:\n        /* \"#utility.yul\":13809:13833   */\n      tag_293\n        /* \"#utility.yul\":13827:13832   */\n      dup2\n        /* \"#utility.yul\":13809:13833   */\n      tag_221\n      jump\t// in\n    tag_293:\n        /* \"#utility.yul\":13802:13807   */\n      dup2\n        /* \"#utility.yul\":13799:13834   */\n      eq\n        /* \"#utility.yul\":13789:13852   */\n      tag_294\n      jumpi\n        /* \"#utility.yul\":13848:13849   */\n      0x00\n        /* \"#utility.yul\":13845:13846   */\n      dup1\n        /* \"#utility.yul\":13838:13850   */\n      revert\n        /* \"#utility.yul\":13789:13852   */\n    tag_294:\n        /* \"#utility.yul\":13736:13858   */\n      pop\n      jump\t// out\n\n    auxdata: 0xa264697066735822122055c89fa6001bdee3c78b7332eb8b749209749eb54ae468da2d4e8a101d1d9bd264736f6c63430008070033\n}\n",
				"bytecode": {
					"linkReferences": {},
					"object": "60806040523480156200001157600080fd5b50604051620017063803806200170683398181016040528101906200003791906200019f565b81600390805190602001906200004f92919062000071565b5080600490805190602001906200006892919062000071565b505050620003a8565b8280546200007f90620002b9565b90600052602060002090601f016020900481019282620000a35760008555620000ef565b82601f10620000be57805160ff1916838001178555620000ef565b82800160010185558215620000ef579182015b82811115620000ee578251825591602001919060010190620000d1565b5b509050620000fe919062000102565b5090565b5b808211156200011d57600081600090555060010162000103565b5090565b60006200013862000132846200024d565b62000224565b90508281526020810184848401111562000157576200015662000388565b5b6200016484828562000283565b509392505050565b600082601f83011262000184576200018362000383565b5b81516200019684826020860162000121565b91505092915050565b60008060408385031215620001b957620001b862000392565b5b600083015167ffffffffffffffff811115620001da57620001d96200038d565b5b620001e8858286016200016c565b925050602083015167ffffffffffffffff8111156200020c576200020b6200038d565b5b6200021a858286016200016c565b9150509250929050565b60006200023062000243565b90506200023e8282620002ef565b919050565b6000604051905090565b600067ffffffffffffffff8211156200026b576200026a62000354565b5b620002768262000397565b9050602081019050919050565b60005b83811015620002a357808201518184015260208101905062000286565b83811115620002b3576000848401525b50505050565b60006002820490506001821680620002d257607f821691505b60208210811415620002e957620002e862000325565b5b50919050565b620002fa8262000397565b810181811067ffffffffffffffff821117156200031c576200031b62000354565b5b80604052505050565b7f4e487b7100000000000000000000000000000000000000000000000000000000600052602260045260246000fd5b7f4e487b7100000000000000000000000000000000000000000000000000000000600052604160045260246000fd5b600080fd5b600080fd5b600080fd5b600080fd5b6000601f19601f8301169050919050565b61134e80620003b86000396000f3fe608060405234801561001057600080fd5b50600436106100a95760003560e01c80633950935111610071578063395093511461016857806370a082311461019857806395d89b41146101c8578063a457c2d7146101e6578063a9059cbb14610216578063dd62ed3e14610246576100a9565b806306fdde03146100ae578063095ea7b3146100cc57806318160ddd146100fc57806323b872dd1461011a578063313ce5671461014a575b600080fd5b6100b6610276565b6040516100c39190610e0f565b60405180910390f35b6100e660048036038101906100e19190610c59565b610308565b6040516100f39190610df4565b60405180910390f35b61010461032b565b6040516101119190610f11565b60405180910390f35b610134600480360381019061012f9190610c06565b610335565b6040516101419190610df4565b60405180910390f35b610152610364565b60405161015f9190610f2c565b60405180910390f35b610182600480360381019061017d9190610c59565b61036d565b60405161018f9190610df4565b60405180910390f35b6101b260048036038101906101ad9190610b99565b610417565b6040516101bf9190610f11565b60405180910390f35b6101d061045f565b6040516101dd9190610e0f565b60405180910390f35b61020060048036038101906101fb9190610c59565b6104f1565b60405161020d9190610df4565b60405180910390f35b610230600480360381019061022b9190610c59565b6105db565b60405161023d9190610df4565b60405180910390f35b610260600480360381019061025b9190610bc6565b6105fe565b60405161026d9190610f11565b60405180910390f35b60606003805461028590611041565b80601f01602080910402602001604051908101604052809291908181526020018280546102b190611041565b80156102fe5780601f106102d3576101008083540402835291602001916102fe565b820191906000526020600020905b8154815290600101906020018083116102e157829003601f168201915b5050505050905090565b600080610313610685565b905061032081858561068d565b600191505092915050565b6000600254905090565b600080610340610685565b905061034d858285610858565b6103588585856108e4565b60019150509392505050565b60006012905090565b600080610378610685565b905061040c818585600160008673ffffffffffffffffffffffffffffffffffffffff1673ffffffffffffffffffffffffffffffffffffffff16815260200190815260200160002060008973ffffffffffffffffffffffffffffffffffffffff1673ffffffffffffffffffffffffffffffffffffffff168152602001908152602001600020546104079190610f63565b61068d565b600191505092915050565b60008060008373ffffffffffffffffffffffffffffffffffffffff1673ffffffffffffffffffffffffffffffffffffffff168152602001908152602001600020549050919050565b60606004805461046e90611041565b80601f016020809104026020016040519081016040528092919081815260200182805461049a90611041565b80156104e75780601f106104bc576101008083540402835291602001916104e7565b820191906000526020600020905b8154815290600101906020018083116104ca57829003601f168201915b5050505050905090565b6000806104fc610685565b90506000600160008373ffffffffffffffffffffffffffffffffffffffff1673ffffffffffffffffffffffffffffffffffffffff16815260200190815260200160002060008673ffffffffffffffffffffffffffffffffffffffff1673ffffffffffffffffffffffffffffffffffffffff168152602001908152602001600020549050838110156105c2576040517f08c379a00000000000000000000000000000000000000000000000000000000081526004016105b990610ef1565b60405180910390fd5b6105cf828686840361068d565b60019250505092915050565b6000806105e6610685565b90506105f38185856108e4565b600191505092915050565b6000600160008473ffffffffffffffffffffffffffffffffffffffff1673ffffffffffffffffffffffffffffffffffffffff16815260200190815260200160002060008373ffffffffffffffffffffffffffffffffffffffff1673ffffffffffffffffffffffffffffffffffffffff16815260200190815260200160002054905092915050565b600033905090565b600073ffffffffffffffffffffffffffffffffffffffff168373ffffffffffffffffffffffffffffffffffffffff1614156106fd576040517f08c379a00000000000000000000000000000000000000000000000000000000081526004016106f490610ed1565b60405180910390fd5b600073ffffffffffffffffffffffffffffffffffffffff168273ffffffffffffffffffffffffffffffffffffffff16141561076d576040517f08c379a000000000000000000000000000000000000000000000000000000000815260040161076490610e51565b60405180910390fd5b80600160008573ffffffffffffffffffffffffffffffffffffffff1673ffffffffffffffffffffffffffffffffffffffff16815260200190815260200160002060008473ffffffffffffffffffffffffffffffffffffffff1673ffffffffffffffffffffffffffffffffffffffff168152602001908152602001600020819055508173ffffffffffffffffffffffffffffffffffffffff168373ffffffffffffffffffffffffffffffffffffffff167f8c5be1e5ebec7d5bd14f71427d1e84f3dd0314c0f7b2291e5b200ac8c7c3b9258360405161084b9190610f11565b60405180910390a3505050565b600061086484846105fe565b90507fffffffffffffffffffffffffffffffffffffffffffffffffffffffffffffffff81146108de57818110156108d0576040517f08c379a00000000000000000000000000000000000000000000000000000000081526004016108c790610e71565b60405180910390fd5b6108dd848484840361068d565b5b50505050565b600073ffffffffffffffffffffffffffffffffffffffff168373ffffffffffffffffffffffffffffffffffffffff161415610954576040517f08c379a000000000000000000000000000000000000000000000000000000000815260040161094b90610eb1565b60405180910390fd5b600073ffffffffffffffffffffffffffffffffffffffff168273ffffffffffffffffffffffffffffffffffffffff1614156109c4576040517f08c379a00000000000000000000000000000000000000000000000000000000081526004016109bb90610e31565b60405180910390fd5b6109cf838383610b65565b60008060008573ffffffffffffffffffffffffffffffffffffffff1673ffffffffffffffffffffffffffffffffffffffff16815260200190815260200160002054905081811015610a55576040517f08c379a0000000000000000000000000000000000000000000000000000000008152600401610a4c90610e91565b60405180910390fd5b8181036000808673ffffffffffffffffffffffffffffffffffffffff1673ffffffffffffffffffffffffffffffffffffffff16815260200190815260200160002081905550816000808573ffffffffffffffffffffffffffffffffffffffff1673ffffffffffffffffffffffffffffffffffffffff1681526020019081526020016000206000828254610ae89190610f63565b925050819055508273ffffffffffffffffffffffffffffffffffffffff168473ffffffffffffffffffffffffffffffffffffffff167fddf252ad1be2c89b69c2b068fc378daa952ba7f163c4a11628f55a4df523b3ef84604051610b4c9190610f11565b60405180910390a3610b5f848484610b6a565b50505050565b505050565b505050565b600081359050610b7e816112ea565b92915050565b600081359050610b9381611301565b92915050565b600060208284031215610baf57610bae6110d1565b5b6000610bbd84828501610b6f565b91505092915050565b60008060408385031215610bdd57610bdc6110d1565b5b6000610beb85828601610b6f565b9250506020610bfc85828601610b6f565b9150509250929050565b600080600060608486031215610c1f57610c1e6110d1565b5b6000610c2d86828701610b6f565b9350506020610c3e86828701610b6f565b9250506040610c4f86828701610b84565b9150509250925092565b60008060408385031215610c7057610c6f6110d1565b5b6000610c7e85828601610b6f565b9250506020610c8f85828601610b84565b9150509250929050565b610ca281610fcb565b82525050565b6000610cb382610f47565b610cbd8185610f52565b9350610ccd81856020860161100e565b610cd6816110d6565b840191505092915050565b6000610cee602383610f52565b9150610cf9826110e7565b604082019050919050565b6000610d11602283610f52565b9150610d1c82611136565b604082019050919050565b6000610d34601d83610f52565b9150610d3f82611185565b602082019050919050565b6000610d57602683610f52565b9150610d62826111ae565b604082019050919050565b6000610d7a602583610f52565b9150610d85826111fd565b604082019050919050565b6000610d9d602483610f52565b9150610da88261124c565b604082019050919050565b6000610dc0602583610f52565b9150610dcb8261129b565b604082019050919050565b610ddf81610ff7565b82525050565b610dee81611001565b82525050565b6000602082019050610e096000830184610c99565b92915050565b60006020820190508181036000830152610e298184610ca8565b905092915050565b60006020820190508181036000830152610e4a81610ce1565b9050919050565b60006020820190508181036000830152610e6a81610d04565b9050919050565b60006020820190508181036000830152610e8a81610d27565b9050919050565b60006020820190508181036000830152610eaa81610d4a565b9050919050565b60006020820190508181036000830152610eca81610d6d565b9050919050565b60006020820190508181036000830152610eea81610d90565b9050919050565b60006020820190508181036000830152610f0a81610db3565b9050919050565b6000602082019050610f266000830184610dd6565b92915050565b6000602082019050610f416000830184610de5565b92915050565b600081519050919050565b600082825260208201905092915050565b6000610f6e82610ff7565b9150610f7983610ff7565b9250827fffffffffffffffffffffffffffffffffffffffffffffffffffffffffffffffff03821115610fae57610fad611073565b5b828201905092915050565b6000610fc482610fd7565b9050919050565b60008115159050919050565b600073ffffffffffffffffffffffffffffffffffffffff82169050919050565b6000819050919050565b600060ff82169050919050565b60005b8381101561102c578082015181840152602081019050611011565b8381111561103b576000848401525b50505050565b6000600282049050600182168061105957607f821691505b6020821081141561106d5761106c6110a2565b5b50919050565b7f4e487b7100000000000000000000000000000000000000000000000000000000600052601160045260246000fd5b7f4e487b7100000000000000000000000000000000000000000000000000000000600052602260045260246000fd5b600080fd5b6000601f19601f8301169050919050565b7f45524332303a207472616e7366657220746f20746865207a65726f206164647260008201527f6573730000000000000000000000000000000000000000000000000000000000602082015250565b7f45524332303a20617070726f766520746f20746865207a65726f20616464726560008201527f7373000000000000000000000000000000000000000000000000000000000000602082015250565b7f45524332303a20696e73756666696369656e7420616c6c6f77616e6365000000600082015250565b7f45524332303a207472616e7366657220616d6f756e742065786365656473206260008201527f616c616e63650000000000000000000000000000000000000000000000000000602082015250565b7f45524332303a207472616e736665722066726f6d20746865207a65726f20616460008201527f6472657373000000000000000000000000000000000000000000000000000000602082015250565b7f45524332303a20617070726f76652066726f6d20746865207a65726f2061646460008201527f7265737300000000000000000000000000000000000000000000000000000000602082015250565b7f45524332303a2064656372656173656420616c6c6f77616e63652062656c6f7760008201527f207a65726f000000000000000000000000000000000000000000000000000000602082015250565b6112f381610fb9565b81146112fe57600080fd5b50565b61130a81610ff7565b811461131557600080fd5b5056fea264697066735822122055c89fa6001bdee3c78b7332eb8b749209749eb54ae468da2d4e8a101d1d9bd264736f6c63430008070033",
					"opcodes": "PUSH1 0x80 PUSH1 0x40 MSTORE CALLVALUE DUP1 ISZERO PUSH3 0x11 JUMPI PUSH1 0x0 DUP1 REVERT JUMPDEST POP PUSH1 0x40 MLOAD PUSH3 0x1706 CODESIZE SUB DUP1 PUSH3 0x1706 DUP4 CODECOPY DUP2 DUP2 ADD PUSH1 0x40 MSTORE DUP2 ADD SWAP1 PUSH3 0x37 SWAP2 SWAP1 PUSH3 0x19F JUMP JUMPDEST DUP2 PUSH1 0x3 SWAP1 DUP1 MLOAD SWAP1 PUSH1 0x20 ADD SWAP1 PUSH3 0x4F SWAP3 SWAP2 SWAP1 PUSH3 0x71 JUMP JUMPDEST POP DUP1 PUSH1 0x4 SWAP1 DUP1 MLOAD SWAP1 PUSH1 0x20 ADD SWAP1 PUSH3 0x68 SWAP3 SWAP2 SWAP1 PUSH3 0x71 JUMP JUMPDEST POP POP POP PUSH3 0x3A8 JUMP JUMPDEST DUP3 DUP1 SLOAD PUSH3 0x7F SWAP1 PUSH3 0x2B9 JUMP JUMPDEST SWAP1 PUSH1 0x0 MSTORE PUSH1 0x20 PUSH1 0x0 KECCAK256 SWAP1 PUSH1 0x1F ADD PUSH1 0x20 SWAP1 DIV DUP2 ADD SWAP3 DUP3 PUSH3 0xA3 JUMPI PUSH1 0x0 DUP6 SSTORE PUSH3 0xEF JUMP JUMPDEST DUP3 PUSH1 0x1F LT PUSH3 0xBE JUMPI DUP1 MLOAD PUSH1 0xFF NOT AND DUP4 DUP1 ADD OR DUP6 SSTORE PUSH3 0xEF JUMP JUMPDEST DUP3 DUP1 ADD PUSH1 0x1 ADD DUP6 SSTORE DUP3 ISZERO PUSH3 0xEF JUMPI SWAP2 DUP3 ADD JUMPDEST DUP3 DUP2 GT ISZERO PUSH3 0xEE JUMPI DUP3 MLOAD DUP3 SSTORE SWAP2 PUSH1 0x20 ADD SWAP2 SWAP1 PUSH1 0x1 ADD SWAP1 PUSH3 0xD1 JUMP JUMPDEST JUMPDEST POP SWAP1 POP PUSH3 0xFE SWAP2 SWAP1 PUSH3 0x102 JUMP JUMPDEST POP SWAP1 JUMP JUMPDEST JUMPDEST DUP1 DUP3 GT ISZERO PUSH3 0x11D JUMPI PUSH1 0x0 DUP2 PUSH1 0x0 SWAP1 SSTORE POP PUSH1 0x1 ADD PUSH3 0x103 JUMP JUMPDEST POP SWAP1 JUMP JUMPDEST PUSH1 0x0 PUSH3 0x138 PUSH3 0x132 DUP5 PUSH3 0x24D JUMP JUMPDEST PUSH3 0x224 JUMP JUMPDEST SWAP1 POP DUP3 DUP2 MSTORE PUSH1 0x20 DUP2 ADD DUP5 DUP5 DUP5 ADD GT ISZERO PUSH3 0x157 JUMPI PUSH3 0x156 PUSH3 0x388 JUMP JUMPDEST JUMPDEST PUSH3 0x164 DUP5 DUP3 DUP6 PUSH3 0x283 JUMP JUMPDEST POP SWAP4 SWAP3 POP POP POP JUMP JUMPDEST PUSH1 0x0 DUP3 PUSH1 0x1F DUP4 ADD SLT PUSH3 0x184 JUMPI PUSH3 0x183 PUSH3 0x383 JUMP JUMPDEST JUMPDEST DUP2 MLOAD PUSH3 0x196 DUP5 DUP3 PUSH1 0x20 DUP7 ADD PUSH3 0x121 JUMP JUMPDEST SWAP2 POP POP SWAP3 SWAP2 POP POP JUMP JUMPDEST PUSH1 0x0 DUP1 PUSH1 0x40 DUP4 DUP6 SUB SLT ISZERO PUSH3 0x1B9 JUMPI PUSH3 0x1B8 PUSH3 0x392 JUMP JUMPDEST JUMPDEST PUSH1 0x0 DUP4 ADD MLOAD PUSH8 0xFFFFFFFFFFFFFFFF DUP2 GT ISZERO PUSH3 0x1DA JUMPI PUSH3 0x1D9 PUSH3 0x38D JUMP JUMPDEST JUMPDEST PUSH3 0x1E8 DUP6 DUP3 DUP7 ADD PUSH3 0x16C JUMP JUMPDEST SWAP3 POP POP PUSH1 0x20 DUP4 ADD MLOAD PUSH8 0xFFFFFFFFFFFFFFFF DUP2 GT ISZERO PUSH3 0x20C JUMPI PUSH3 0x20B PUSH3 0x38D JUMP JUMPDEST JUMPDEST PUSH3 0x21A DUP6 DUP3 DUP7 ADD PUSH3 0x16C JUMP JUMPDEST SWAP2 POP POP SWAP3 POP SWAP3 SWAP1 POP JUMP JUMPDEST PUSH1 0x0 PUSH3 0x230 PUSH3 0x243 JUMP JUMPDEST SWAP1 POP PUSH3 0x23E DUP3 DUP3 PUSH3 0x2EF JUMP JUMPDEST SWAP2 SWAP1 POP JUMP JUMPDEST PUSH1 0x0 PUSH1 0x40 MLOAD SWAP1 POP SWAP1 JUMP JUMPDEST PUSH1 0x0 PUSH8 0xFFFFFFFFFFFFFFFF DUP3 GT ISZERO PUSH3 0x26B JUMPI PUSH3 0x26A PUSH3 0x354 JUMP JUMPDEST JUMPDEST PUSH3 0x276 DUP3 PUSH3 0x397 JUMP JUMPDEST SWAP1 POP PUSH1 0x20 DUP2 ADD SWAP1 POP SWAP2 SWAP1 POP JUMP JUMPDEST PUSH1 0x0 JUMPDEST DUP4 DUP2 LT ISZERO PUSH3 0x2A3 JUMPI DUP1 DUP3 ADD MLOAD DUP2 DUP5 ADD MSTORE PUSH1 0x20 DUP2 ADD SWAP1 POP PUSH3 0x286 JUMP JUMPDEST DUP4 DUP2 GT ISZERO PUSH3 0x2B3 JUMPI PUSH1 0x0 DUP5 DUP5 ADD MSTORE JUMPDEST POP POP POP POP JUMP JUMPDEST PUSH1 0x0 PUSH1 0x2 DUP3 DIV SWAP1 POP PUSH1 0x1 DUP3 AND DUP1 PUSH3 0x2D2 JUMPI PUSH1 0x7F DUP3 AND SWAP2 POP JUMPDEST PUSH1 0x20 DUP3 LT DUP2 EQ ISZERO PUSH3 0x2E9 JUMPI PUSH3 0x2E8 PUSH3 0x325 JUMP JUMPDEST JUMPDEST POP SWAP2 SWAP1 POP JUMP JUMPDEST PUSH3 0x2FA DUP3 PUSH3 0x397 JUMP JUMPDEST DUP2 ADD DUP2 DUP2 LT PUSH8 0xFFFFFFFFFFFFFFFF DUP3 GT OR ISZERO PUSH3 0x31C JUMPI PUSH3 0x31B PUSH3 0x354 JUMP JUMPDEST JUMPDEST DUP1 PUSH1 0x40 MSTORE POP POP POP JUMP JUMPDEST PUSH32 0x4E487B7100000000000000000000000000000000000000000000000000000000 PUSH1 0x0 MSTORE PUSH1 0x22 PUSH1 0x4 MSTORE PUSH1 0x24 PUSH1 0x0 REVERT JUMPDEST PUSH32 0x4E487B7100000000000000000000000000000000000000000000000000000000 PUSH1 0x0 MSTORE PUSH1 0x41 PUSH1 0x4 MSTORE PUSH1 0x24 PUSH1 0x0 REVERT JUMPDEST PUSH1 0x0 DUP1 REVERT JUMPDEST PUSH1 0x0 DUP1 REVERT JUMPDEST PUSH1 0x0 DUP1 REVERT JUMPDEST PUSH1 0x0 DUP1 REVERT JUMPDEST PUSH1 0x0 PUSH1 0x1F NOT PUSH1 0x1F DUP4 ADD AND SWAP1 POP SWAP2 SWAP1 POP JUMP JUMPDEST PUSH2 0x134E DUP1 PUSH3 0x3B8 PUSH1 0x0 CODECOPY PUSH1 0x0 RETURN INVALID PUSH1 0x80 PUSH1 0x40 MSTORE CALLVALUE DUP1 ISZERO PUSH2 0x10 JUMPI PUSH1 0x0 DUP1 REVERT JUMPDEST POP PUSH1 0x4 CALLDATASIZE LT PUSH2 0xA9 JUMPI PUSH1 0x0 CALLDATALOAD PUSH1 0xE0 SHR DUP1 PUSH4 0x39509351 GT PUSH2 0x71 JUMPI DUP1 PUSH4 0x39509351 EQ PUSH2 0x168 JUMPI DUP1 PUSH4 0x70A08231 EQ PUSH2 0x198 JUMPI DUP1 PUSH4 0x95D89B41 EQ PUSH2 0x1C8 JUMPI DUP1 PUSH4 0xA457C2D7 EQ PUSH2 0x1E6 JUMPI DUP1 PUSH4 0xA9059CBB EQ PUSH2 0x216 JUMPI DUP1 PUSH4 0xDD62ED3E EQ PUSH2 0x246 JUMPI PUSH2 0xA9 JUMP JUMPDEST DUP1 PUSH4 0x6FDDE03 EQ PUSH2 0xAE JUMPI DUP1 PUSH4 0x95EA7B3 EQ PUSH2 0xCC JUMPI DUP1 PUSH4 0x18160DDD EQ PUSH2 0xFC JUMPI DUP1 PUSH4 0x23B872DD EQ PUSH2 0x11A JUMPI DUP1 PUSH4 0x313CE567 EQ PUSH2 0x14A JUMPI JUMPDEST PUSH1 0x0 DUP1 REVERT JUMPDEST PUSH2 0xB6 PUSH2 0x276 JUMP JUMPDEST PUSH1 0x40 MLOAD PUSH2 0xC3 SWAP2 SWAP1 PUSH2 0xE0F JUMP JUMPDEST PUSH1 0x40 MLOAD DUP1 SWAP2 SUB SWAP1 RETURN JUMPDEST PUSH2 0xE6 PUSH1 0x4 DUP1 CALLDATASIZE SUB DUP2 ADD SWAP1 PUSH2 0xE1 SWAP2 SWAP1 PUSH2 0xC59 JUMP JUMPDEST PUSH2 0x308 JUMP JUMPDEST PUSH1 0x40 MLOAD PUSH2 0xF3 SWAP2 SWAP1 PUSH2 0xDF4 JUMP JUMPDEST PUSH1 0x40 MLOAD DUP1 SWAP2 SUB SWAP1 RETURN JUMPDEST PUSH2 0x104 PUSH2 0x32B JUMP JUMPDEST PUSH1 0x40 MLOAD PUSH2 0x111 SWAP2 SWAP1 PUSH2 0xF11 JUMP JUMPDEST PUSH1 0x40 MLOAD DUP1 SWAP2 SUB SWAP1 RETURN JUMPDEST PUSH2 0x134 PUSH1 0x4 DUP1 CALLDATASIZE SUB DUP2 ADD SWAP1 PUSH2 0x12F SWAP2 SWAP1 PUSH2 0xC06 JUMP JUMPDEST PUSH2 0x335 JUMP JUMPDEST PUSH1 0x40 MLOAD PUSH2 0x141 SWAP2 SWAP1 PUSH2 0xDF4 JUMP JUMPDEST PUSH1 0x40 MLOAD DUP1 SWAP2 SUB SWAP1 RETURN JUMPDEST PUSH2 0x152 PUSH2 0x364 JUMP JUMPDEST PUSH1 0x40 MLOAD PUSH2 0x15F SWAP2 SWAP1 PUSH2 0xF2C JUMP JUMPDEST PUSH1 0x40 MLOAD DUP1 SWAP2 SUB SWAP1 RETURN JUMPDEST PUSH2 0x182 PUSH1 0x4 DUP1 CALLDATASIZE SUB DUP2 ADD SWAP1 PUSH2 0x17D SWAP2 SWAP1 PUSH2 0xC59 JUMP JUMPDEST PUSH2 0x36D JUMP JUMPDEST PUSH1 0x40 MLOAD PUSH2 0x18F SWAP2 SWAP1 PUSH2 0xDF4 JUMP JUMPDEST PUSH1 0x40 MLOAD DUP1 SWAP2 SUB SWAP1 RETURN JUMPDEST PUSH2 0x1B2 PUSH1 0x4 DUP1 CALLDATASIZE SUB DUP2 ADD SWAP1 PUSH2 0x1AD SWAP2 SWAP1 PUSH2 0xB99 JUMP JUMPDEST PUSH2 0x417 JUMP JUMPDEST PUSH1 0x40 MLOAD PUSH2 0x1BF SWAP2 SWAP1 PUSH2 0xF11 JUMP JUMPDEST PUSH1 0x40 MLOAD DUP1 SWAP2 SUB SWAP1 RETURN JUMPDEST PUSH2 0x1D0 PUSH2 0x45F JUMP JUMPDEST PUSH1 0x40 MLOAD PUSH2 0x1DD SWAP2 SWAP1 PUSH2 0xE0F JUMP JUMPDEST PUSH1 0x40 MLOAD DUP1 SWAP2 SUB SWAP1 RETURN JUMPDEST PUSH2 0x200 PUSH1 0x4 DUP1 CALLDATASIZE SUB DUP2 ADD SWAP1 PUSH2 0x1FB SWAP2 SWAP1 PUSH2 0xC59 JUMP JUMPDEST PUSH2 0x4F1 JUMP JUMPDEST PUSH1 0x40 MLOAD PUSH2 0x20D SWAP2 SWAP1 PUSH2 0xDF4 JUMP JUMPDEST PUSH1 0x40 MLOAD DUP1 SWAP2 SUB SWAP1 RETURN JUMPDEST PUSH2 0x230 PUSH1 0x4 DUP1 CALLDATASIZE SUB DUP2 ADD SWAP1 PUSH2 0x22B SWAP2 SWAP1 PUSH2 0xC59 JUMP JUMPDEST PUSH2 0x5DB JUMP JUMPDEST PUSH1 0x40 MLOAD PUSH2 0x23D SWAP2 SWAP1 PUSH2 0xDF4 JUMP JUMPDEST PUSH1 0x40 MLOAD DUP1 SWAP2 SUB SWAP1 RETURN JUMPDEST PUSH2 0x260 PUSH1 0x4 DUP1 CALLDATASIZE SUB DUP2 ADD SWAP1 PUSH2 0x25B SWAP2 SWAP1 PUSH2 0xBC6 JUMP JUMPDEST PUSH2 0x5FE JUMP JUMPDEST PUSH1 0x40 MLOAD PUSH2 0x26D SWAP2 SWAP1 PUSH2 0xF11 JUMP JUMPDEST PUSH1 0x40 MLOAD DUP1 SWAP2 SUB SWAP1 RETURN JUMPDEST PUSH1 0x60 PUSH1 0x3 DUP1 SLOAD PUSH2 0x285 SWAP1 PUSH2 0x1041 JUMP JUMPDEST DUP1 PUSH1 0x1F ADD PUSH1 0x20 DUP1 SWAP2 DIV MUL PUSH1 0x20 ADD PUSH1 0x40 MLOAD SWAP1 DUP2 ADD PUSH1 0x40 MSTORE DUP1 SWAP3 SWAP2 SWAP1 DUP2 DUP2 MSTORE PUSH1 0x20 ADD DUP3 DUP1 SLOAD PUSH2 0x2B1 SWAP1 PUSH2 0x1041 JUMP JUMPDEST DUP1 ISZERO PUSH2 0x2FE JUMPI DUP1 PUSH1 0x1F LT PUSH2 0x2D3 JUMPI PUSH2 0x100 DUP1 DUP4 SLOAD DIV MUL DUP4 MSTORE SWAP2 PUSH1 0x20 ADD SWAP2 PUSH2 0x2FE JUMP JUMPDEST DUP3 ADD SWAP2 SWAP1 PUSH1 0x0 MSTORE PUSH1 0x20 PUSH1 0x0 KECCAK256 SWAP1 JUMPDEST DUP2 SLOAD DUP2 MSTORE SWAP1 PUSH1 0x1 ADD SWAP1 PUSH1 0x20 ADD DUP1 DUP4 GT PUSH2 0x2E1 JUMPI DUP3 SWAP1 SUB PUSH1 0x1F AND DUP3 ADD SWAP2 JUMPDEST POP POP POP POP POP SWAP1 POP SWAP1 JUMP JUMPDEST PUSH1 0x0 DUP1 PUSH2 0x313 PUSH2 0x685 JUMP JUMPDEST SWAP1 POP PUSH2 0x320 DUP2 DUP6 DUP6 PUSH2 0x68D JUMP JUMPDEST PUSH1 0x1 SWAP2 POP POP SWAP3 SWAP2 POP POP JUMP JUMPDEST PUSH1 0x0 PUSH1 0x2 SLOAD SWAP1 POP SWAP1 JUMP JUMPDEST PUSH1 0x0 DUP1 PUSH2 0x340 PUSH2 0x685 JUMP JUMPDEST SWAP1 POP PUSH2 0x34D DUP6 DUP3 DUP6 PUSH2 0x858 JUMP JUMPDEST PUSH2 0x358 DUP6 DUP6 DUP6 PUSH2 0x8E4 JUMP JUMPDEST PUSH1 0x1 SWAP2 POP POP SWAP4 SWAP3 POP POP POP JUMP JUMPDEST PUSH1 0x0 PUSH1 0x12 SWAP1 POP SWAP1 JUMP JUMPDEST PUSH1 0x0 DUP1 PUSH2 0x378 PUSH2 0x685 JUMP JUMPDEST SWAP1 POP PUSH2 0x40C DUP2 DUP6 DUP6 PUSH1 0x1 PUSH1 0x0 DUP7 PUSH20 0xFFFFFFFFFFFFFFFFFFFFFFFFFFFFFFFFFFFFFFFF AND PUSH20 0xFFFFFFFFFFFFFFFFFFFFFFFFFFFFFFFFFFFFFFFF AND DUP2 MSTORE PUSH1 0x20 ADD SWAP1 DUP2 MSTORE PUSH1 0x20 ADD PUSH1 0x0 KECCAK256 PUSH1 0x0 DUP10 PUSH20 0xFFFFFFFFFFFFFFFFFFFFFFFFFFFFFFFFFFFFFFFF AND PUSH20 0xFFFFFFFFFFFFFFFFFFFFFFFFFFFFFFFFFFFFFFFF AND DUP2 MSTORE PUSH1 0x20 ADD SWAP1 DUP2 MSTORE PUSH1 0x20 ADD PUSH1 0x0 KECCAK256 SLOAD PUSH2 0x407 SWAP2 SWAP1 PUSH2 0xF63 JUMP JUMPDEST PUSH2 0x68D JUMP JUMPDEST PUSH1 0x1 SWAP2 POP POP SWAP3 SWAP2 POP POP JUMP JUMPDEST PUSH1 0x0 DUP1 PUSH1 0x0 DUP4 PUSH20 0xFFFFFFFFFFFFFFFFFFFFFFFFFFFFFFFFFFFFFFFF AND PUSH20 0xFFFFFFFFFFFFFFFFFFFFFFFFFFFFFFFFFFFFFFFF AND DUP2 MSTORE PUSH1 0x20 ADD SWAP1 DUP2 MSTORE PUSH1 0x20 ADD PUSH1 0x0 KECCAK256 SLOAD SWAP1 POP SWAP2 SWAP1 POP JUMP JUMPDEST PUSH1 0x60 PUSH1 0x4 DUP1 SLOAD PUSH2 0x46E SWAP1 PUSH2 0x1041 JUMP JUMPDEST DUP1 PUSH1 0x1F ADD PUSH1 0x20 DUP1 SWAP2 DIV MUL PUSH1 0x20 ADD PUSH1 0x40 MLOAD SWAP1 DUP2 ADD PUSH1 0x40 MSTORE DUP1 SWAP3 SWAP2 SWAP1 DUP2 DUP2 MSTORE PUSH1 0x20 ADD DUP3 DUP1 SLOAD PUSH2 0x49A SWAP1 PUSH2 0x1041 JUMP JUMPDEST DUP1 ISZERO PUSH2 0x4E7 JUMPI DUP1 PUSH1 0x1F LT PUSH2 0x4BC JUMPI PUSH2 0x100 DUP1 DUP4 SLOAD DIV MUL DUP4 MSTORE SWAP2 PUSH1 0x20 ADD SWAP2 PUSH2 0x4E7 JUMP JUMPDEST DUP3 ADD SWAP2 SWAP1 PUSH1 0x0 MSTORE PUSH1 0x20 PUSH1 0x0 KECCAK256 SWAP1 JUMPDEST DUP2 SLOAD DUP2 MSTORE SWAP1 PUSH1 0x1 ADD SWAP1 PUSH1 0x20 ADD DUP1 DUP4 GT PUSH2 0x4CA JUMPI DUP3 SWAP1 SUB PUSH1 0x1F AND DUP3 ADD SWAP2 JUMPDEST POP POP POP POP POP SWAP1 POP SWAP1 JUMP JUMPDEST PUSH1 0x0 DUP1 PUSH2 0x4FC PUSH2 0x685 JUMP JUMPDEST SWAP1 POP PUSH1 0x0 PUSH1 0x1 PUSH1 0x0 DUP4 PUSH20 0xFFFFFFFFFFFFFFFFFFFFFFFFFFFFFFFFFFFFFFFF AND PUSH20 0xFFFFFFFFFFFFFFFFFFFFFFFFFFFFFFFFFFFFFFFF AND DUP2 MSTORE PUSH1 0x20 ADD SWAP1 DUP2 MSTORE PUSH1 0x20 ADD PUSH1 0x0 KECCAK256 PUSH1 0x0 DUP7 PUSH20 0xFFFFFFFFFFFFFFFFFFFFFFFFFFFFFFFFFFFFFFFF AND PUSH20 0xFFFFFFFFFFFFFFFFFFFFFFFFFFFFFFFFFFFFFFFF AND DUP2 MSTORE PUSH1 0x20 ADD SWAP1 DUP2 MSTORE PUSH1 0x20 ADD PUSH1 0x0 KECCAK256 SLOAD SWAP1 POP DUP4 DUP2 LT ISZERO PUSH2 0x5C2 JUMPI PUSH1 0x40 MLOAD PUSH32 0x8C379A000000000000000000000000000000000000000000000000000000000 DUP2 MSTORE PUSH1 0x4 ADD PUSH2 0x5B9 SWAP1 PUSH2 0xEF1 JUMP JUMPDEST PUSH1 0x40 MLOAD DUP1 SWAP2 SUB SWAP1 REVERT JUMPDEST PUSH2 0x5CF DUP3 DUP7 DUP7 DUP5 SUB PUSH2 0x68D JUMP JUMPDEST PUSH1 0x1 SWAP3 POP POP POP SWAP3 SWAP2 POP POP JUMP JUMPDEST PUSH1 0x0 DUP1 PUSH2 0x5E6 PUSH2 0x685 JUMP JUMPDEST SWAP1 POP PUSH2 0x5F3 DUP2 DUP6 DUP6 PUSH2 0x8E4 JUMP JUMPDEST PUSH1 0x1 SWAP2 POP POP SWAP3 SWAP2 POP POP JUMP JUMPDEST PUSH1 0x0 PUSH1 0x1 PUSH1 0x0 DUP5 PUSH20 0xFFFFFFFFFFFFFFFFFFFFFFFFFFFFFFFFFFFFFFFF AND PUSH20 0xFFFFFFFFFFFFFFFFFFFFFFFFFFFFFFFFFFFFFFFF AND DUP2 MSTORE PUSH1 0x20 ADD SWAP1 DUP2 MSTORE PUSH1 0x20 ADD PUSH1 0x0 KECCAK256 PUSH1 0x0 DUP4 PUSH20 0xFFFFFFFFFFFFFFFFFFFFFFFFFFFFFFFFFFFFFFFF AND PUSH20 0xFFFFFFFFFFFFFFFFFFFFFFFFFFFFFFFFFFFFFFFF AND DUP2 MSTORE PUSH1 0x20 ADD SWAP1 DUP2 MSTORE PUSH1 0x20 ADD PUSH1 0x0 KECCAK256 SLOAD SWAP1 POP SWAP3 SWAP2 POP POP JUMP JUMPDEST PUSH1 0x0 CALLER SWAP1 POP SWAP1 JUMP JUMPDEST PUSH1 0x0 PUSH20 0xFFFFFFFFFFFFFFFFFFFFFFFFFFFFFFFFFFFFFFFF AND DUP4 PUSH20 0xFFFFFFFFFFFFFFFFFFFFFFFFFFFFFFFFFFFFFFFF AND EQ ISZERO PUSH2 0x6FD JUMPI PUSH1 0x40 MLOAD PUSH32 0x8C379A000000000000000000000000000000000000000000000000000000000 DUP2 MSTORE PUSH1 0x4 ADD PUSH2 0x6F4 SWAP1 PUSH2 0xED1 JUMP JUMPDEST PUSH1 0x40 MLOAD DUP1 SWAP2 SUB SWAP1 REVERT JUMPDEST PUSH1 0x0 PUSH20 0xFFFFFFFFFFFFFFFFFFFFFFFFFFFFFFFFFFFFFFFF AND DUP3 PUSH20 0xFFFFFFFFFFFFFFFFFFFFFFFFFFFFFFFFFFFFFFFF AND EQ ISZERO PUSH2 0x76D JUMPI PUSH1 0x40 MLOAD PUSH32 0x8C379A000000000000000000000000000000000000000000000000000000000 DUP2 MSTORE PUSH1 0x4 ADD PUSH2 0x764 SWAP1 PUSH2 0xE51 JUMP JUMPDEST PUSH1 0x40 MLOAD DUP1 SWAP2 SUB SWAP1 REVERT JUMPDEST DUP1 PUSH1 0x1 PUSH1 0x0 DUP6 PUSH20 0xFFFFFFFFFFFFFFFFFFFFFFFFFFFFFFFFFFFFFFFF AND PUSH20 0xFFFFFFFFFFFFFFFFFFFFFFFFFFFFFFFFFFFFFFFF AND DUP2 MSTORE PUSH1 0x20 ADD SWAP1 DUP2 MSTORE PUSH1 0x20 ADD PUSH1 0x0 KECCAK256 PUSH1 0x0 DUP5 PUSH20 0xFFFFFFFFFFFFFFFFFFFFFFFFFFFFFFFFFFFFFFFF AND PUSH20 0xFFFFFFFFFFFFFFFFFFFFFFFFFFFFFFFFFFFFFFFF AND DUP2 MSTORE PUSH1 0x20 ADD SWAP1 DUP2 MSTORE PUSH1 0x20 ADD PUSH1 0x0 KECCAK256 DUP2 SWAP1 SSTORE POP DUP2 PUSH20 0xFFFFFFFFFFFFFFFFFFFFFFFFFFFFFFFFFFFFFFFF AND DUP4 PUSH20 0xFFFFFFFFFFFFFFFFFFFFFFFFFFFFFFFFFFFFFFFF AND PUSH32 0x8C5BE1E5EBEC7D5BD14F71427D1E84F3DD0314C0F7B2291E5B200AC8C7C3B925 DUP4 PUSH1 0x40 MLOAD PUSH2 0x84B SWAP2 SWAP1 PUSH2 0xF11 JUMP JUMPDEST PUSH1 0x40 MLOAD DUP1 SWAP2 SUB SWAP1 LOG3 POP POP POP JUMP JUMPDEST PUSH1 0x0 PUSH2 0x864 DUP5 DUP5 PUSH2 0x5FE JUMP JUMPDEST SWAP1 POP PUSH32 0xFFFFFFFFFFFFFFFFFFFFFFFFFFFFFFFFFFFFFFFFFFFFFFFFFFFFFFFFFFFFFFFF DUP2 EQ PUSH2 0x8DE JUMPI DUP2 DUP2 LT ISZERO PUSH2 0x8D0 JUMPI PUSH1 0x40 MLOAD PUSH32 0x8C379A000000000000000000000000000000000000000000000000000000000 DUP2 MSTORE PUSH1 0x4 ADD PUSH2 0x8C7 SWAP1 PUSH2 0xE71 JUMP JUMPDEST PUSH1 0x40 MLOAD DUP1 SWAP2 SUB SWAP1 REVERT JUMPDEST PUSH2 0x8DD DUP5 DUP5 DUP5 DUP5 SUB PUSH2 0x68D JUMP JUMPDEST JUMPDEST POP POP POP POP JUMP JUMPDEST PUSH1 0x0 PUSH20 0xFFFFFFFFFFFFFFFFFFFFFFFFFFFFFFFFFFFFFFFF AND DUP4 PUSH20 0xFFFFFFFFFFFFFFFFFFFFFFFFFFFFFFFFFFFFFFFF AND EQ ISZERO PUSH2 0x954 JUMPI PUSH1 0x40 MLOAD PUSH32 0x8C379A000000000000000000000000000000000000000000000000000000000 DUP2 MSTORE PUSH1 0x4 ADD PUSH2 0x94B SWAP1 PUSH2 0xEB1 JUMP JUMPDEST PUSH1 0x40 MLOAD DUP1 SWAP2 SUB SWAP1 REVERT JUMPDEST PUSH1 0x0 PUSH20 0xFFFFFFFFFFFFFFFFFFFFFFFFFFFFFFFFFFFFFFFF AND DUP3 PUSH20 0xFFFFFFFFFFFFFFFFFFFFFFFFFFFFFFFFFFFFFFFF AND EQ ISZERO PUSH2 0x9C4 JUMPI PUSH1 0x40 MLOAD PUSH32 0x8C379A000000000000000000000000000000000000000000000000000000000 DUP2 MSTORE PUSH1 0x4 ADD PUSH2 0x9BB SWAP1 PUSH2 0xE31 JUMP JUMPDEST PUSH1 0x40 MLOAD DUP1 SWAP2 SUB SWAP1 REVERT JUMPDEST PUSH2 0x9CF DUP4 DUP4 DUP4 PUSH2 0xB65 JUMP JUMPDEST PUSH1 0x0 DUP1 PUSH1 0x0 DUP6 PUSH20 0xFFFFFFFFFFFFFFFFFFFFFFFFFFFFFFFFFFFFFFFF AND PUSH20 0xFFFFFFFFFFFFFFFFFFFFFFFFFFFFFFFFFFFFFFFF AND DUP2 MSTORE PUSH1 0x20 ADD SWAP1 DUP2 MSTORE PUSH1 0x20 ADD PUSH1 0x0 KECCAK256 SLOAD SWAP1 POP DUP2 DUP2 LT ISZERO PUSH2 0xA55 JUMPI PUSH1 0x40 MLOAD PUSH32 0x8C379A000000000000000000000000000000000000000000000000000000000 DUP2 MSTORE PUSH1 0x4 ADD PUSH2 0xA4C SWAP1 PUSH2 0xE91 JUMP JUMPDEST PUSH1 0x40 MLOAD DUP1 SWAP2 SUB SWAP1 REVERT JUMPDEST DUP2 DUP2 SUB PUSH1 0x0 DUP1 DUP7 PUSH20 0xFFFFFFFFFFFFFFFFFFFFFFFFFFFFFFFFFFFFFFFF AND PUSH20 0xFFFFFFFFFFFFFFFFFFFFFFFFFFFFFFFFFFFFFFFF AND DUP2 MSTORE PUSH1 0x20 ADD SWAP1 DUP2 MSTORE PUSH1 0x20 ADD PUSH1 0x0 KECCAK256 DUP2 SWAP1 SSTORE POP DUP2 PUSH1 0x0 DUP1 DUP6 PUSH20 0xFFFFFFFFFFFFFFFFFFFFFFFFFFFFFFFFFFFFFFFF AND PUSH20 0xFFFFFFFFFFFFFFFFFFFFFFFFFFFFFFFFFFFFFFFF AND DUP2 MSTORE PUSH1 0x20 ADD SWAP1 DUP2 MSTORE PUSH1 0x20 ADD PUSH1 0x0 KECCAK256 PUSH1 0x0 DUP3 DUP3 SLOAD PUSH2 0xAE8 SWAP2 SWAP1 PUSH2 0xF63 JUMP JUMPDEST SWAP3 POP POP DUP2 SWAP1 SSTORE POP DUP3 PUSH20 0xFFFFFFFFFFFFFFFFFFFFFFFFFFFFFFFFFFFFFFFF AND DUP5 PUSH20 0xFFFFFFFFFFFFFFFFFFFFFFFFFFFFFFFFFFFFFFFF AND PUSH32 0xDDF252AD1BE2C89B69C2B068FC378DAA952BA7F163C4A11628F55A4DF523B3EF DUP5 PUSH1 0x40 MLOAD PUSH2 0xB4C SWAP2 SWAP1 PUSH2 0xF11 JUMP JUMPDEST PUSH1 0x40 MLOAD DUP1 SWAP2 SUB SWAP1 LOG3 PUSH2 0xB5F DUP5 DUP5 DUP5 PUSH2 0xB6A JUMP JUMPDEST POP POP POP POP JUMP JUMPDEST POP POP POP JUMP JUMPDEST POP POP POP JUMP JUMPDEST PUSH1 0x0 DUP2 CALLDATALOAD SWAP1 POP PUSH2 0xB7E DUP2 PUSH2 0x12EA JUMP JUMPDEST SWAP3 SWAP2 POP POP JUMP JUMPDEST PUSH1 0x0 DUP2 CALLDATALOAD SWAP1 POP PUSH2 0xB93 DUP2 PUSH2 0x1301 JUMP JUMPDEST SWAP3 SWAP2 POP POP JUMP JUMPDEST PUSH1 0x0 PUSH1 0x20 DUP3 DUP5 SUB SLT ISZERO PUSH2 0xBAF JUMPI PUSH2 0xBAE PUSH2 0x10D1 JUMP JUMPDEST JUMPDEST PUSH1 0x0 PUSH2 0xBBD DUP5 DUP3 DUP6 ADD PUSH2 0xB6F JUMP JUMPDEST SWAP2 POP POP SWAP3 SWAP2 POP POP JUMP JUMPDEST PUSH1 0x0 DUP1 PUSH1 0x40 DUP4 DUP6 SUB SLT ISZERO PUSH2 0xBDD JUMPI PUSH2 0xBDC PUSH2 0x10D1 JUMP JUMPDEST JUMPDEST PUSH1 0x0 PUSH2 0xBEB DUP6 DUP3 DUP7 ADD PUSH2 0xB6F JUMP JUMPDEST SWAP3 POP POP PUSH1 0x20 PUSH2 0xBFC DUP6 DUP3 DUP7 ADD PUSH2 0xB6F JUMP JUMPDEST SWAP2 POP POP SWAP3 POP SWAP3 SWAP1 POP JUMP JUMPDEST PUSH1 0x0 DUP1 PUSH1 0x0 PUSH1 0x60 DUP5 DUP7 SUB SLT ISZERO PUSH2 0xC1F JUMPI PUSH2 0xC1E PUSH2 0x10D1 JUMP JUMPDEST JUMPDEST PUSH1 0x0 PUSH2 0xC2D DUP7 DUP3 DUP8 ADD PUSH2 0xB6F JUMP JUMPDEST SWAP4 POP POP PUSH1 0x20 PUSH2 0xC3E DUP7 DUP3 DUP8 ADD PUSH2 0xB6F JUMP JUMPDEST SWAP3 POP POP PUSH1 0x40 PUSH2 0xC4F DUP7 DUP3 DUP8 ADD PUSH2 0xB84 JUMP JUMPDEST SWAP2 POP POP SWAP3 POP SWAP3 POP SWAP3 JUMP JUMPDEST PUSH1 0x0 DUP1 PUSH1 0x40 DUP4 DUP6 SUB SLT ISZERO PUSH2 0xC70 JUMPI PUSH2 0xC6F PUSH2 0x10D1 JUMP JUMPDEST JUMPDEST PUSH1 0x0 PUSH2 0xC7E DUP6 DUP3 DUP7 ADD PUSH2 0xB6F JUMP JUMPDEST SWAP3 POP POP PUSH1 0x20 PUSH2 0xC8F DUP6 DUP3 DUP7 ADD PUSH2 0xB84 JUMP JUMPDEST SWAP2 POP POP SWAP3 POP SWAP3 SWAP1 POP JUMP JUMPDEST PUSH2 0xCA2 DUP2 PUSH2 0xFCB JUMP JUMPDEST DUP3 MSTORE POP POP JUMP JUMPDEST PUSH1 0x0 PUSH2 0xCB3 DUP3 PUSH2 0xF47 JUMP JUMPDEST PUSH2 0xCBD DUP2 DUP6 PUSH2 0xF52 JUMP JUMPDEST SWAP4 POP PUSH2 0xCCD DUP2 DUP6 PUSH1 0x20 DUP7 ADD PUSH2 0x100E JUMP JUMPDEST PUSH2 0xCD6 DUP2 PUSH2 0x10D6 JUMP JUMPDEST DUP5 ADD SWAP2 POP POP SWAP3 SWAP2 POP POP JUMP JUMPDEST PUSH1 0x0 PUSH2 0xCEE PUSH1 0x23 DUP4 PUSH2 0xF52 JUMP JUMPDEST SWAP2 POP PUSH2 0xCF9 DUP3 PUSH2 0x10E7 JUMP JUMPDEST PUSH1 0x40 DUP3 ADD SWAP1 POP SWAP2 SWAP1 POP JUMP JUMPDEST PUSH1 0x0 PUSH2 0xD11 PUSH1 0x22 DUP4 PUSH2 0xF52 JUMP JUMPDEST SWAP2 POP PUSH2 0xD1C DUP3 PUSH2 0x1136 JUMP JUMPDEST PUSH1 0x40 DUP3 ADD SWAP1 POP SWAP2 SWAP1 POP JUMP JUMPDEST PUSH1 0x0 PUSH2 0xD34 PUSH1 0x1D DUP4 PUSH2 0xF52 JUMP JUMPDEST SWAP2 POP PUSH2 0xD3F DUP3 PUSH2 0x1185 JUMP JUMPDEST PUSH1 0x20 DUP3 ADD SWAP1 POP SWAP2 SWAP1 POP JUMP JUMPDEST PUSH1 0x0 PUSH2 0xD57 PUSH1 0x26 DUP4 PUSH2 0xF52 JUMP JUMPDEST SWAP2 POP PUSH2 0xD62 DUP3 PUSH2 0x11AE JUMP JUMPDEST PUSH1 0x40 DUP3 ADD SWAP1 POP SWAP2 SWAP1 POP JUMP JUMPDEST PUSH1 0x0 PUSH2 0xD7A PUSH1 0x25 DUP4 PUSH2 0xF52 JUMP JUMPDEST SWAP2 POP PUSH2 0xD85 DUP3 PUSH2 0x11FD JUMP JUMPDEST PUSH1 0x40 DUP3 ADD SWAP1 POP SWAP2 SWAP1 POP JUMP JUMPDEST PUSH1 0x0 PUSH2 0xD9D PUSH1 0x24 DUP4 PUSH2 0xF52 JUMP JUMPDEST SWAP2 POP PUSH2 0xDA8 DUP3 PUSH2 0x124C JUMP JUMPDEST PUSH1 0x40 DUP3 ADD SWAP1 POP SWAP2 SWAP1 POP JUMP JUMPDEST PUSH1 0x0 PUSH2 0xDC0 PUSH1 0x25 DUP4 PUSH2 0xF52 JUMP JUMPDEST SWAP2 POP PUSH2 0xDCB DUP3 PUSH2 0x129B JUMP JUMPDEST PUSH1 0x40 DUP3 ADD SWAP1 POP SWAP2 SWAP1 POP JUMP JUMPDEST PUSH2 0xDDF DUP2 PUSH2 0xFF7 JUMP JUMPDEST DUP3 MSTORE POP POP JUMP JUMPDEST PUSH2 0xDEE DUP2 PUSH2 0x1001 JUMP JUMPDEST DUP3 MSTORE POP POP JUMP JUMPDEST PUSH1 0x0 PUSH1 0x20 DUP3 ADD SWAP1 POP PUSH2 0xE09 PUSH1 0x0 DUP4 ADD DUP5 PUSH2 0xC99 JUMP JUMPDEST SWAP3 SWAP2 POP POP JUMP JUMPDEST PUSH1 0x0 PUSH1 0x20 DUP3 ADD SWAP1 POP DUP2 DUP2 SUB PUSH1 0x0 DUP4 ADD MSTORE PUSH2 0xE29 DUP2 DUP5 PUSH2 0xCA8 JUMP JUMPDEST SWAP1 POP SWAP3 SWAP2 POP POP JUMP JUMPDEST PUSH1 0x0 PUSH1 0x20 DUP3 ADD SWAP1 POP DUP2 DUP2 SUB PUSH1 0x0 DUP4 ADD MSTORE PUSH2 0xE4A DUP2 PUSH2 0xCE1 JUMP JUMPDEST SWAP1 POP SWAP2 SWAP1 POP JUMP JUMPDEST PUSH1 0x0 PUSH1 0x20 DUP3 ADD SWAP1 POP DUP2 DUP2 SUB PUSH1 0x0 DUP4 ADD MSTORE PUSH2 0xE6A DUP2 PUSH2 0xD04 JUMP JUMPDEST SWAP1 POP SWAP2 SWAP1 POP JUMP JUMPDEST PUSH1 0x0 PUSH1 0x20 DUP3 ADD SWAP1 POP DUP2 DUP2 SUB PUSH1 0x0 DUP4 ADD MSTORE PUSH2 0xE8A DUP2 PUSH2 0xD27 JUMP JUMPDEST SWAP1 POP SWAP2 SWAP1 POP JUMP JUMPDEST PUSH1 0x0 PUSH1 0x20 DUP3 ADD SWAP1 POP DUP2 DUP2 SUB PUSH1 0x0 DUP4 ADD MSTORE PUSH2 0xEAA DUP2 PUSH2 0xD4A JUMP JUMPDEST SWAP1 POP SWAP2 SWAP1 POP JUMP JUMPDEST PUSH1 0x0 PUSH1 0x20 DUP3 ADD SWAP1 POP DUP2 DUP2 SUB PUSH1 0x0 DUP4 ADD MSTORE PUSH2 0xECA DUP2 PUSH2 0xD6D JUMP JUMPDEST SWAP1 POP SWAP2 SWAP1 POP JUMP JUMPDEST PUSH1 0x0 PUSH1 0x20 DUP3 ADD SWAP1 POP DUP2 DUP2 SUB PUSH1 0x0 DUP4 ADD MSTORE PUSH2 0xEEA DUP2 PUSH2 0xD90 JUMP JUMPDEST SWAP1 POP SWAP2 SWAP1 POP JUMP JUMPDEST PUSH1 0x0 PUSH1 0x20 DUP3 ADD SWAP1 POP DUP2 DUP2 SUB PUSH1 0x0 DUP4 ADD MSTORE PUSH2 0xF0A DUP2 PUSH2 0xDB3 JUMP JUMPDEST SWAP1 POP SWAP2 SWAP1 POP JUMP JUMPDEST PUSH1 0x0 PUSH1 0x20 DUP3 ADD SWAP1 POP PUSH2 0xF26 PUSH1 0x0 DUP4 ADD DUP5 PUSH2 0xDD6 JUMP JUMPDEST SWAP3 SWAP2 POP POP JUMP JUMPDEST PUSH1 0x0 PUSH1 0x20 DUP3 ADD SWAP1 POP PUSH2 0xF41 PUSH1 0x0 DUP4 ADD DUP5 PUSH2 0xDE5 JUMP JUMPDEST SWAP3 SWAP2 POP POP JUMP JUMPDEST PUSH1 0x0 DUP2 MLOAD SWAP1 POP SWAP2 SWAP1 POP JUMP JUMPDEST PUSH1 0x0 DUP3 DUP3 MSTORE PUSH1 0x20 DUP3 ADD SWAP1 POP SWAP3 SWAP2 POP POP JUMP JUMPDEST PUSH1 0x0 PUSH2 0xF6E DUP3 PUSH2 0xFF7 JUMP JUMPDEST SWAP2 POP PUSH2 0xF79 DUP4 PUSH2 0xFF7 JUMP JUMPDEST SWAP3 POP DUP3 PUSH32 0xFFFFFFFFFFFFFFFFFFFFFFFFFFFFFFFFFFFFFFFFFFFFFFFFFFFFFFFFFFFFFFFF SUB DUP3 GT ISZERO PUSH2 0xFAE JUMPI PUSH2 0xFAD PUSH2 0x1073 JUMP JUMPDEST JUMPDEST DUP3 DUP3 ADD SWAP1 POP SWAP3 SWAP2 POP POP JUMP JUMPDEST PUSH1 0x0 PUSH2 0xFC4 DUP3 PUSH2 0xFD7 JUMP JUMPDEST SWAP1 POP SWAP2 SWAP1 POP JUMP JUMPDEST PUSH1 0x0 DUP2 ISZERO ISZERO SWAP1 POP SWAP2 SWAP1 POP JUMP JUMPDEST PUSH1 0x0 PUSH20 0xFFFFFFFFFFFFFFFFFFFFFFFFFFFFFFFFFFFFFFFF DUP3 AND SWAP1 POP SWAP2 SWAP1 POP JUMP JUMPDEST PUSH1 0x0 DUP2 SWAP1 POP SWAP2 SWAP1 POP JUMP JUMPDEST PUSH1 0x0 PUSH1 0xFF DUP3 AND SWAP1 POP SWAP2 SWAP1 POP JUMP JUMPDEST PUSH1 0x0 JUMPDEST DUP4 DUP2 LT ISZERO PUSH2 0x102C JUMPI DUP1 DUP3 ADD MLOAD DUP2 DUP5 ADD MSTORE PUSH1 0x20 DUP2 ADD SWAP1 POP PUSH2 0x1011 JUMP JUMPDEST DUP4 DUP2 GT ISZERO PUSH2 0x103B JUMPI PUSH1 0x0 DUP5 DUP5 ADD MSTORE JUMPDEST POP POP POP POP JUMP JUMPDEST PUSH1 0x0 PUSH1 0x2 DUP3 DIV SWAP1 POP PUSH1 0x1 DUP3 AND DUP1 PUSH2 0x1059 JUMPI PUSH1 0x7F DUP3 AND SWAP2 POP JUMPDEST PUSH1 0x20 DUP3 LT DUP2 EQ ISZERO PUSH2 0x106D JUMPI PUSH2 0x106C PUSH2 0x10A2 JUMP JUMPDEST JUMPDEST POP SWAP2 SWAP1 POP JUMP JUMPDEST PUSH32 0x4E487B7100000000000000000000000000000000000000000000000000000000 PUSH1 0x0 MSTORE PUSH1 0x11 PUSH1 0x4 MSTORE PUSH1 0x24 PUSH1 0x0 REVERT JUMPDEST PUSH32 0x4E487B7100000000000000000000000000000000000000000000000000000000 PUSH1 0x0 MSTORE PUSH1 0x22 PUSH1 0x4 MSTORE PUSH1 0x24 PUSH1 0x0 REVERT JUMPDEST PUSH1 0x0 DUP1 REVERT JUMPDEST PUSH1 0x0 PUSH1 0x1F NOT PUSH1 0x1F DUP4 ADD AND SWAP1 POP SWAP2 SWAP1 POP JUMP JUMPDEST PUSH32 0x45524332303A207472616E7366657220746F20746865207A65726F2061646472 PUSH1 0x0 DUP3 ADD MSTORE PUSH32 0x6573730000000000000000000000000000000000000000000000000000000000 PUSH1 0x20 DUP3 ADD MSTORE POP JUMP JUMPDEST PUSH32 0x45524332303A20617070726F766520746F20746865207A65726F206164647265 PUSH1 0x0 DUP3 ADD MSTORE PUSH32 0x7373000000000000000000000000000000000000000000000000000000000000 PUSH1 0x20 DUP3 ADD MSTORE POP JUMP JUMPDEST PUSH32 0x45524332303A20696E73756666696369656E7420616C6C6F77616E6365000000 PUSH1 0x0 DUP3 ADD MSTORE POP JUMP JUMPDEST PUSH32 0x45524332303A207472616E7366657220616D6F756E7420657863656564732062 PUSH1 0x0 DUP3 ADD MSTORE PUSH32 0x616C616E63650000000000000000000000000000000000000000000000000000 PUSH1 0x20 DUP3 ADD MSTORE POP JUMP JUMPDEST PUSH32 0x45524332303A207472616E736665722066726F6D20746865207A65726F206164 PUSH1 0x0 DUP3 ADD MSTORE PUSH32 0x6472657373000000000000000000000000000000000000000000000000000000 PUSH1 0x20 DUP3 ADD MSTORE POP JUMP JUMPDEST PUSH32 0x45524332303A20617070726F76652066726F6D20746865207A65726F20616464 PUSH1 0x0 DUP3 ADD MSTORE PUSH32 0x7265737300000000000000000000000000000000000000000000000000000000 PUSH1 0x20 DUP3 ADD MSTORE POP JUMP JUMPDEST PUSH32 0x45524332303A2064656372656173656420616C6C6F77616E63652062656C6F77 PUSH1 0x0 DUP3 ADD MSTORE PUSH32 0x207A65726F000000000000000000000000000000000000000000000000000000 PUSH1 0x20 DUP3 ADD MSTORE POP JUMP JUMPDEST PUSH2 0x12F3 DUP2 PUSH2 0xFB9 JUMP JUMPDEST DUP2 EQ PUSH2 0x12FE JUMPI PUSH1 0x0 DUP1 REVERT JUMPDEST POP JUMP JUMPDEST PUSH2 0x130A DUP2 PUSH2 0xFF7 JUMP JUMPDEST DUP2 EQ PUSH2 0x1315 JUMPI PUSH1 0x0 DUP1 REVERT JUMPDEST POP JUMP INVALID LOG2 PUSH5 0x6970667358 0x22 SLT KECCAK256 SSTORE 0xC8 SWAP16 0xA6 STOP SHL 0xDE 0xE3 0xC7 DUP12 PUSH20 0x32EB8B749209749EB54AE468DA2D4E8A101D1D9B 0xD2 PUSH5 0x736F6C6343 STOP ADDMOD SMOD STOP CALLER "
				},
				"gasEstimates": {
					"creation": {
						"codeDepositCost": "988400",
						"executionCost": "infinite",
						"totalCost": "infinite"
					},
					"external": {
						"allowance(address,address)": "infinite",
						"approve(address,uint256)": "infinite",
						"balanceOf(address)": "2863",
						"decimals()": "432",
						"decreaseAllowance(address,uint256)": "infinite",
						"increaseAllowance(address,uint256)": "infinite",
						"name()": "infinite",
						"symbol()": "infinite",
						"totalSupply()": "2482",
						"transfer(address,uint256)": "infinite",
						"transferFrom(address,address,uint256)": "infinite"
					},
					"internal": {
						"_afterTokenTransfer(address,address,uint256)": "15",
						"_approve(address,address,uint256)": "infinite",
						"_beforeTokenTransfer(address,address,uint256)": "15",
						"_burn(address,uint256)": "infinite",
						"_mint(address,uint256)": "infinite",
						"_spendAllowance(address,address,uint256)": "infinite",
						"_transfer(address,address,uint256)": "infinite"
					}
				},
				"methodIdentifiers": {
					"allowance(address,address)": "dd62ed3e",
					"approve(address,uint256)": "095ea7b3",
					"balanceOf(address)": "70a08231",
					"decimals()": "313ce567",
					"decreaseAllowance(address,uint256)": "a457c2d7",
					"increaseAllowance(address,uint256)": "39509351",
					"name()": "06fdde03",
					"symbol()": "95d89b41",
					"totalSupply()": "18160ddd",
					"transfer(address,uint256)": "a9059cbb",
					"transferFrom(address,address,uint256)": "23b872dd"
				}
			},
			"userdoc": {
				"kind": "user",
				"methods": {},
				"version": 1
			}
		}
	}
}