{
	"ERC20_flat.sol": {
		"DOLS": {
			"abi": [
				{
					"inputs": [],
					"stateMutability": "nonpayable",
					"type": "constructor"
				},
				{
					"anonymous": false,
					"inputs": [
						{
							"indexed": true,
							"internalType": "address",
							"name": "owner",
							"type": "address"
						},
						{
							"indexed": true,
							"internalType": "address",
							"name": "spender",
							"type": "address"
						},
						{
							"indexed": false,
							"internalType": "uint256",
							"name": "value",
							"type": "uint256"
						}
					],
					"name": "Approval",
					"type": "event"
				},
				{
					"anonymous": false,
					"inputs": [
						{
							"indexed": true,
							"internalType": "address",
							"name": "previousOwner",
							"type": "address"
						},
						{
							"indexed": true,
							"internalType": "address",
							"name": "newOwner",
							"type": "address"
						}
					],
					"name": "OwnershipTransferred",
					"type": "event"
				},
				{
					"anonymous": false,
					"inputs": [
						{
							"indexed": true,
							"internalType": "address",
							"name": "from",
							"type": "address"
						},
						{
							"indexed": true,
							"internalType": "address",
							"name": "to",
							"type": "address"
						},
						{
							"indexed": false,
							"internalType": "uint256",
							"name": "value",
							"type": "uint256"
						}
					],
					"name": "Transfer",
					"type": "event"
				},
				{
					"inputs": [
						{
							"internalType": "address",
							"name": "owner",
							"type": "address"
						},
						{
							"internalType": "address",
							"name": "spender",
							"type": "address"
						}
					],
					"name": "allowance",
					"outputs": [
						{
							"internalType": "uint256",
							"name": "",
							"type": "uint256"
						}
					],
					"stateMutability": "view",
					"type": "function"
				},
				{
					"inputs": [
						{
							"internalType": "address",
							"name": "spender",
							"type": "address"
						},
						{
							"internalType": "uint256",
							"name": "amount",
							"type": "uint256"
						}
					],
					"name": "approve",
					"outputs": [
						{
							"internalType": "bool",
							"name": "",
							"type": "bool"
						}
					],
					"stateMutability": "nonpayable",
					"type": "function"
				},
				{
					"inputs": [
						{
							"internalType": "address",
							"name": "account",
							"type": "address"
						}
					],
					"name": "balanceOf",
					"outputs": [
						{
							"internalType": "uint256",
							"name": "",
							"type": "uint256"
						}
					],
					"stateMutability": "view",
					"type": "function"
				},
				{
					"inputs": [
						{
							"internalType": "address",
							"name": "receiver",
							"type": "address"
						},
						{
							"internalType": "uint256",
							"name": "amount",
							"type": "uint256"
						}
					],
					"name": "buyTokens",
					"outputs": [
						{
							"internalType": "bool",
							"name": "",
							"type": "bool"
						}
					],
					"stateMutability": "payable",
					"type": "function"
				},
				{
					"inputs": [],
					"name": "decimals",
					"outputs": [
						{
							"internalType": "uint8",
							"name": "",
							"type": "uint8"
						}
					],
					"stateMutability": "view",
					"type": "function"
				},
				{
					"inputs": [
						{
							"internalType": "address",
							"name": "spender",
							"type": "address"
						},
						{
							"internalType": "uint256",
							"name": "subtractedValue",
							"type": "uint256"
						}
					],
					"name": "decreaseAllowance",
					"outputs": [
						{
							"internalType": "bool",
							"name": "",
							"type": "bool"
						}
					],
					"stateMutability": "nonpayable",
					"type": "function"
				},
				{
					"inputs": [
						{
							"internalType": "address",
							"name": "spender",
							"type": "address"
						},
						{
							"internalType": "uint256",
							"name": "addedValue",
							"type": "uint256"
						}
					],
					"name": "increaseAllowance",
					"outputs": [
						{
							"internalType": "bool",
							"name": "",
							"type": "bool"
						}
					],
					"stateMutability": "nonpayable",
					"type": "function"
				},
				{
					"inputs": [
						{
							"internalType": "address",
							"name": "to",
							"type": "address"
						},
						{
							"internalType": "uint256",
							"name": "amount",
							"type": "uint256"
						}
					],
					"name": "mint",
					"outputs": [],
					"stateMutability": "nonpayable",
					"type": "function"
				},
				{
					"inputs": [],
					"name": "name",
					"outputs": [
						{
							"internalType": "string",
							"name": "",
							"type": "string"
						}
					],
					"stateMutability": "view",
					"type": "function"
				},
				{
					"inputs": [],
					"name": "owner",
					"outputs": [
						{
							"internalType": "address",
							"name": "",
							"type": "address"
						}
					],
					"stateMutability": "view",
					"type": "function"
				},
				{
					"inputs": [],
					"name": "renounceOwnership",
					"outputs": [],
					"stateMutability": "nonpayable",
					"type": "function"
				},
				{
					"inputs": [],
					"name": "symbol",
					"outputs": [
						{
							"internalType": "string",
							"name": "",
							"type": "string"
						}
					],
					"stateMutability": "view",
					"type": "function"
				},
				{
					"inputs": [],
					"name": "tokensPerEth",
					"outputs": [
						{
							"internalType": "uint256",
							"name": "",
							"type": "uint256"
						}
					],
					"stateMutability": "view",
					"type": "function"
				},
				{
					"inputs": [],
					"name": "totalSupply",
					"outputs": [
						{
							"internalType": "uint256",
							"name": "",
							"type": "uint256"
						}
					],
					"stateMutability": "view",
					"type": "function"
				},
				{
					"inputs": [
						{
							"internalType": "address",
							"name": "to",
							"type": "address"
						},
						{
							"internalType": "uint256",
							"name": "amount",
							"type": "uint256"
						}
					],
					"name": "transfer",
					"outputs": [
						{
							"internalType": "bool",
							"name": "",
							"type": "bool"
						}
					],
					"stateMutability": "nonpayable",
					"type": "function"
				},
				{
					"inputs": [
						{
							"internalType": "address",
							"name": "from",
							"type": "address"
						},
						{
							"internalType": "address",
							"name": "to",
							"type": "address"
						},
						{
							"internalType": "uint256",
							"name": "amount",
							"type": "uint256"
						}
					],
					"name": "transferFrom",
					"outputs": [
						{
							"internalType": "bool",
							"name": "",
							"type": "bool"
						}
					],
					"stateMutability": "nonpayable",
					"type": "function"
				},
				{
					"inputs": [
						{
							"internalType": "address",
							"name": "newOwner",
							"type": "address"
						}
					],
					"name": "transferOwnership",
					"outputs": [],
					"stateMutability": "nonpayable",
					"type": "function"
				}
			],
			"devdoc": {
				"kind": "dev",
				"methods": {
					"allowance(address,address)": {
						"details": "See {IERC20-allowance}."
					},
					"approve(address,uint256)": {
						"details": "See {IERC20-approve}. NOTE: If `amount` is the maximum `uint256`, the allowance is not updated on `transferFrom`. This is semantically equivalent to an infinite approval. Requirements: - `spender` cannot be the zero address."
					},
					"balanceOf(address)": {
						"details": "See {IERC20-balanceOf}."
					},
					"decimals()": {
						"details": "Returns the number of decimals used to get its user representation. For example, if `decimals` equals `2`, a balance of `505` tokens should be displayed to a user as `5.05` (`505 / 10 ** 2`). Tokens usually opt for a value of 18, imitating the relationship between Ether and Wei. This is the value {ERC20} uses, unless this function is overridden; NOTE: This information is only used for _display_ purposes: it in no way affects any of the arithmetic of the contract, including {IERC20-balanceOf} and {IERC20-transfer}."
					},
					"decreaseAllowance(address,uint256)": {
						"details": "Atomically decreases the allowance granted to `spender` by the caller. This is an alternative to {approve} that can be used as a mitigation for problems described in {IERC20-approve}. Emits an {Approval} event indicating the updated allowance. Requirements: - `spender` cannot be the zero address. - `spender` must have allowance for the caller of at least `subtractedValue`."
					},
					"increaseAllowance(address,uint256)": {
						"details": "Atomically increases the allowance granted to `spender` by the caller. This is an alternative to {approve} that can be used as a mitigation for problems described in {IERC20-approve}. Emits an {Approval} event indicating the updated allowance. Requirements: - `spender` cannot be the zero address."
					},
					"name()": {
						"details": "Returns the name of the token."
					},
					"owner()": {
						"details": "Returns the address of the current owner."
					},
					"renounceOwnership()": {
						"details": "Leaves the contract without owner. It will not be possible to call `onlyOwner` functions anymore. Can only be called by the current owner. NOTE: Renouncing ownership will leave the contract without an owner, thereby removing any functionality that is only available to the owner."
					},
					"symbol()": {
						"details": "Returns the symbol of the token, usually a shorter version of the name."
					},
					"totalSupply()": {
						"details": "See {IERC20-totalSupply}."
					},
					"transfer(address,uint256)": {
						"details": "See {IERC20-transfer}. Requirements: - `to` cannot be the zero address. - the caller must have a balance of at least `amount`."
					},
					"transferFrom(address,address,uint256)": {
						"details": "See {IERC20-transferFrom}. Emits an {Approval} event indicating the updated allowance. This is not required by the EIP. See the note at the beginning of {ERC20}. NOTE: Does not update the allowance if the current allowance is the maximum `uint256`. Requirements: - `from` and `to` cannot be the zero address. - `from` must have a balance of at least `amount`. - the caller must have allowance for ``from``'s tokens of at least `amount`."
					},
					"transferOwnership(address)": {
						"details": "Transfers ownership of the contract to a new account (`newOwner`). Can only be called by the current owner."
					}
				},
				"version": 1
			},
			"evm": {
				"assembly": "    /* \"ERC20_flat.sol\":19466:20116  contract DOLS is ERC20, Ownable {... */\n  mstore(0x40, 0x80)\n    /* \"ERC20_flat.sol\":19541:19557  10 ** decimals() */\n  tag_3\n    /* \"ERC20_flat.sol\":9956:9958  18 */\n  0x12\n    /* \"ERC20_flat.sol\":19541:19543  10 */\n  0x0a\n    /* \"ERC20_flat.sol\":19541:19557  10 ** decimals() */\n  tag_4\n  jump\t// in\ntag_3:\n    /* \"ERC20_flat.sol\":19534:19557  1000 * 10 ** decimals() */\n  tag_5\n  swap1\n    /* \"ERC20_flat.sol\":19534:19538  1000 */\n  0x03e8\n    /* \"ERC20_flat.sol\":19534:19557  1000 * 10 ** decimals() */\n  tag_6\n  jump\t// in\ntag_5:\n    /* \"ERC20_flat.sol\":19504:19557  uint256 public tokensPerEth = 1000 * 10 ** decimals() */\n  0x06\n  sstore\n    /* \"ERC20_flat.sol\":19614:19711  constructor() ERC20(\"DOLS\", \"DLS\") {... */\n  callvalue\n  dup1\n  iszero\n  tag_7\n  jumpi\n  0x00\n  dup1\n  revert\ntag_7:\n  pop\n    /* \"ERC20_flat.sol\":8759:8872  constructor(string memory name_, string memory symbol_) {... */\n  mload(0x40)\n  dup1\n  0x40\n  add\n  0x40\n  mstore\n  dup1\n  0x04\n  dup2\n  mstore\n  0x20\n  add\n  shl(0xe0, 0x444f4c53)\n  dup2\n  mstore\n  pop\n  mload(0x40)\n  dup1\n  0x40\n  add\n  0x40\n  mstore\n  dup1\n  0x03\n  dup2\n  mstore\n  0x20\n  add\n  shl(0xe8, 0x444c53)\n  dup2\n  mstore\n  pop\n    /* \"ERC20_flat.sol\":8833:8838  name_ */\n  dup2\n    /* \"ERC20_flat.sol\":8825:8830  _name */\n  0x03\n    /* \"ERC20_flat.sol\":8825:8838  _name = name_ */\n  swap1\n  dup1\n  mload\n  swap1\n  0x20\n  add\n  swap1\n  tag_12\n  swap3\n  swap2\n  swap1\n  tag_13\n  jump\t// in\ntag_12:\n  pop\n    /* \"ERC20_flat.sol\":8848:8865  _symbol = symbol_ */\n  dup1\n  mload\n  tag_14\n  swap1\n    /* \"ERC20_flat.sol\":8848:8855  _symbol */\n  0x04\n  swap1\n    /* \"ERC20_flat.sol\":8848:8865  _symbol = symbol_ */\n  0x20\n  dup5\n  add\n  swap1\n  tag_13\n  jump\t// in\ntag_14:\n  pop\n    /* \"ERC20_flat.sol\":8759:8872  constructor(string memory name_, string memory symbol_) {... */\n  pop\n  pop\n    /* \"ERC20_flat.sol\":1814:1846  _transferOwnership(_msgSender()) */\n  tag_16\n    /* \"ERC20_flat.sol\":1833:1845  _msgSender() */\n  tag_17\n    /* \"ERC20_flat.sol\":1833:1843  _msgSender */\n  shl(0x20, tag_18)\n    /* \"ERC20_flat.sol\":1833:1845  _msgSender() */\n  0x20\n  shr\n  jump\t// in\ntag_17:\n    /* \"ERC20_flat.sol\":1814:1832  _transferOwnership */\n  tag_19\n    /* \"ERC20_flat.sol\":1814:1846  _transferOwnership(_msgSender()) */\n  jump\t// in\ntag_16:\n    /* \"ERC20_flat.sol\":19659:19704  _mint(msg.sender, 1000000 * 10 ** decimals()) */\n  tag_21\n    /* \"ERC20_flat.sol\":19665:19675  msg.sender */\n  caller\n    /* \"ERC20_flat.sol\":19687:19703  10 ** decimals() */\n  tag_23\n    /* \"ERC20_flat.sol\":9956:9958  18 */\n  0x12\n    /* \"ERC20_flat.sol\":19687:19689  10 */\n  0x0a\n    /* \"ERC20_flat.sol\":19687:19703  10 ** decimals() */\n  tag_4\n  jump\t// in\ntag_23:\n    /* \"ERC20_flat.sol\":19677:19703  1000000 * 10 ** decimals() */\n  tag_24\n  swap1\n    /* \"ERC20_flat.sol\":19677:19684  1000000 */\n  0x0f4240\n    /* \"ERC20_flat.sol\":19677:19703  1000000 * 10 ** decimals() */\n  tag_6\n  jump\t// in\ntag_24:\n    /* \"ERC20_flat.sol\":19659:19664  _mint */\n  tag_25\n    /* \"ERC20_flat.sol\":19659:19704  _mint(msg.sender, 1000000 * 10 ** decimals()) */\n  jump\t// in\ntag_21:\n    /* \"ERC20_flat.sol\":19466:20116  contract DOLS is ERC20, Ownable {... */\n  jump(tag_56)\n    /* \"ERC20_flat.sol\":697:793  function _msgSender() internal view virtual returns (address) {... */\ntag_18:\n    /* \"ERC20_flat.sol\":776:786  msg.sender */\n  caller\n  swap1\n    /* \"ERC20_flat.sol\":697:793  function _msgSender() internal view virtual returns (address) {... */\n  jump\t// out\n    /* \"ERC20_flat.sol\":3163:3350  function _transferOwnership(address newOwner) internal virtual {... */\ntag_19:\n    /* \"ERC20_flat.sol\":3255:3261  _owner */\n  0x05\n  dup1\n  sload\n  sub(shl(0xa0, 0x01), 0x01)\n    /* \"ERC20_flat.sol\":3271:3288  _owner = newOwner */\n  dup4\n  dup2\n  and\n  not(sub(shl(0xa0, 0x01), 0x01))\n  dup4\n  and\n  dup2\n  or\n  swap1\n  swap4\n  sstore\n    /* \"ERC20_flat.sol\":3303:3343  OwnershipTransferred(oldOwner, newOwner) */\n  mload(0x40)\n    /* \"ERC20_flat.sol\":3255:3261  _owner */\n  swap2\n  and\n  swap2\n    /* \"ERC20_flat.sol\":3271:3288  _owner = newOwner */\n  swap1\n    /* \"ERC20_flat.sol\":3255:3261  _owner */\n  dup3\n  swap1\n    /* \"ERC20_flat.sol\":3303:3343  OwnershipTransferred(oldOwner, newOwner) */\n  0x8be0079c531659141344cd1fd0a4f28419497f9722a3daafe3b4186f6b6457e0\n  swap1\n    /* \"ERC20_flat.sol\":3236:3252  address oldOwner */\n  0x00\n  swap1\n    /* \"ERC20_flat.sol\":3303:3343  OwnershipTransferred(oldOwner, newOwner) */\n  log3\n    /* \"ERC20_flat.sol\":3226:3350  {... */\n  pop\n    /* \"ERC20_flat.sol\":3163:3350  function _transferOwnership(address newOwner) internal virtual {... */\n  pop\n  jump\t// out\n    /* \"ERC20_flat.sol\":15196:15585  function _mint(address account, uint256 amount) internal virtual {... */\ntag_25:\n  sub(shl(0xa0, 0x01), 0x01)\n    /* \"ERC20_flat.sol\":15279:15300  account != address(0) */\n  dup3\n  and\n    /* \"ERC20_flat.sol\":15271:15336  require(account != address(0), \"ERC20: mint to the zero address\") */\n  tag_31\n  jumpi\n  mload(0x40)\n  shl(0xe5, 0x461bcd)\n  dup2\n  mstore\n    /* \"#utility.yul\":216:218   */\n  0x20\n    /* \"ERC20_flat.sol\":15271:15336  require(account != address(0), \"ERC20: mint to the zero address\") */\n  0x04\n  dup3\n  add\n    /* \"#utility.yul\":198:219   */\n  mstore\n    /* \"#utility.yul\":255:257   */\n  0x1f\n    /* \"#utility.yul\":235:253   */\n  0x24\n  dup3\n  add\n    /* \"#utility.yul\":228:258   */\n  mstore\n    /* \"#utility.yul\":294:327   */\n  0x45524332303a206d696e7420746f20746865207a65726f206164647265737300\n    /* \"#utility.yul\":274:292   */\n  0x44\n  dup3\n  add\n    /* \"#utility.yul\":267:328   */\n  mstore\n    /* \"#utility.yul\":345:363   */\n  0x64\n  add\n    /* \"ERC20_flat.sol\":15271:15336  require(account != address(0), \"ERC20: mint to the zero address\") */\n  mload(0x40)\n  dup1\n  swap2\n  sub\n  swap1\n  revert\ntag_31:\n    /* \"ERC20_flat.sol\":15423:15429  amount */\n  dup1\n    /* \"ERC20_flat.sol\":15407:15419  _totalSupply */\n  0x02\n  0x00\n    /* \"ERC20_flat.sol\":15407:15429  _totalSupply += amount */\n  dup3\n  dup3\n  sload\n  tag_36\n  swap2\n  swap1\n  tag_37\n  jump\t// in\ntag_36:\n  swap1\n  swap2\n  sstore\n  pop\n  pop\n  sub(shl(0xa0, 0x01), 0x01)\n    /* \"ERC20_flat.sol\":15439:15457  _balances[account] */\n  dup3\n  and\n    /* \"ERC20_flat.sol\":15439:15448  _balances */\n  0x00\n    /* \"ERC20_flat.sol\":15439:15457  _balances[account] */\n  swap1\n  dup2\n  mstore\n  0x20\n  dup2\n  swap1\n  mstore\n  0x40\n  dup2\n  keccak256\n    /* \"ERC20_flat.sol\":15439:15467  _balances[account] += amount */\n  dup1\n  sload\n    /* \"ERC20_flat.sol\":15461:15467  amount */\n  dup4\n  swap3\n    /* \"ERC20_flat.sol\":15439:15448  _balances */\n  swap1\n    /* \"ERC20_flat.sol\":15439:15467  _balances[account] += amount */\n  tag_38\n  swap1\n    /* \"ERC20_flat.sol\":15461:15467  amount */\n  dup5\n  swap1\n    /* \"ERC20_flat.sol\":15439:15467  _balances[account] += amount */\n  tag_37\n  jump\t// in\ntag_38:\n  swap1\n  swap2\n  sstore\n  pop\n  pop\n    /* \"ERC20_flat.sol\":15482:15519  Transfer(address(0), account, amount) */\n  mload(0x40)\n    /* \"#utility.yul\":520:545   */\n  dup2\n  dup2\n  mstore\n  sub(shl(0xa0, 0x01), 0x01)\n    /* \"ERC20_flat.sol\":15482:15519  Transfer(address(0), account, amount) */\n  dup4\n  and\n  swap1\n    /* \"ERC20_flat.sol\":15499:15500  0 */\n  0x00\n  swap1\n    /* \"ERC20_flat.sol\":15482:15519  Transfer(address(0), account, amount) */\n  0xddf252ad1be2c89b69c2b068fc378daa952ba7f163c4a11628f55a4df523b3ef\n  swap1\n    /* \"#utility.yul\":508:510   */\n  0x20\n    /* \"#utility.yul\":493:511   */\n  add\n    /* \"ERC20_flat.sol\":15482:15519  Transfer(address(0), account, amount) */\n  mload(0x40)\n  dup1\n  swap2\n  sub\n  swap1\n  log3\n    /* \"ERC20_flat.sol\":15196:15585  function _mint(address account, uint256 amount) internal virtual {... */\n  pop\n  pop\n  jump\t// out\n    /* \"ERC20_flat.sol\":19466:20116  contract DOLS is ERC20, Ownable {... */\ntag_13:\n  dup3\n  dup1\n  sload\n  tag_45\n  swap1\n  tag_46\n  jump\t// in\ntag_45:\n  swap1\n  0x00\n  mstore\n  keccak256(0x00, 0x20)\n  swap1\n  0x1f\n  add\n  0x20\n  swap1\n  div\n  dup2\n  add\n  swap3\n  dup3\n  tag_48\n  jumpi\n  0x00\n  dup6\n  sstore\n  jump(tag_51)\ntag_48:\n  dup3\n  0x1f\n  lt\n  tag_49\n  jumpi\n  dup1\n  mload\n  not(0xff)\n  and\n  dup4\n  dup1\n  add\n  or\n  dup6\n  sstore\n  jump(tag_51)\ntag_49:\n  dup3\n  dup1\n  add\n  0x01\n  add\n  dup6\n  sstore\n  dup3\n  iszero\n  tag_51\n  jumpi\n  swap2\n  dup3\n  add\ntag_50:\n  dup3\n  dup2\n  gt\n  iszero\n  tag_51\n  jumpi\n  dup3\n  mload\n  dup3\n  sstore\n  swap2\n  0x20\n  add\n  swap2\n  swap1\n  0x01\n  add\n  swap1\n  jump(tag_50)\ntag_51:\n  pop\n  tag_52\n  swap3\n  swap2\n  pop\n  tag_53\n  jump\t// in\ntag_52:\n  pop\n  swap1\n  jump\t// out\ntag_53:\ntag_54:\n  dup1\n  dup3\n  gt\n  iszero\n  tag_52\n  jumpi\n  0x00\n  dup2\n  sstore\n  0x01\n  add\n  jump(tag_54)\n    /* \"#utility.yul\":556:684   */\ntag_37:\n    /* \"#utility.yul\":596:599   */\n  0x00\n    /* \"#utility.yul\":627:628   */\n  dup3\n    /* \"#utility.yul\":623:629   */\n  not\n    /* \"#utility.yul\":620:621   */\n  dup3\n    /* \"#utility.yul\":617:630   */\n  gt\n    /* \"#utility.yul\":614:653   */\n  iszero\n  tag_61\n  jumpi\n    /* \"#utility.yul\":633:651   */\n  tag_61\n  tag_62\n  jump\t// in\ntag_61:\n  pop\n    /* \"#utility.yul\":669:678   */\n  add\n  swap1\n    /* \"#utility.yul\":556:684   */\n  jump\t// out\n    /* \"#utility.yul\":689:1111   */\ntag_63:\n    /* \"#utility.yul\":778:779   */\n  0x01\n    /* \"#utility.yul\":821:826   */\n  dup2\n    /* \"#utility.yul\":778:779   */\n  dup2\n    /* \"#utility.yul\":835:1105   */\ntag_65:\n    /* \"#utility.yul\":856:863   */\n  dup1\n    /* \"#utility.yul\":846:854   */\n  dup6\n    /* \"#utility.yul\":843:864   */\n  gt\n    /* \"#utility.yul\":835:1105   */\n  iszero\n  tag_67\n  jumpi\n    /* \"#utility.yul\":915:919   */\n  dup2\n    /* \"#utility.yul\":911:912   */\n  0x00\n    /* \"#utility.yul\":907:913   */\n  not\n    /* \"#utility.yul\":903:920   */\n  div\n    /* \"#utility.yul\":897:901   */\n  dup3\n    /* \"#utility.yul\":894:921   */\n  gt\n    /* \"#utility.yul\":891:944   */\n  iszero\n  tag_69\n  jumpi\n    /* \"#utility.yul\":924:942   */\n  tag_69\n  tag_62\n  jump\t// in\ntag_69:\n    /* \"#utility.yul\":974:981   */\n  dup1\n    /* \"#utility.yul\":964:972   */\n  dup6\n    /* \"#utility.yul\":960:982   */\n  and\n    /* \"#utility.yul\":957:1012   */\n  iszero\n  tag_70\n  jumpi\n    /* \"#utility.yul\":994:1010   */\n  swap2\n  dup2\n  mul\n  swap2\n    /* \"#utility.yul\":957:1012   */\ntag_70:\n    /* \"#utility.yul\":1073:1095   */\n  swap4\n  dup5\n  shr\n  swap4\n    /* \"#utility.yul\":1033:1048   */\n  swap1\n  dup1\n  mul\n  swap1\n    /* \"#utility.yul\":835:1105   */\n  jump(tag_65)\ntag_67:\n    /* \"#utility.yul\":839:842   */\n  pop\n    /* \"#utility.yul\":689:1111   */\n  swap3\n  pop\n  swap3\n  swap1\n  pop\n  jump\t// out\n    /* \"#utility.yul\":1116:1256   */\ntag_4:\n    /* \"#utility.yul\":1174:1179   */\n  0x00\n    /* \"#utility.yul\":1203:1250   */\n  tag_72\n    /* \"#utility.yul\":1244:1248   */\n  0xff\n    /* \"#utility.yul\":1234:1242   */\n  dup5\n    /* \"#utility.yul\":1230:1249   */\n  and\n    /* \"#utility.yul\":1224:1228   */\n  dup4\n    /* \"#utility.yul\":1203:1250   */\n  tag_73\n  jump\t// in\ntag_72:\n    /* \"#utility.yul\":1194:1250   */\n  swap4\n    /* \"#utility.yul\":1116:1256   */\n  swap3\n  pop\n  pop\n  pop\n  jump\t// out\n    /* \"#utility.yul\":1261:2067   */\ntag_73:\n    /* \"#utility.yul\":1310:1315   */\n  0x00\n    /* \"#utility.yul\":1340:1348   */\n  dup3\n    /* \"#utility.yul\":1330:1410   */\n  tag_75\n  jumpi\n  pop\n    /* \"#utility.yul\":1381:1382   */\n  0x01\n    /* \"#utility.yul\":1395:1400   */\n  jump(tag_74)\n    /* \"#utility.yul\":1330:1410   */\ntag_75:\n    /* \"#utility.yul\":1429:1433   */\n  dup2\n    /* \"#utility.yul\":1419:1495   */\n  tag_76\n  jumpi\n  pop\n    /* \"#utility.yul\":1466:1467   */\n  0x00\n    /* \"#utility.yul\":1480:1485   */\n  jump(tag_74)\n    /* \"#utility.yul\":1419:1495   */\ntag_76:\n    /* \"#utility.yul\":1511:1515   */\n  dup2\n    /* \"#utility.yul\":1529:1530   */\n  0x01\n    /* \"#utility.yul\":1524:1583   */\n  dup2\n  eq\n  tag_78\n  jumpi\n    /* \"#utility.yul\":1597:1598   */\n  0x02\n    /* \"#utility.yul\":1592:1722   */\n  dup2\n  eq\n  tag_79\n  jumpi\n    /* \"#utility.yul\":1504:1722   */\n  jump(tag_77)\n    /* \"#utility.yul\":1524:1583   */\ntag_78:\n    /* \"#utility.yul\":1554:1555   */\n  0x01\n    /* \"#utility.yul\":1545:1555   */\n  swap2\n  pop\n    /* \"#utility.yul\":1568:1573   */\n  pop\n  jump(tag_74)\n    /* \"#utility.yul\":1592:1722   */\ntag_79:\n    /* \"#utility.yul\":1629:1632   */\n  0xff\n    /* \"#utility.yul\":1619:1627   */\n  dup5\n    /* \"#utility.yul\":1616:1633   */\n  gt\n    /* \"#utility.yul\":1613:1656   */\n  iszero\n  tag_81\n  jumpi\n    /* \"#utility.yul\":1636:1654   */\n  tag_81\n  tag_62\n  jump\t// in\ntag_81:\n  pop\n  pop\n    /* \"#utility.yul\":1692:1693   */\n  0x01\n    /* \"#utility.yul\":1678:1694   */\n  dup3\n  shl\n    /* \"#utility.yul\":1707:1712   */\n  jump(tag_74)\n    /* \"#utility.yul\":1504:1722   */\ntag_77:\n  pop\n    /* \"#utility.yul\":1806:1808   */\n  0x20\n    /* \"#utility.yul\":1796:1804   */\n  dup4\n    /* \"#utility.yul\":1793:1809   */\n  lt\n    /* \"#utility.yul\":1787:1790   */\n  0x0133\n    /* \"#utility.yul\":1781:1785   */\n  dup4\n    /* \"#utility.yul\":1778:1791   */\n  lt\n    /* \"#utility.yul\":1774:1810   */\n  and\n    /* \"#utility.yul\":1768:1770   */\n  0x4e\n    /* \"#utility.yul\":1758:1766   */\n  dup5\n    /* \"#utility.yul\":1755:1771   */\n  lt\n    /* \"#utility.yul\":1750:1752   */\n  0x0b\n    /* \"#utility.yul\":1744:1748   */\n  dup5\n    /* \"#utility.yul\":1741:1753   */\n  lt\n    /* \"#utility.yul\":1737:1772   */\n  and\n    /* \"#utility.yul\":1734:1811   */\n  or\n    /* \"#utility.yul\":1731:1890   */\n  iszero\n  tag_82\n  jumpi\n  pop\n    /* \"#utility.yul\":1843:1862   */\n  dup2\n  dup2\n  exp\n    /* \"#utility.yul\":1875:1880   */\n  jump(tag_74)\n    /* \"#utility.yul\":1731:1890   */\ntag_82:\n    /* \"#utility.yul\":1922:1956   */\n  tag_83\n    /* \"#utility.yul\":1947:1955   */\n  dup4\n    /* \"#utility.yul\":1941:1945   */\n  dup4\n    /* \"#utility.yul\":1922:1956   */\n  tag_63\n  jump\t// in\ntag_83:\n    /* \"#utility.yul\":1992:1998   */\n  dup1\n    /* \"#utility.yul\":1988:1989   */\n  0x00\n    /* \"#utility.yul\":1984:1990   */\n  not\n    /* \"#utility.yul\":1980:1999   */\n  div\n    /* \"#utility.yul\":1971:1978   */\n  dup3\n    /* \"#utility.yul\":1968:2000   */\n  gt\n    /* \"#utility.yul\":1965:2023   */\n  iszero\n  tag_85\n  jumpi\n    /* \"#utility.yul\":2003:2021   */\n  tag_85\n  tag_62\n  jump\t// in\ntag_85:\n    /* \"#utility.yul\":2041:2061   */\n  mul\n  swap1\n  pop\n    /* \"#utility.yul\":1261:2067   */\ntag_74:\n  swap3\n  swap2\n  pop\n  pop\n  jump\t// out\n    /* \"#utility.yul\":2072:2240   */\ntag_6:\n    /* \"#utility.yul\":2112:2119   */\n  0x00\n    /* \"#utility.yul\":2178:2179   */\n  dup2\n    /* \"#utility.yul\":2174:2175   */\n  0x00\n    /* \"#utility.yul\":2170:2176   */\n  not\n    /* \"#utility.yul\":2166:2180   */\n  div\n    /* \"#utility.yul\":2163:2164   */\n  dup4\n    /* \"#utility.yul\":2160:2181   */\n  gt\n    /* \"#utility.yul\":2155:2156   */\n  dup3\n    /* \"#utility.yul\":2148:2157   */\n  iszero\n    /* \"#utility.yul\":2141:2158   */\n  iszero\n    /* \"#utility.yul\":2137:2182   */\n  and\n    /* \"#utility.yul\":2134:2205   */\n  iszero\n  tag_88\n  jumpi\n    /* \"#utility.yul\":2185:2203   */\n  tag_88\n  tag_62\n  jump\t// in\ntag_88:\n  pop\n    /* \"#utility.yul\":2225:2234   */\n  mul\n  swap1\n    /* \"#utility.yul\":2072:2240   */\n  jump\t// out\n    /* \"#utility.yul\":2245:2625   */\ntag_46:\n    /* \"#utility.yul\":2324:2325   */\n  0x01\n    /* \"#utility.yul\":2320:2332   */\n  dup2\n  dup2\n  shr\n  swap1\n    /* \"#utility.yul\":2367:2379   */\n  dup3\n  and\n  dup1\n    /* \"#utility.yul\":2388:2449   */\n  tag_90\n  jumpi\n    /* \"#utility.yul\":2442:2446   */\n  0x7f\n    /* \"#utility.yul\":2434:2440   */\n  dup3\n    /* \"#utility.yul\":2430:2447   */\n  and\n    /* \"#utility.yul\":2420:2447   */\n  swap2\n  pop\n    /* \"#utility.yul\":2388:2449   */\ntag_90:\n    /* \"#utility.yul\":2495:2497   */\n  0x20\n    /* \"#utility.yul\":2487:2493   */\n  dup3\n    /* \"#utility.yul\":2484:2498   */\n  lt\n    /* \"#utility.yul\":2464:2482   */\n  dup2\n    /* \"#utility.yul\":2461:2499   */\n  eq\n    /* \"#utility.yul\":2458:2619   */\n  iszero\n  tag_91\n  jumpi\n    /* \"#utility.yul\":2541:2551   */\n  0x4e487b71\n    /* \"#utility.yul\":2536:2539   */\n  0xe0\n    /* \"#utility.yul\":2532:2552   */\n  shl\n    /* \"#utility.yul\":2529:2530   */\n  0x00\n    /* \"#utility.yul\":2522:2553   */\n  mstore\n    /* \"#utility.yul\":2576:2580   */\n  0x22\n    /* \"#utility.yul\":2573:2574   */\n  0x04\n    /* \"#utility.yul\":2566:2581   */\n  mstore\n    /* \"#utility.yul\":2604:2608   */\n  0x24\n    /* \"#utility.yul\":2601:2602   */\n  0x00\n    /* \"#utility.yul\":2594:2609   */\n  revert\n    /* \"#utility.yul\":2458:2619   */\ntag_91:\n  pop\n    /* \"#utility.yul\":2245:2625   */\n  swap2\n  swap1\n  pop\n  jump\t// out\n    /* \"#utility.yul\":2630:2757   */\ntag_62:\n    /* \"#utility.yul\":2691:2701   */\n  0x4e487b71\n    /* \"#utility.yul\":2686:2689   */\n  0xe0\n    /* \"#utility.yul\":2682:2702   */\n  shl\n    /* \"#utility.yul\":2679:2680   */\n  0x00\n    /* \"#utility.yul\":2672:2703   */\n  mstore\n    /* \"#utility.yul\":2722:2726   */\n  0x11\n    /* \"#utility.yul\":2719:2720   */\n  0x04\n    /* \"#utility.yul\":2712:2727   */\n  mstore\n    /* \"#utility.yul\":2746:2750   */\n  0x24\n    /* \"#utility.yul\":2743:2744   */\n  0x00\n    /* \"#utility.yul\":2736:2751   */\n  revert\n    /* \"#utility.yul\":2630:2757   */\ntag_56:\n    /* \"ERC20_flat.sol\":19466:20116  contract DOLS is ERC20, Ownable {... */\n  dataSize(sub_0)\n  dup1\n  dataOffset(sub_0)\n  0x00\n  codecopy\n  0x00\n  return\nstop\n\nsub_0: assembly {\n        /* \"ERC20_flat.sol\":19466:20116  contract DOLS is ERC20, Ownable {... */\n      mstore(0x40, 0x80)\n      jumpi(tag_1, lt(calldatasize, 0x04))\n      shr(0xe0, calldataload(0x00))\n      dup1\n      0x70a08231\n      gt\n      tag_19\n      jumpi\n      dup1\n      0xa457c2d7\n      gt\n      tag_20\n      jumpi\n      dup1\n      0xa457c2d7\n      eq\n      tag_14\n      jumpi\n      dup1\n      0xa9059cbb\n      eq\n      tag_15\n      jumpi\n      dup1\n      0xcbdd69b5\n      eq\n      tag_16\n      jumpi\n      dup1\n      0xdd62ed3e\n      eq\n      tag_17\n      jumpi\n      dup1\n      0xf2fde38b\n      eq\n      tag_18\n      jumpi\n      0x00\n      dup1\n      revert\n    tag_20:\n      dup1\n      0x70a08231\n      eq\n      tag_10\n      jumpi\n      dup1\n      0x715018a6\n      eq\n      tag_11\n      jumpi\n      dup1\n      0x8da5cb5b\n      eq\n      tag_12\n      jumpi\n      dup1\n      0x95d89b41\n      eq\n      tag_13\n      jumpi\n      0x00\n      dup1\n      revert\n    tag_19:\n      dup1\n      0x23b872dd\n      gt\n      tag_21\n      jumpi\n      dup1\n      0x23b872dd\n      eq\n      tag_6\n      jumpi\n      dup1\n      0x313ce567\n      eq\n      tag_7\n      jumpi\n      dup1\n      0x39509351\n      eq\n      tag_8\n      jumpi\n      dup1\n      0x40c10f19\n      eq\n      tag_9\n      jumpi\n      0x00\n      dup1\n      revert\n    tag_21:\n      dup1\n      0x06fdde03\n      eq\n      tag_2\n      jumpi\n      dup1\n      0x0752881a\n      eq\n      tag_3\n      jumpi\n      dup1\n      0x095ea7b3\n      eq\n      tag_4\n      jumpi\n      dup1\n      0x18160ddd\n      eq\n      tag_5\n      jumpi\n    tag_1:\n      0x00\n      dup1\n      revert\n        /* \"ERC20_flat.sol\":8937:9035  function name() public view virtual override returns (string memory) {... */\n    tag_2:\n      callvalue\n      dup1\n      iszero\n      tag_22\n      jumpi\n      0x00\n      dup1\n      revert\n    tag_22:\n      pop\n      tag_23\n      tag_24\n      jump\t// in\n    tag_23:\n      mload(0x40)\n      tag_25\n      swap2\n      swap1\n      tag_26\n      jump\t// in\n    tag_25:\n      mload(0x40)\n      dup1\n      swap2\n      sub\n      swap1\n      return\n        /* \"ERC20_flat.sol\":19832:20114  function buyTokens(address receiver, uint256 amount) public virtual payable returns (bool) {  ... */\n    tag_3:\n      tag_27\n      tag_28\n      calldatasize\n      0x04\n      tag_29\n      jump\t// in\n    tag_28:\n      tag_30\n      jump\t// in\n    tag_27:\n      mload(0x40)\n        /* \"#utility.yul\":1613:1627   */\n      swap1\n      iszero\n        /* \"#utility.yul\":1606:1628   */\n      iszero\n        /* \"#utility.yul\":1588:1629   */\n      dup2\n      mstore\n        /* \"#utility.yul\":1576:1578   */\n      0x20\n        /* \"#utility.yul\":1561:1579   */\n      add\n        /* \"ERC20_flat.sol\":19832:20114  function buyTokens(address receiver, uint256 amount) public virtual payable returns (bool) {  ... */\n      tag_25\n        /* \"#utility.yul\":1448:1635   */\n      jump\n        /* \"ERC20_flat.sol\":11214:11411  function approve(address spender, uint256 amount) public virtual override returns (bool) {... */\n    tag_4:\n      callvalue\n      dup1\n      iszero\n      tag_33\n      jumpi\n      0x00\n      dup1\n      revert\n    tag_33:\n      pop\n      tag_27\n      tag_35\n      calldatasize\n      0x04\n      tag_29\n      jump\t// in\n    tag_35:\n      tag_36\n      jump\t// in\n        /* \"ERC20_flat.sol\":10025:10131  function totalSupply() public view virtual override returns (uint256) {... */\n    tag_5:\n      callvalue\n      dup1\n      iszero\n      tag_38\n      jumpi\n      0x00\n      dup1\n      revert\n    tag_38:\n      pop\n        /* \"ERC20_flat.sol\":10112:10124  _totalSupply */\n      sload(0x02)\n        /* \"ERC20_flat.sol\":10025:10131  function totalSupply() public view virtual override returns (uint256) {... */\n    tag_39:\n      mload(0x40)\n        /* \"#utility.yul\":6305:6330   */\n      swap1\n      dup2\n      mstore\n        /* \"#utility.yul\":6293:6295   */\n      0x20\n        /* \"#utility.yul\":6278:6296   */\n      add\n        /* \"ERC20_flat.sol\":10025:10131  function totalSupply() public view virtual override returns (uint256) {... */\n      tag_25\n        /* \"#utility.yul\":6159:6336   */\n      jump\n        /* \"ERC20_flat.sol\":11973:12259  function transferFrom(... */\n    tag_6:\n      callvalue\n      dup1\n      iszero\n      tag_43\n      jumpi\n      0x00\n      dup1\n      revert\n    tag_43:\n      pop\n      tag_27\n      tag_45\n      calldatasize\n      0x04\n      tag_46\n      jump\t// in\n    tag_45:\n      tag_47\n      jump\t// in\n        /* \"ERC20_flat.sol\":9874:9965  function decimals() public view virtual override returns (uint8) {... */\n    tag_7:\n      callvalue\n      dup1\n      iszero\n      tag_49\n      jumpi\n      0x00\n      dup1\n      revert\n    tag_49:\n      pop\n      mload(0x40)\n        /* \"ERC20_flat.sol\":9956:9958  18 */\n      0x12\n        /* \"#utility.yul\":6483:6519   */\n      dup2\n      mstore\n        /* \"#utility.yul\":6471:6473   */\n      0x20\n        /* \"#utility.yul\":6456:6474   */\n      add\n        /* \"ERC20_flat.sol\":9874:9965  function decimals() public view virtual override returns (uint8) {... */\n      tag_25\n        /* \"#utility.yul\":6341:6525   */\n      jump\n        /* \"ERC20_flat.sol\":12654:12890  function increaseAllowance(address spender, uint256 addedValue) public virtual returns (bool) {... */\n    tag_8:\n      callvalue\n      dup1\n      iszero\n      tag_54\n      jumpi\n      0x00\n      dup1\n      revert\n    tag_54:\n      pop\n      tag_27\n      tag_56\n      calldatasize\n      0x04\n      tag_29\n      jump\t// in\n    tag_56:\n      tag_57\n      jump\t// in\n        /* \"ERC20_flat.sol\":19717:19823  function mint(address to, uint256 amount) public onlyOwner {... */\n    tag_9:\n      callvalue\n      dup1\n      iszero\n      tag_59\n      jumpi\n      0x00\n      dup1\n      revert\n    tag_59:\n      pop\n      tag_60\n      tag_61\n      calldatasize\n      0x04\n      tag_29\n      jump\t// in\n    tag_61:\n      tag_62\n      jump\t// in\n    tag_60:\n      stop\n        /* \"ERC20_flat.sol\":10189:10314  function balanceOf(address account) public view virtual override returns (uint256) {... */\n    tag_10:\n      callvalue\n      dup1\n      iszero\n      tag_63\n      jumpi\n      0x00\n      dup1\n      revert\n    tag_63:\n      pop\n      tag_39\n      tag_65\n      calldatasize\n      0x04\n      tag_66\n      jump\t// in\n    tag_65:\n      sub(shl(0xa0, 0x01), 0x01)\n        /* \"ERC20_flat.sol\":10289:10307  _balances[account] */\n      and\n        /* \"ERC20_flat.sol\":10263:10270  uint256 */\n      0x00\n        /* \"ERC20_flat.sol\":10289:10307  _balances[account] */\n      swap1\n      dup2\n      mstore\n      0x20\n      dup2\n      swap1\n      mstore\n      0x40\n      swap1\n      keccak256\n      sload\n      swap1\n        /* \"ERC20_flat.sol\":10189:10314  function balanceOf(address account) public view virtual override returns (uint256) {... */\n      jump\n        /* \"ERC20_flat.sol\":2561:2662  function renounceOwnership() public virtual onlyOwner {... */\n    tag_11:\n      callvalue\n      dup1\n      iszero\n      tag_69\n      jumpi\n      0x00\n      dup1\n      revert\n    tag_69:\n      pop\n      tag_60\n      tag_71\n      jump\t// in\n        /* \"ERC20_flat.sol\":1929:2014  function owner() public view virtual returns (address) {... */\n    tag_12:\n      callvalue\n      dup1\n      iszero\n      tag_72\n      jumpi\n      0x00\n      dup1\n      revert\n    tag_72:\n      pop\n        /* \"ERC20_flat.sol\":2001:2007  _owner */\n      sload(0x05)\n        /* \"ERC20_flat.sol\":1929:2014  function owner() public view virtual returns (address) {... */\n      mload(0x40)\n      sub(shl(0xa0, 0x01), 0x01)\n        /* \"ERC20_flat.sol\":2001:2007  _owner */\n      swap1\n      swap2\n      and\n        /* \"#utility.yul\":1386:1437   */\n      dup2\n      mstore\n        /* \"#utility.yul\":1374:1376   */\n      0x20\n        /* \"#utility.yul\":1359:1377   */\n      add\n        /* \"ERC20_flat.sol\":1929:2014  function owner() public view virtual returns (address) {... */\n      tag_25\n        /* \"#utility.yul\":1240:1443   */\n      jump\n        /* \"ERC20_flat.sol\":9148:9250  function symbol() public view virtual override returns (string memory) {... */\n    tag_13:\n      callvalue\n      dup1\n      iszero\n      tag_77\n      jumpi\n      0x00\n      dup1\n      revert\n    tag_77:\n      pop\n      tag_23\n      tag_79\n      jump\t// in\n        /* \"ERC20_flat.sol\":13377:13806  function decreaseAllowance(address spender, uint256 subtractedValue) public virtual returns (bool) {... */\n    tag_14:\n      callvalue\n      dup1\n      iszero\n      tag_81\n      jumpi\n      0x00\n      dup1\n      revert\n    tag_81:\n      pop\n      tag_27\n      tag_83\n      calldatasize\n      0x04\n      tag_29\n      jump\t// in\n    tag_83:\n      tag_84\n      jump\t// in\n        /* \"ERC20_flat.sol\":10510:10699  function transfer(address to, uint256 amount) public virtual override returns (bool) {... */\n    tag_15:\n      callvalue\n      dup1\n      iszero\n      tag_86\n      jumpi\n      0x00\n      dup1\n      revert\n    tag_86:\n      pop\n      tag_27\n      tag_88\n      calldatasize\n      0x04\n      tag_29\n      jump\t// in\n    tag_88:\n      tag_89\n      jump\t// in\n        /* \"ERC20_flat.sol\":19504:19557  uint256 public tokensPerEth = 1000 * 10 ** decimals() */\n    tag_16:\n      callvalue\n      dup1\n      iszero\n      tag_91\n      jumpi\n      0x00\n      dup1\n      revert\n    tag_91:\n      pop\n      tag_39\n      sload(0x06)\n      dup2\n      jump\n        /* \"ERC20_flat.sol\":10757:10906  function allowance(address owner, address spender) public view virtual override returns (uint256) {... */\n    tag_17:\n      callvalue\n      dup1\n      iszero\n      tag_95\n      jumpi\n      0x00\n      dup1\n      revert\n    tag_95:\n      pop\n      tag_39\n      tag_97\n      calldatasize\n      0x04\n      tag_98\n      jump\t// in\n    tag_97:\n      sub(shl(0xa0, 0x01), 0x01)\n        /* \"ERC20_flat.sol\":10872:10890  _allowances[owner] */\n      swap2\n      dup3\n      and\n        /* \"ERC20_flat.sol\":10846:10853  uint256 */\n      0x00\n        /* \"ERC20_flat.sol\":10872:10890  _allowances[owner] */\n      swap1\n      dup2\n      mstore\n        /* \"ERC20_flat.sol\":10872:10883  _allowances */\n      0x01\n        /* \"ERC20_flat.sol\":10872:10890  _allowances[owner] */\n      0x20\n      swap1\n      dup2\n      mstore\n      0x40\n      dup1\n      dup4\n      keccak256\n        /* \"ERC20_flat.sol\":10872:10899  _allowances[owner][spender] */\n      swap4\n      swap1\n      swap5\n      and\n      dup3\n      mstore\n      swap2\n      swap1\n      swap2\n      mstore\n      keccak256\n      sload\n      swap1\n        /* \"ERC20_flat.sol\":10757:10906  function allowance(address owner, address spender) public view virtual override returns (uint256) {... */\n      jump\n        /* \"ERC20_flat.sol\":2811:3009  function transferOwnership(address newOwner) public virtual onlyOwner {... */\n    tag_18:\n      callvalue\n      dup1\n      iszero\n      tag_101\n      jumpi\n      0x00\n      dup1\n      revert\n    tag_101:\n      pop\n      tag_60\n      tag_103\n      calldatasize\n      0x04\n      tag_66\n      jump\t// in\n    tag_103:\n      tag_104\n      jump\t// in\n        /* \"ERC20_flat.sol\":8937:9035  function name() public view virtual override returns (string memory) {... */\n    tag_24:\n        /* \"ERC20_flat.sol\":8991:9004  string memory */\n      0x60\n        /* \"ERC20_flat.sol\":9023:9028  _name */\n      0x03\n        /* \"ERC20_flat.sol\":9016:9028  return _name */\n      dup1\n      sload\n      tag_106\n      swap1\n      tag_107\n      jump\t// in\n    tag_106:\n      dup1\n      0x1f\n      add\n      0x20\n      dup1\n      swap2\n      div\n      mul\n      0x20\n      add\n      mload(0x40)\n      swap1\n      dup2\n      add\n      0x40\n      mstore\n      dup1\n      swap3\n      swap2\n      swap1\n      dup2\n      dup2\n      mstore\n      0x20\n      add\n      dup3\n      dup1\n      sload\n      tag_108\n      swap1\n      tag_107\n      jump\t// in\n    tag_108:\n      dup1\n      iszero\n      tag_109\n      jumpi\n      dup1\n      0x1f\n      lt\n      tag_110\n      jumpi\n      0x0100\n      dup1\n      dup4\n      sload\n      div\n      mul\n      dup4\n      mstore\n      swap2\n      0x20\n      add\n      swap2\n      jump(tag_109)\n    tag_110:\n      dup3\n      add\n      swap2\n      swap1\n      0x00\n      mstore\n      keccak256(0x00, 0x20)\n      swap1\n    tag_111:\n      dup2\n      sload\n      dup2\n      mstore\n      swap1\n      0x01\n      add\n      swap1\n      0x20\n      add\n      dup1\n      dup4\n      gt\n      tag_111\n      jumpi\n      dup3\n      swap1\n      sub\n      0x1f\n      and\n      dup3\n      add\n      swap2\n    tag_109:\n      pop\n      pop\n      pop\n      pop\n      pop\n      swap1\n      pop\n        /* \"ERC20_flat.sol\":8937:9035  function name() public view virtual override returns (string memory) {... */\n      swap1\n      jump\t// out\n        /* \"ERC20_flat.sol\":19832:20114  function buyTokens(address receiver, uint256 amount) public virtual payable returns (bool) {  ... */\n    tag_30:\n        /* \"ERC20_flat.sol\":19997:20009  tokensPerEth */\n      sload(0x06)\n        /* \"ERC20_flat.sol\":19917:19921  bool */\n      0x00\n      swap1\n        /* \"ERC20_flat.sol\":776:786  msg.sender */\n      caller\n      swap1\n        /* \"ERC20_flat.sol\":19917:19921  bool */\n      dup3\n      swap1\n        /* \"ERC20_flat.sol\":19988:20009  amount * tokensPerEth */\n      tag_115\n      swap1\n        /* \"ERC20_flat.sol\":19988:19994  amount */\n      dup6\n        /* \"ERC20_flat.sol\":19988:20009  amount * tokensPerEth */\n      tag_116\n      jump\t// in\n    tag_115:\n        /* \"ERC20_flat.sol\":19966:20009  uint256 amountToBuy = amount * tokensPerEth */\n      swap1\n      pop\n        /* \"ERC20_flat.sol\":20015:20054  _transfer(owner, receiver, amountToBuy) */\n      tag_117\n        /* \"ERC20_flat.sol\":20025:20030  owner */\n      dup3\n        /* \"ERC20_flat.sol\":20032:20040  receiver */\n      dup7\n        /* \"ERC20_flat.sol\":20042:20053  amountToBuy */\n      dup4\n        /* \"ERC20_flat.sol\":20015:20024  _transfer */\n      tag_118\n        /* \"ERC20_flat.sol\":20015:20054  _transfer(owner, receiver, amountToBuy) */\n      jump\t// in\n    tag_117:\n      sub(shl(0xa0, 0x01), 0x01)\n        /* \"ERC20_flat.sol\":20060:20079  _balances[receiver] */\n      dup6\n      and\n      0x00\n      swap1\n      dup2\n      mstore\n        /* \"ERC20_flat.sol\":20060:20069  _balances */\n      0x07\n        /* \"ERC20_flat.sol\":20060:20079  _balances[receiver] */\n      0x20\n      mstore\n      0x40\n      dup2\n      keccak256\n        /* \"ERC20_flat.sol\":20060:20089  _balances[receiver] += amount */\n      dup1\n      sload\n        /* \"ERC20_flat.sol\":20083:20089  amount */\n      dup7\n      swap3\n        /* \"ERC20_flat.sol\":20060:20079  _balances[receiver] */\n      swap1\n        /* \"ERC20_flat.sol\":20060:20089  _balances[receiver] += amount */\n      tag_119\n      swap1\n        /* \"ERC20_flat.sol\":20083:20089  amount */\n      dup5\n      swap1\n        /* \"ERC20_flat.sol\":20060:20089  _balances[receiver] += amount */\n      tag_120\n      jump\t// in\n    tag_119:\n      swap1\n      swap2\n      sstore\n      pop\n        /* \"ERC20_flat.sol\":20103:20107  true */\n      0x01\n      swap7\n        /* \"ERC20_flat.sol\":19832:20114  function buyTokens(address receiver, uint256 amount) public virtual payable returns (bool) {  ... */\n      swap6\n      pop\n      pop\n      pop\n      pop\n      pop\n      pop\n      jump\t// out\n        /* \"ERC20_flat.sol\":11214:11411  function approve(address spender, uint256 amount) public virtual override returns (bool) {... */\n    tag_36:\n        /* \"ERC20_flat.sol\":11297:11301  bool */\n      0x00\n        /* \"ERC20_flat.sol\":776:786  msg.sender */\n      caller\n        /* \"ERC20_flat.sol\":11351:11383  _approve(owner, spender, amount) */\n      tag_123\n        /* \"ERC20_flat.sol\":776:786  msg.sender */\n      dup2\n        /* \"ERC20_flat.sol\":11367:11374  spender */\n      dup6\n        /* \"ERC20_flat.sol\":11376:11382  amount */\n      dup6\n        /* \"ERC20_flat.sol\":11351:11359  _approve */\n      tag_124\n        /* \"ERC20_flat.sol\":11351:11383  _approve(owner, spender, amount) */\n      jump\t// in\n    tag_123:\n      pop\n        /* \"ERC20_flat.sol\":11400:11404  true */\n      0x01\n      swap4\n        /* \"ERC20_flat.sol\":11214:11411  function approve(address spender, uint256 amount) public virtual override returns (bool) {... */\n      swap3\n      pop\n      pop\n      pop\n      jump\t// out\n        /* \"ERC20_flat.sol\":11973:12259  function transferFrom(... */\n    tag_47:\n        /* \"ERC20_flat.sol\":12100:12104  bool */\n      0x00\n        /* \"ERC20_flat.sol\":776:786  msg.sender */\n      caller\n        /* \"ERC20_flat.sol\":12156:12194  _spendAllowance(from, spender, amount) */\n      tag_128\n        /* \"ERC20_flat.sol\":12172:12176  from */\n      dup6\n        /* \"ERC20_flat.sol\":776:786  msg.sender */\n      dup3\n        /* \"ERC20_flat.sol\":12187:12193  amount */\n      dup6\n        /* \"ERC20_flat.sol\":12156:12171  _spendAllowance */\n      tag_129\n        /* \"ERC20_flat.sol\":12156:12194  _spendAllowance(from, spender, amount) */\n      jump\t// in\n    tag_128:\n        /* \"ERC20_flat.sol\":12204:12231  _transfer(from, to, amount) */\n      tag_130\n        /* \"ERC20_flat.sol\":12214:12218  from */\n      dup6\n        /* \"ERC20_flat.sol\":12220:12222  to */\n      dup6\n        /* \"ERC20_flat.sol\":12224:12230  amount */\n      dup6\n        /* \"ERC20_flat.sol\":12204:12213  _transfer */\n      tag_118\n        /* \"ERC20_flat.sol\":12204:12231  _transfer(from, to, amount) */\n      jump\t// in\n    tag_130:\n      pop\n        /* \"ERC20_flat.sol\":12248:12252  true */\n      0x01\n      swap5\n        /* \"ERC20_flat.sol\":11973:12259  function transferFrom(... */\n      swap4\n      pop\n      pop\n      pop\n      pop\n      jump\t// out\n        /* \"ERC20_flat.sol\":12654:12890  function increaseAllowance(address spender, uint256 addedValue) public virtual returns (bool) {... */\n    tag_57:\n        /* \"ERC20_flat.sol\":776:786  msg.sender */\n      caller\n        /* \"ERC20_flat.sol\":12742:12746  bool */\n      0x00\n        /* \"ERC20_flat.sol\":12821:12839  _allowances[owner] */\n      dup2\n      dup2\n      mstore\n        /* \"ERC20_flat.sol\":12821:12832  _allowances */\n      0x01\n        /* \"ERC20_flat.sol\":12821:12839  _allowances[owner] */\n      0x20\n      swap1\n      dup2\n      mstore\n      0x40\n      dup1\n      dup4\n      keccak256\n      sub(shl(0xa0, 0x01), 0x01)\n        /* \"ERC20_flat.sol\":12821:12848  _allowances[owner][spender] */\n      dup8\n      and\n      dup5\n      mstore\n      swap1\n      swap2\n      mstore\n      dup2\n      keccak256\n      sload\n        /* \"ERC20_flat.sol\":12742:12746  bool */\n      swap1\n      swap2\n        /* \"ERC20_flat.sol\":776:786  msg.sender */\n      swap1\n        /* \"ERC20_flat.sol\":12796:12862  _approve(owner, spender, _allowances[owner][spender] + addedValue) */\n      tag_123\n      swap1\n        /* \"ERC20_flat.sol\":776:786  msg.sender */\n      dup3\n      swap1\n        /* \"ERC20_flat.sol\":12821:12848  _allowances[owner][spender] */\n      dup7\n      swap1\n        /* \"ERC20_flat.sol\":12821:12861  _allowances[owner][spender] + addedValue */\n      tag_135\n      swap1\n        /* \"ERC20_flat.sol\":12851:12861  addedValue */\n      dup8\n      swap1\n        /* \"ERC20_flat.sol\":12821:12861  _allowances[owner][spender] + addedValue */\n      tag_120\n      jump\t// in\n    tag_135:\n        /* \"ERC20_flat.sol\":12796:12804  _approve */\n      tag_124\n        /* \"ERC20_flat.sol\":12796:12862  _approve(owner, spender, _allowances[owner][spender] + addedValue) */\n      jump\t// in\n        /* \"ERC20_flat.sol\":19717:19823  function mint(address to, uint256 amount) public onlyOwner {... */\n    tag_62:\n        /* \"ERC20_flat.sol\":2001:2007  _owner */\n      and(sub(shl(0xa0, 0x01), 0x01), sload(0x05))\n        /* \"ERC20_flat.sol\":776:786  msg.sender */\n      caller\n        /* \"ERC20_flat.sol\":2141:2164  owner() == _msgSender() */\n      eq\n        /* \"ERC20_flat.sol\":2133:2201  require(owner() == _msgSender(), \"Ownable: caller is not the owner\") */\n      tag_139\n      jumpi\n      mload(0x40)\n      shl(0xe5, 0x461bcd)\n      dup2\n      mstore\n      0x04\n      add\n      tag_140\n      swap1\n      tag_141\n      jump\t// in\n    tag_140:\n      mload(0x40)\n      dup1\n      swap2\n      sub\n      swap1\n      revert\n    tag_139:\n        /* \"ERC20_flat.sol\":19786:19816  _mint(to, amount*tokensPerEth) */\n      tag_143\n        /* \"ERC20_flat.sol\":19792:19794  to */\n      dup3\n        /* \"ERC20_flat.sol\":19803:19815  tokensPerEth */\n      sload(0x06)\n        /* \"ERC20_flat.sol\":19796:19802  amount */\n      dup4\n        /* \"ERC20_flat.sol\":19796:19815  amount*tokensPerEth */\n      tag_144\n      swap2\n      swap1\n      tag_116\n      jump\t// in\n    tag_144:\n        /* \"ERC20_flat.sol\":19786:19791  _mint */\n      tag_145\n        /* \"ERC20_flat.sol\":19786:19816  _mint(to, amount*tokensPerEth) */\n      jump\t// in\n    tag_143:\n        /* \"ERC20_flat.sol\":19717:19823  function mint(address to, uint256 amount) public onlyOwner {... */\n      pop\n      pop\n      jump\t// out\n        /* \"ERC20_flat.sol\":2561:2662  function renounceOwnership() public virtual onlyOwner {... */\n    tag_71:\n        /* \"ERC20_flat.sol\":2001:2007  _owner */\n      and(sub(shl(0xa0, 0x01), 0x01), sload(0x05))\n        /* \"ERC20_flat.sol\":776:786  msg.sender */\n      caller\n        /* \"ERC20_flat.sol\":2141:2164  owner() == _msgSender() */\n      eq\n        /* \"ERC20_flat.sol\":2133:2201  require(owner() == _msgSender(), \"Ownable: caller is not the owner\") */\n      tag_150\n      jumpi\n      mload(0x40)\n      shl(0xe5, 0x461bcd)\n      dup2\n      mstore\n      0x04\n      add\n      tag_140\n      swap1\n      tag_141\n      jump\t// in\n    tag_150:\n        /* \"ERC20_flat.sol\":2625:2655  _transferOwnership(address(0)) */\n      tag_153\n        /* \"ERC20_flat.sol\":2652:2653  0 */\n      0x00\n        /* \"ERC20_flat.sol\":2625:2643  _transferOwnership */\n      tag_154\n        /* \"ERC20_flat.sol\":2625:2655  _transferOwnership(address(0)) */\n      jump\t// in\n    tag_153:\n        /* \"ERC20_flat.sol\":2561:2662  function renounceOwnership() public virtual onlyOwner {... */\n      jump\t// out\n        /* \"ERC20_flat.sol\":9148:9250  function symbol() public view virtual override returns (string memory) {... */\n    tag_79:\n        /* \"ERC20_flat.sol\":9204:9217  string memory */\n      0x60\n        /* \"ERC20_flat.sol\":9236:9243  _symbol */\n      0x04\n        /* \"ERC20_flat.sol\":9229:9243  return _symbol */\n      dup1\n      sload\n      tag_106\n      swap1\n      tag_107\n      jump\t// in\n        /* \"ERC20_flat.sol\":13377:13806  function decreaseAllowance(address spender, uint256 subtractedValue) public virtual returns (bool) {... */\n    tag_84:\n        /* \"ERC20_flat.sol\":776:786  msg.sender */\n      caller\n        /* \"ERC20_flat.sol\":13470:13474  bool */\n      0x00\n        /* \"ERC20_flat.sol\":13551:13569  _allowances[owner] */\n      dup2\n      dup2\n      mstore\n        /* \"ERC20_flat.sol\":13551:13562  _allowances */\n      0x01\n        /* \"ERC20_flat.sol\":13551:13569  _allowances[owner] */\n      0x20\n      swap1\n      dup2\n      mstore\n      0x40\n      dup1\n      dup4\n      keccak256\n      sub(shl(0xa0, 0x01), 0x01)\n        /* \"ERC20_flat.sol\":13551:13578  _allowances[owner][spender] */\n      dup8\n      and\n      dup5\n      mstore\n      swap1\n      swap2\n      mstore\n      dup2\n      keccak256\n      sload\n        /* \"ERC20_flat.sol\":13470:13474  bool */\n      swap1\n      swap2\n        /* \"ERC20_flat.sol\":776:786  msg.sender */\n      swap1\n        /* \"ERC20_flat.sol\":13596:13631  currentAllowance >= subtractedValue */\n      dup4\n      dup2\n      lt\n      iszero\n        /* \"ERC20_flat.sol\":13588:13673  require(currentAllowance >= subtractedValue, \"ERC20: decreased allowance below zero\") */\n      tag_164\n      jumpi\n      mload(0x40)\n      shl(0xe5, 0x461bcd)\n      dup2\n      mstore\n        /* \"#utility.yul\":5595:5597   */\n      0x20\n        /* \"ERC20_flat.sol\":13588:13673  require(currentAllowance >= subtractedValue, \"ERC20: decreased allowance below zero\") */\n      0x04\n      dup3\n      add\n        /* \"#utility.yul\":5577:5598   */\n      mstore\n        /* \"#utility.yul\":5634:5636   */\n      0x25\n        /* \"#utility.yul\":5614:5632   */\n      0x24\n      dup3\n      add\n        /* \"#utility.yul\":5607:5637   */\n      mstore\n        /* \"#utility.yul\":5673:5707   */\n      0x45524332303a2064656372656173656420616c6c6f77616e63652062656c6f77\n        /* \"#utility.yul\":5653:5671   */\n      0x44\n      dup3\n      add\n        /* \"#utility.yul\":5646:5708   */\n      mstore\n      shl(0xd8, 0x207a65726f)\n        /* \"#utility.yul\":5724:5742   */\n      0x64\n      dup3\n      add\n        /* \"#utility.yul\":5717:5752   */\n      mstore\n        /* \"#utility.yul\":5769:5788   */\n      0x84\n      add\n        /* \"ERC20_flat.sol\":13588:13673  require(currentAllowance >= subtractedValue, \"ERC20: decreased allowance below zero\") */\n      tag_140\n        /* \"#utility.yul\":5393:5794   */\n      jump\n        /* \"ERC20_flat.sol\":13588:13673  require(currentAllowance >= subtractedValue, \"ERC20: decreased allowance below zero\") */\n    tag_164:\n        /* \"ERC20_flat.sol\":13707:13767  _approve(owner, spender, currentAllowance - subtractedValue) */\n      tag_130\n        /* \"ERC20_flat.sol\":13716:13721  owner */\n      dup3\n        /* \"ERC20_flat.sol\":13723:13730  spender */\n      dup7\n        /* \"ERC20_flat.sol\":13751:13766  subtractedValue */\n      dup7\n        /* \"ERC20_flat.sol\":13732:13748  currentAllowance */\n      dup5\n        /* \"ERC20_flat.sol\":13732:13766  currentAllowance - subtractedValue */\n      sub\n        /* \"ERC20_flat.sol\":13707:13715  _approve */\n      tag_124\n        /* \"ERC20_flat.sol\":13707:13767  _approve(owner, spender, currentAllowance - subtractedValue) */\n      jump\t// in\n        /* \"ERC20_flat.sol\":10510:10699  function transfer(address to, uint256 amount) public virtual override returns (bool) {... */\n    tag_89:\n        /* \"ERC20_flat.sol\":10589:10593  bool */\n      0x00\n        /* \"ERC20_flat.sol\":776:786  msg.sender */\n      caller\n        /* \"ERC20_flat.sol\":10643:10671  _transfer(owner, to, amount) */\n      tag_123\n        /* \"ERC20_flat.sol\":776:786  msg.sender */\n      dup2\n        /* \"ERC20_flat.sol\":10660:10662  to */\n      dup6\n        /* \"ERC20_flat.sol\":10664:10670  amount */\n      dup6\n        /* \"ERC20_flat.sol\":10643:10652  _transfer */\n      tag_118\n        /* \"ERC20_flat.sol\":10643:10671  _transfer(owner, to, amount) */\n      jump\t// in\n        /* \"ERC20_flat.sol\":2811:3009  function transferOwnership(address newOwner) public virtual onlyOwner {... */\n    tag_104:\n        /* \"ERC20_flat.sol\":2001:2007  _owner */\n      and(sub(shl(0xa0, 0x01), 0x01), sload(0x05))\n        /* \"ERC20_flat.sol\":776:786  msg.sender */\n      caller\n        /* \"ERC20_flat.sol\":2141:2164  owner() == _msgSender() */\n      eq\n        /* \"ERC20_flat.sol\":2133:2201  require(owner() == _msgSender(), \"Ownable: caller is not the owner\") */\n      tag_175\n      jumpi\n      mload(0x40)\n      shl(0xe5, 0x461bcd)\n      dup2\n      mstore\n      0x04\n      add\n      tag_140\n      swap1\n      tag_141\n      jump\t// in\n    tag_175:\n      sub(shl(0xa0, 0x01), 0x01)\n        /* \"ERC20_flat.sol\":2899:2921  newOwner != address(0) */\n      dup2\n      and\n        /* \"ERC20_flat.sol\":2891:2964  require(newOwner != address(0), \"Ownable: new owner is the zero address\") */\n      tag_178\n      jumpi\n      mload(0x40)\n      shl(0xe5, 0x461bcd)\n      dup2\n      mstore\n        /* \"#utility.yul\":2848:2850   */\n      0x20\n        /* \"ERC20_flat.sol\":2891:2964  require(newOwner != address(0), \"Ownable: new owner is the zero address\") */\n      0x04\n      dup3\n      add\n        /* \"#utility.yul\":2830:2851   */\n      mstore\n        /* \"#utility.yul\":2887:2889   */\n      0x26\n        /* \"#utility.yul\":2867:2885   */\n      0x24\n      dup3\n      add\n        /* \"#utility.yul\":2860:2890   */\n      mstore\n        /* \"#utility.yul\":2926:2960   */\n      0x4f776e61626c653a206e6577206f776e657220697320746865207a65726f2061\n        /* \"#utility.yul\":2906:2924   */\n      0x44\n      dup3\n      add\n        /* \"#utility.yul\":2899:2961   */\n      mstore\n      shl(0xd0, 0x646472657373)\n        /* \"#utility.yul\":2977:2995   */\n      0x64\n      dup3\n      add\n        /* \"#utility.yul\":2970:3006   */\n      mstore\n        /* \"#utility.yul\":3023:3042   */\n      0x84\n      add\n        /* \"ERC20_flat.sol\":2891:2964  require(newOwner != address(0), \"Ownable: new owner is the zero address\") */\n      tag_140\n        /* \"#utility.yul\":2646:3048   */\n      jump\n        /* \"ERC20_flat.sol\":2891:2964  require(newOwner != address(0), \"Ownable: new owner is the zero address\") */\n    tag_178:\n        /* \"ERC20_flat.sol\":2974:3002  _transferOwnership(newOwner) */\n      tag_181\n        /* \"ERC20_flat.sol\":2993:3001  newOwner */\n      dup2\n        /* \"ERC20_flat.sol\":2974:2992  _transferOwnership */\n      tag_154\n        /* \"ERC20_flat.sol\":2974:3002  _transferOwnership(newOwner) */\n      jump\t// in\n    tag_181:\n        /* \"ERC20_flat.sol\":2811:3009  function transferOwnership(address newOwner) public virtual onlyOwner {... */\n      pop\n      jump\t// out\n        /* \"ERC20_flat.sol\":14269:14920  function _transfer(... */\n    tag_118:\n      sub(shl(0xa0, 0x01), 0x01)\n        /* \"ERC20_flat.sol\":14395:14413  from != address(0) */\n      dup4\n      and\n        /* \"ERC20_flat.sol\":14387:14455  require(from != address(0), \"ERC20: transfer from the zero address\") */\n      tag_184\n      jumpi\n      mload(0x40)\n      shl(0xe5, 0x461bcd)\n      dup2\n      mstore\n        /* \"#utility.yul\":4784:4786   */\n      0x20\n        /* \"ERC20_flat.sol\":14387:14455  require(from != address(0), \"ERC20: transfer from the zero address\") */\n      0x04\n      dup3\n      add\n        /* \"#utility.yul\":4766:4787   */\n      mstore\n        /* \"#utility.yul\":4823:4825   */\n      0x25\n        /* \"#utility.yul\":4803:4821   */\n      0x24\n      dup3\n      add\n        /* \"#utility.yul\":4796:4826   */\n      mstore\n        /* \"#utility.yul\":4862:4896   */\n      0x45524332303a207472616e736665722066726f6d20746865207a65726f206164\n        /* \"#utility.yul\":4842:4860   */\n      0x44\n      dup3\n      add\n        /* \"#utility.yul\":4835:4897   */\n      mstore\n      shl(0xd8, 0x6472657373)\n        /* \"#utility.yul\":4913:4931   */\n      0x64\n      dup3\n      add\n        /* \"#utility.yul\":4906:4941   */\n      mstore\n        /* \"#utility.yul\":4958:4977   */\n      0x84\n      add\n        /* \"ERC20_flat.sol\":14387:14455  require(from != address(0), \"ERC20: transfer from the zero address\") */\n      tag_140\n        /* \"#utility.yul\":4582:4983   */\n      jump\n        /* \"ERC20_flat.sol\":14387:14455  require(from != address(0), \"ERC20: transfer from the zero address\") */\n    tag_184:\n      sub(shl(0xa0, 0x01), 0x01)\n        /* \"ERC20_flat.sol\":14473:14489  to != address(0) */\n      dup3\n      and\n        /* \"ERC20_flat.sol\":14465:14529  require(to != address(0), \"ERC20: transfer to the zero address\") */\n      tag_187\n      jumpi\n      mload(0x40)\n      shl(0xe5, 0x461bcd)\n      dup2\n      mstore\n        /* \"#utility.yul\":2444:2446   */\n      0x20\n        /* \"ERC20_flat.sol\":14465:14529  require(to != address(0), \"ERC20: transfer to the zero address\") */\n      0x04\n      dup3\n      add\n        /* \"#utility.yul\":2426:2447   */\n      mstore\n        /* \"#utility.yul\":2483:2485   */\n      0x23\n        /* \"#utility.yul\":2463:2481   */\n      0x24\n      dup3\n      add\n        /* \"#utility.yul\":2456:2486   */\n      mstore\n        /* \"#utility.yul\":2522:2556   */\n      0x45524332303a207472616e7366657220746f20746865207a65726f2061646472\n        /* \"#utility.yul\":2502:2520   */\n      0x44\n      dup3\n      add\n        /* \"#utility.yul\":2495:2557   */\n      mstore\n      shl(0xe8, 0x657373)\n        /* \"#utility.yul\":2573:2591   */\n      0x64\n      dup3\n      add\n        /* \"#utility.yul\":2566:2599   */\n      mstore\n        /* \"#utility.yul\":2616:2635   */\n      0x84\n      add\n        /* \"ERC20_flat.sol\":14465:14529  require(to != address(0), \"ERC20: transfer to the zero address\") */\n      tag_140\n        /* \"#utility.yul\":2242:2641   */\n      jump\n        /* \"ERC20_flat.sol\":14465:14529  require(to != address(0), \"ERC20: transfer to the zero address\") */\n    tag_187:\n      sub(shl(0xa0, 0x01), 0x01)\n        /* \"ERC20_flat.sol\":14611:14626  _balances[from] */\n      dup4\n      and\n        /* \"ERC20_flat.sol\":14589:14608  uint256 fromBalance */\n      0x00\n        /* \"ERC20_flat.sol\":14611:14626  _balances[from] */\n      swap1\n      dup2\n      mstore\n      0x20\n      dup2\n      swap1\n      mstore\n      0x40\n      swap1\n      keccak256\n      sload\n        /* \"ERC20_flat.sol\":14644:14665  fromBalance >= amount */\n      dup2\n      dup2\n      lt\n      iszero\n        /* \"ERC20_flat.sol\":14636:14708  require(fromBalance >= amount, \"ERC20: transfer amount exceeds balance\") */\n      tag_192\n      jumpi\n      mload(0x40)\n      shl(0xe5, 0x461bcd)\n      dup2\n      mstore\n        /* \"#utility.yul\":4016:4018   */\n      0x20\n        /* \"ERC20_flat.sol\":14636:14708  require(fromBalance >= amount, \"ERC20: transfer amount exceeds balance\") */\n      0x04\n      dup3\n      add\n        /* \"#utility.yul\":3998:4019   */\n      mstore\n        /* \"#utility.yul\":4055:4057   */\n      0x26\n        /* \"#utility.yul\":4035:4053   */\n      0x24\n      dup3\n      add\n        /* \"#utility.yul\":4028:4058   */\n      mstore\n        /* \"#utility.yul\":4094:4128   */\n      0x45524332303a207472616e7366657220616d6f756e7420657863656564732062\n        /* \"#utility.yul\":4074:4092   */\n      0x44\n      dup3\n      add\n        /* \"#utility.yul\":4067:4129   */\n      mstore\n      shl(0xd0, 0x616c616e6365)\n        /* \"#utility.yul\":4145:4163   */\n      0x64\n      dup3\n      add\n        /* \"#utility.yul\":4138:4174   */\n      mstore\n        /* \"#utility.yul\":4191:4210   */\n      0x84\n      add\n        /* \"ERC20_flat.sol\":14636:14708  require(fromBalance >= amount, \"ERC20: transfer amount exceeds balance\") */\n      tag_140\n        /* \"#utility.yul\":3814:4216   */\n      jump\n        /* \"ERC20_flat.sol\":14636:14708  require(fromBalance >= amount, \"ERC20: transfer amount exceeds balance\") */\n    tag_192:\n      sub(shl(0xa0, 0x01), 0x01)\n        /* \"ERC20_flat.sol\":14742:14757  _balances[from] */\n      dup1\n      dup6\n      and\n        /* \"ERC20_flat.sol\":14742:14751  _balances */\n      0x00\n        /* \"ERC20_flat.sol\":14742:14757  _balances[from] */\n      swap1\n      dup2\n      mstore\n      0x20\n      dup2\n      swap1\n      mstore\n      0x40\n      dup1\n      dup3\n      keccak256\n        /* \"ERC20_flat.sol\":14760:14780  fromBalance - amount */\n      dup6\n      dup6\n      sub\n        /* \"ERC20_flat.sol\":14742:14780  _balances[from] = fromBalance - amount */\n      swap1\n      sstore\n        /* \"ERC20_flat.sol\":14800:14813  _balances[to] */\n      swap2\n      dup6\n      and\n      dup2\n      mstore\n      swap1\n      dup2\n      keccak256\n        /* \"ERC20_flat.sol\":14800:14823  _balances[to] += amount */\n      dup1\n      sload\n        /* \"ERC20_flat.sol\":14774:14780  amount */\n      dup5\n      swap3\n        /* \"ERC20_flat.sol\":14742:14751  _balances */\n      swap1\n        /* \"ERC20_flat.sol\":14800:14823  _balances[to] += amount */\n      tag_195\n      swap1\n        /* \"ERC20_flat.sol\":14774:14780  amount */\n      dup5\n      swap1\n        /* \"ERC20_flat.sol\":14800:14823  _balances[to] += amount */\n      tag_120\n      jump\t// in\n    tag_195:\n      swap3\n      pop\n      pop\n      dup2\n      swap1\n      sstore\n      pop\n        /* \"ERC20_flat.sol\":14854:14856  to */\n      dup3\n      sub(shl(0xa0, 0x01), 0x01)\n        /* \"ERC20_flat.sol\":14839:14865  Transfer(from, to, amount) */\n      and\n        /* \"ERC20_flat.sol\":14848:14852  from */\n      dup5\n      sub(shl(0xa0, 0x01), 0x01)\n        /* \"ERC20_flat.sol\":14839:14865  Transfer(from, to, amount) */\n      and\n      0xddf252ad1be2c89b69c2b068fc378daa952ba7f163c4a11628f55a4df523b3ef\n        /* \"ERC20_flat.sol\":14858:14864  amount */\n      dup5\n        /* \"ERC20_flat.sol\":14839:14865  Transfer(from, to, amount) */\n      mload(0x40)\n      tag_196\n      swap2\n        /* \"#utility.yul\":6305:6330   */\n      dup2\n      mstore\n        /* \"#utility.yul\":6293:6295   */\n      0x20\n        /* \"#utility.yul\":6278:6296   */\n      add\n      swap1\n        /* \"#utility.yul\":6159:6336   */\n      jump\n        /* \"ERC20_flat.sol\":14839:14865  Transfer(from, to, amount) */\n    tag_196:\n      mload(0x40)\n      dup1\n      swap2\n      sub\n      swap1\n      log3\n        /* \"ERC20_flat.sol\":14876:14913  _afterTokenTransfer(from, to, amount) */\n    tag_197:\n        /* \"ERC20_flat.sol\":14377:14920  {... */\n      pop\n        /* \"ERC20_flat.sol\":14269:14920  function _transfer(... */\n      pop\n      pop\n      pop\n      jump\t// out\n        /* \"ERC20_flat.sol\":16904:17274  function _approve(... */\n    tag_124:\n      sub(shl(0xa0, 0x01), 0x01)\n        /* \"ERC20_flat.sol\":17035:17054  owner != address(0) */\n      dup4\n      and\n        /* \"ERC20_flat.sol\":17027:17095  require(owner != address(0), \"ERC20: approve from the zero address\") */\n      tag_200\n      jumpi\n      mload(0x40)\n      shl(0xe5, 0x461bcd)\n      dup2\n      mstore\n        /* \"#utility.yul\":5190:5192   */\n      0x20\n        /* \"ERC20_flat.sol\":17027:17095  require(owner != address(0), \"ERC20: approve from the zero address\") */\n      0x04\n      dup3\n      add\n        /* \"#utility.yul\":5172:5193   */\n      mstore\n        /* \"#utility.yul\":5229:5231   */\n      0x24\n        /* \"#utility.yul\":5209:5227   */\n      dup1\n      dup3\n      add\n        /* \"#utility.yul\":5202:5232   */\n      mstore\n        /* \"#utility.yul\":5268:5302   */\n      0x45524332303a20617070726f76652066726f6d20746865207a65726f20616464\n        /* \"#utility.yul\":5248:5266   */\n      0x44\n      dup3\n      add\n        /* \"#utility.yul\":5241:5303   */\n      mstore\n      shl(0xe0, 0x72657373)\n        /* \"#utility.yul\":5319:5337   */\n      0x64\n      dup3\n      add\n        /* \"#utility.yul\":5312:5346   */\n      mstore\n        /* \"#utility.yul\":5363:5382   */\n      0x84\n      add\n        /* \"ERC20_flat.sol\":17027:17095  require(owner != address(0), \"ERC20: approve from the zero address\") */\n      tag_140\n        /* \"#utility.yul\":4988:5388   */\n      jump\n        /* \"ERC20_flat.sol\":17027:17095  require(owner != address(0), \"ERC20: approve from the zero address\") */\n    tag_200:\n      sub(shl(0xa0, 0x01), 0x01)\n        /* \"ERC20_flat.sol\":17113:17134  spender != address(0) */\n      dup3\n      and\n        /* \"ERC20_flat.sol\":17105:17173  require(spender != address(0), \"ERC20: approve to the zero address\") */\n      tag_203\n      jumpi\n      mload(0x40)\n      shl(0xe5, 0x461bcd)\n      dup2\n      mstore\n        /* \"#utility.yul\":3255:3257   */\n      0x20\n        /* \"ERC20_flat.sol\":17105:17173  require(spender != address(0), \"ERC20: approve to the zero address\") */\n      0x04\n      dup3\n      add\n        /* \"#utility.yul\":3237:3258   */\n      mstore\n        /* \"#utility.yul\":3294:3296   */\n      0x22\n        /* \"#utility.yul\":3274:3292   */\n      0x24\n      dup3\n      add\n        /* \"#utility.yul\":3267:3297   */\n      mstore\n        /* \"#utility.yul\":3333:3367   */\n      0x45524332303a20617070726f766520746f20746865207a65726f206164647265\n        /* \"#utility.yul\":3313:3331   */\n      0x44\n      dup3\n      add\n        /* \"#utility.yul\":3306:3368   */\n      mstore\n      shl(0xf0, 0x7373)\n        /* \"#utility.yul\":3384:3402   */\n      0x64\n      dup3\n      add\n        /* \"#utility.yul\":3377:3409   */\n      mstore\n        /* \"#utility.yul\":3426:3445   */\n      0x84\n      add\n        /* \"ERC20_flat.sol\":17105:17173  require(spender != address(0), \"ERC20: approve to the zero address\") */\n      tag_140\n        /* \"#utility.yul\":3053:3451   */\n      jump\n        /* \"ERC20_flat.sol\":17105:17173  require(spender != address(0), \"ERC20: approve to the zero address\") */\n    tag_203:\n      sub(shl(0xa0, 0x01), 0x01)\n        /* \"ERC20_flat.sol\":17184:17202  _allowances[owner] */\n      dup4\n      dup2\n      and\n      0x00\n      dup2\n      dup2\n      mstore\n        /* \"ERC20_flat.sol\":17184:17195  _allowances */\n      0x01\n        /* \"ERC20_flat.sol\":17184:17202  _allowances[owner] */\n      0x20\n      swap1\n      dup2\n      mstore\n      0x40\n      dup1\n      dup4\n      keccak256\n        /* \"ERC20_flat.sol\":17184:17211  _allowances[owner][spender] */\n      swap5\n      dup8\n      and\n      dup1\n      dup5\n      mstore\n      swap5\n      dup3\n      mstore\n      swap2\n      dup3\n      swap1\n      keccak256\n        /* \"ERC20_flat.sol\":17184:17220  _allowances[owner][spender] = amount */\n      dup6\n      swap1\n      sstore\n        /* \"ERC20_flat.sol\":17235:17267  Approval(owner, spender, amount) */\n      swap1\n      mload\n        /* \"#utility.yul\":6305:6330   */\n      dup5\n      dup2\n      mstore\n        /* \"ERC20_flat.sol\":17235:17267  Approval(owner, spender, amount) */\n      0x8c5be1e5ebec7d5bd14f71427d1e84f3dd0314c0f7b2291e5b200ac8c7c3b925\n      swap2\n        /* \"#utility.yul\":6278:6296   */\n      add\n        /* \"ERC20_flat.sol\":17235:17267  Approval(owner, spender, amount) */\n      mload(0x40)\n      dup1\n      swap2\n      sub\n      swap1\n      log3\n        /* \"ERC20_flat.sol\":16904:17274  function _approve(... */\n      pop\n      pop\n      pop\n      jump\t// out\n        /* \"ERC20_flat.sol\":17551:17992  function _spendAllowance(... */\n    tag_129:\n      sub(shl(0xa0, 0x01), 0x01)\n        /* \"ERC20_flat.sol\":10872:10890  _allowances[owner] */\n      dup4\n      dup2\n      and\n        /* \"ERC20_flat.sol\":17681:17705  uint256 currentAllowance */\n      0x00\n        /* \"ERC20_flat.sol\":10872:10890  _allowances[owner] */\n      swap1\n      dup2\n      mstore\n        /* \"ERC20_flat.sol\":10872:10883  _allowances */\n      0x01\n        /* \"ERC20_flat.sol\":10872:10890  _allowances[owner] */\n      0x20\n      swap1\n      dup2\n      mstore\n      0x40\n      dup1\n      dup4\n      keccak256\n        /* \"ERC20_flat.sol\":10872:10899  _allowances[owner][spender] */\n      swap4\n      dup7\n      and\n      dup4\n      mstore\n      swap3\n      swap1\n      mstore\n      keccak256\n      sload\n      not(0x00)\n        /* \"ERC20_flat.sol\":17747:17784  currentAllowance != type(uint256).max */\n      dup2\n      eq\n        /* \"ERC20_flat.sol\":17743:17986  if (currentAllowance != type(uint256).max) {... */\n      tag_197\n      jumpi\n        /* \"ERC20_flat.sol\":17828:17834  amount */\n      dup2\n        /* \"ERC20_flat.sol\":17808:17824  currentAllowance */\n      dup2\n        /* \"ERC20_flat.sol\":17808:17834  currentAllowance >= amount */\n      lt\n      iszero\n        /* \"ERC20_flat.sol\":17800:17868  require(currentAllowance >= amount, \"ERC20: insufficient allowance\") */\n      tag_210\n      jumpi\n      mload(0x40)\n      shl(0xe5, 0x461bcd)\n      dup2\n      mstore\n        /* \"#utility.yul\":3658:3660   */\n      0x20\n        /* \"ERC20_flat.sol\":17800:17868  require(currentAllowance >= amount, \"ERC20: insufficient allowance\") */\n      0x04\n      dup3\n      add\n        /* \"#utility.yul\":3640:3661   */\n      mstore\n        /* \"#utility.yul\":3697:3699   */\n      0x1d\n        /* \"#utility.yul\":3677:3695   */\n      0x24\n      dup3\n      add\n        /* \"#utility.yul\":3670:3700   */\n      mstore\n        /* \"#utility.yul\":3736:3767   */\n      0x45524332303a20696e73756666696369656e7420616c6c6f77616e6365000000\n        /* \"#utility.yul\":3716:3734   */\n      0x44\n      dup3\n      add\n        /* \"#utility.yul\":3709:3768   */\n      mstore\n        /* \"#utility.yul\":3785:3803   */\n      0x64\n      add\n        /* \"ERC20_flat.sol\":17800:17868  require(currentAllowance >= amount, \"ERC20: insufficient allowance\") */\n      tag_140\n        /* \"#utility.yul\":3456:3809   */\n      jump\n        /* \"ERC20_flat.sol\":17800:17868  require(currentAllowance >= amount, \"ERC20: insufficient allowance\") */\n    tag_210:\n        /* \"ERC20_flat.sol\":17910:17961  _approve(owner, spender, currentAllowance - amount) */\n      tag_197\n        /* \"ERC20_flat.sol\":17919:17924  owner */\n      dup5\n        /* \"ERC20_flat.sol\":17926:17933  spender */\n      dup5\n        /* \"ERC20_flat.sol\":17954:17960  amount */\n      dup5\n        /* \"ERC20_flat.sol\":17935:17951  currentAllowance */\n      dup5\n        /* \"ERC20_flat.sol\":17935:17960  currentAllowance - amount */\n      sub\n        /* \"ERC20_flat.sol\":17910:17918  _approve */\n      tag_124\n        /* \"ERC20_flat.sol\":17910:17961  _approve(owner, spender, currentAllowance - amount) */\n      jump\t// in\n        /* \"ERC20_flat.sol\":15196:15585  function _mint(address account, uint256 amount) internal virtual {... */\n    tag_145:\n      sub(shl(0xa0, 0x01), 0x01)\n        /* \"ERC20_flat.sol\":15279:15300  account != address(0) */\n      dup3\n      and\n        /* \"ERC20_flat.sol\":15271:15336  require(account != address(0), \"ERC20: mint to the zero address\") */\n      tag_215\n      jumpi\n      mload(0x40)\n      shl(0xe5, 0x461bcd)\n      dup2\n      mstore\n        /* \"#utility.yul\":6001:6003   */\n      0x20\n        /* \"ERC20_flat.sol\":15271:15336  require(account != address(0), \"ERC20: mint to the zero address\") */\n      0x04\n      dup3\n      add\n        /* \"#utility.yul\":5983:6004   */\n      mstore\n        /* \"#utility.yul\":6040:6042   */\n      0x1f\n        /* \"#utility.yul\":6020:6038   */\n      0x24\n      dup3\n      add\n        /* \"#utility.yul\":6013:6043   */\n      mstore\n        /* \"#utility.yul\":6079:6112   */\n      0x45524332303a206d696e7420746f20746865207a65726f206164647265737300\n        /* \"#utility.yul\":6059:6077   */\n      0x44\n      dup3\n      add\n        /* \"#utility.yul\":6052:6113   */\n      mstore\n        /* \"#utility.yul\":6130:6148   */\n      0x64\n      add\n        /* \"ERC20_flat.sol\":15271:15336  require(account != address(0), \"ERC20: mint to the zero address\") */\n      tag_140\n        /* \"#utility.yul\":5799:6154   */\n      jump\n        /* \"ERC20_flat.sol\":15271:15336  require(account != address(0), \"ERC20: mint to the zero address\") */\n    tag_215:\n        /* \"ERC20_flat.sol\":15423:15429  amount */\n      dup1\n        /* \"ERC20_flat.sol\":15407:15419  _totalSupply */\n      0x02\n      0x00\n        /* \"ERC20_flat.sol\":15407:15429  _totalSupply += amount */\n      dup3\n      dup3\n      sload\n      tag_219\n      swap2\n      swap1\n      tag_120\n      jump\t// in\n    tag_219:\n      swap1\n      swap2\n      sstore\n      pop\n      pop\n      sub(shl(0xa0, 0x01), 0x01)\n        /* \"ERC20_flat.sol\":15439:15457  _balances[account] */\n      dup3\n      and\n        /* \"ERC20_flat.sol\":15439:15448  _balances */\n      0x00\n        /* \"ERC20_flat.sol\":15439:15457  _balances[account] */\n      swap1\n      dup2\n      mstore\n      0x20\n      dup2\n      swap1\n      mstore\n      0x40\n      dup2\n      keccak256\n        /* \"ERC20_flat.sol\":15439:15467  _balances[account] += amount */\n      dup1\n      sload\n        /* \"ERC20_flat.sol\":15461:15467  amount */\n      dup4\n      swap3\n        /* \"ERC20_flat.sol\":15439:15448  _balances */\n      swap1\n        /* \"ERC20_flat.sol\":15439:15467  _balances[account] += amount */\n      tag_220\n      swap1\n        /* \"ERC20_flat.sol\":15461:15467  amount */\n      dup5\n      swap1\n        /* \"ERC20_flat.sol\":15439:15467  _balances[account] += amount */\n      tag_120\n      jump\t// in\n    tag_220:\n      swap1\n      swap2\n      sstore\n      pop\n      pop\n        /* \"ERC20_flat.sol\":15482:15519  Transfer(address(0), account, amount) */\n      mload(0x40)\n        /* \"#utility.yul\":6305:6330   */\n      dup2\n      dup2\n      mstore\n      sub(shl(0xa0, 0x01), 0x01)\n        /* \"ERC20_flat.sol\":15482:15519  Transfer(address(0), account, amount) */\n      dup4\n      and\n      swap1\n        /* \"ERC20_flat.sol\":15499:15500  0 */\n      0x00\n      swap1\n        /* \"ERC20_flat.sol\":15482:15519  Transfer(address(0), account, amount) */\n      0xddf252ad1be2c89b69c2b068fc378daa952ba7f163c4a11628f55a4df523b3ef\n      swap1\n        /* \"#utility.yul\":6293:6295   */\n      0x20\n        /* \"#utility.yul\":6278:6296   */\n      add\n        /* \"ERC20_flat.sol\":15482:15519  Transfer(address(0), account, amount) */\n      mload(0x40)\n      dup1\n      swap2\n      sub\n      swap1\n      log3\n        /* \"ERC20_flat.sol\":19717:19823  function mint(address to, uint256 amount) public onlyOwner {... */\n      pop\n      pop\n      jump\t// out\n        /* \"ERC20_flat.sol\":3163:3350  function _transferOwnership(address newOwner) internal virtual {... */\n    tag_154:\n        /* \"ERC20_flat.sol\":3255:3261  _owner */\n      0x05\n      dup1\n      sload\n      sub(shl(0xa0, 0x01), 0x01)\n        /* \"ERC20_flat.sol\":3271:3288  _owner = newOwner */\n      dup4\n      dup2\n      and\n      not(sub(shl(0xa0, 0x01), 0x01))\n      dup4\n      and\n      dup2\n      or\n      swap1\n      swap4\n      sstore\n        /* \"ERC20_flat.sol\":3303:3343  OwnershipTransferred(oldOwner, newOwner) */\n      mload(0x40)\n        /* \"ERC20_flat.sol\":3255:3261  _owner */\n      swap2\n      and\n      swap2\n        /* \"ERC20_flat.sol\":3271:3288  _owner = newOwner */\n      swap1\n        /* \"ERC20_flat.sol\":3255:3261  _owner */\n      dup3\n      swap1\n        /* \"ERC20_flat.sol\":3303:3343  OwnershipTransferred(oldOwner, newOwner) */\n      0x8be0079c531659141344cd1fd0a4f28419497f9722a3daafe3b4186f6b6457e0\n      swap1\n        /* \"ERC20_flat.sol\":3236:3252  address oldOwner */\n      0x00\n      swap1\n        /* \"ERC20_flat.sol\":3303:3343  OwnershipTransferred(oldOwner, newOwner) */\n      log3\n        /* \"ERC20_flat.sol\":3226:3350  {... */\n      pop\n        /* \"ERC20_flat.sol\":3163:3350  function _transferOwnership(address newOwner) internal virtual {... */\n      pop\n      jump\t// out\n        /* \"#utility.yul\":14:187   */\n    tag_227:\n        /* \"#utility.yul\":82:102   */\n      dup1\n      calldataload\n      sub(shl(0xa0, 0x01), 0x01)\n        /* \"#utility.yul\":131:162   */\n      dup2\n      and\n        /* \"#utility.yul\":121:163   */\n      dup2\n      eq\n        /* \"#utility.yul\":111:181   */\n      tag_229\n      jumpi\n        /* \"#utility.yul\":177:178   */\n      0x00\n        /* \"#utility.yul\":174:175   */\n      dup1\n        /* \"#utility.yul\":167:179   */\n      revert\n        /* \"#utility.yul\":111:181   */\n    tag_229:\n        /* \"#utility.yul\":14:187   */\n      swap2\n      swap1\n      pop\n      jump\t// out\n        /* \"#utility.yul\":192:378   */\n    tag_66:\n        /* \"#utility.yul\":251:257   */\n      0x00\n        /* \"#utility.yul\":304:306   */\n      0x20\n        /* \"#utility.yul\":292:301   */\n      dup3\n        /* \"#utility.yul\":283:290   */\n      dup5\n        /* \"#utility.yul\":279:302   */\n      sub\n        /* \"#utility.yul\":275:307   */\n      slt\n        /* \"#utility.yul\":272:324   */\n      iszero\n      tag_231\n      jumpi\n        /* \"#utility.yul\":320:321   */\n      0x00\n        /* \"#utility.yul\":317:318   */\n      dup1\n        /* \"#utility.yul\":310:322   */\n      revert\n        /* \"#utility.yul\":272:324   */\n    tag_231:\n        /* \"#utility.yul\":343:372   */\n      tag_232\n        /* \"#utility.yul\":362:371   */\n      dup3\n        /* \"#utility.yul\":343:372   */\n      tag_227\n      jump\t// in\n    tag_232:\n        /* \"#utility.yul\":333:372   */\n      swap4\n        /* \"#utility.yul\":192:378   */\n      swap3\n      pop\n      pop\n      pop\n      jump\t// out\n        /* \"#utility.yul\":383:643   */\n    tag_98:\n        /* \"#utility.yul\":451:457   */\n      0x00\n        /* \"#utility.yul\":459:465   */\n      dup1\n        /* \"#utility.yul\":512:514   */\n      0x40\n        /* \"#utility.yul\":500:509   */\n      dup4\n        /* \"#utility.yul\":491:498   */\n      dup6\n        /* \"#utility.yul\":487:510   */\n      sub\n        /* \"#utility.yul\":483:515   */\n      slt\n        /* \"#utility.yul\":480:532   */\n      iszero\n      tag_234\n      jumpi\n        /* \"#utility.yul\":528:529   */\n      0x00\n        /* \"#utility.yul\":525:526   */\n      dup1\n        /* \"#utility.yul\":518:530   */\n      revert\n        /* \"#utility.yul\":480:532   */\n    tag_234:\n        /* \"#utility.yul\":551:580   */\n      tag_235\n        /* \"#utility.yul\":570:579   */\n      dup4\n        /* \"#utility.yul\":551:580   */\n      tag_227\n      jump\t// in\n    tag_235:\n        /* \"#utility.yul\":541:580   */\n      swap2\n      pop\n        /* \"#utility.yul\":599:637   */\n      tag_236\n        /* \"#utility.yul\":633:635   */\n      0x20\n        /* \"#utility.yul\":622:631   */\n      dup5\n        /* \"#utility.yul\":618:636   */\n      add\n        /* \"#utility.yul\":599:637   */\n      tag_227\n      jump\t// in\n    tag_236:\n        /* \"#utility.yul\":589:637   */\n      swap1\n      pop\n        /* \"#utility.yul\":383:643   */\n      swap3\n      pop\n      swap3\n      swap1\n      pop\n      jump\t// out\n        /* \"#utility.yul\":648:976   */\n    tag_46:\n        /* \"#utility.yul\":725:731   */\n      0x00\n        /* \"#utility.yul\":733:739   */\n      dup1\n        /* \"#utility.yul\":741:747   */\n      0x00\n        /* \"#utility.yul\":794:796   */\n      0x60\n        /* \"#utility.yul\":782:791   */\n      dup5\n        /* \"#utility.yul\":773:780   */\n      dup7\n        /* \"#utility.yul\":769:792   */\n      sub\n        /* \"#utility.yul\":765:797   */\n      slt\n        /* \"#utility.yul\":762:814   */\n      iszero\n      tag_238\n      jumpi\n        /* \"#utility.yul\":810:811   */\n      0x00\n        /* \"#utility.yul\":807:808   */\n      dup1\n        /* \"#utility.yul\":800:812   */\n      revert\n        /* \"#utility.yul\":762:814   */\n    tag_238:\n        /* \"#utility.yul\":833:862   */\n      tag_239\n        /* \"#utility.yul\":852:861   */\n      dup5\n        /* \"#utility.yul\":833:862   */\n      tag_227\n      jump\t// in\n    tag_239:\n        /* \"#utility.yul\":823:862   */\n      swap3\n      pop\n        /* \"#utility.yul\":881:919   */\n      tag_240\n        /* \"#utility.yul\":915:917   */\n      0x20\n        /* \"#utility.yul\":904:913   */\n      dup6\n        /* \"#utility.yul\":900:918   */\n      add\n        /* \"#utility.yul\":881:919   */\n      tag_227\n      jump\t// in\n    tag_240:\n        /* \"#utility.yul\":871:919   */\n      swap2\n      pop\n        /* \"#utility.yul\":966:968   */\n      0x40\n        /* \"#utility.yul\":955:964   */\n      dup5\n        /* \"#utility.yul\":951:969   */\n      add\n        /* \"#utility.yul\":938:970   */\n      calldataload\n        /* \"#utility.yul\":928:970   */\n      swap1\n      pop\n        /* \"#utility.yul\":648:976   */\n      swap3\n      pop\n      swap3\n      pop\n      swap3\n      jump\t// out\n        /* \"#utility.yul\":981:1235   */\n    tag_29:\n        /* \"#utility.yul\":1049:1055   */\n      0x00\n        /* \"#utility.yul\":1057:1063   */\n      dup1\n        /* \"#utility.yul\":1110:1112   */\n      0x40\n        /* \"#utility.yul\":1098:1107   */\n      dup4\n        /* \"#utility.yul\":1089:1096   */\n      dup6\n        /* \"#utility.yul\":1085:1108   */\n      sub\n        /* \"#utility.yul\":1081:1113   */\n      slt\n        /* \"#utility.yul\":1078:1130   */\n      iszero\n      tag_242\n      jumpi\n        /* \"#utility.yul\":1126:1127   */\n      0x00\n        /* \"#utility.yul\":1123:1124   */\n      dup1\n        /* \"#utility.yul\":1116:1128   */\n      revert\n        /* \"#utility.yul\":1078:1130   */\n    tag_242:\n        /* \"#utility.yul\":1149:1178   */\n      tag_243\n        /* \"#utility.yul\":1168:1177   */\n      dup4\n        /* \"#utility.yul\":1149:1178   */\n      tag_227\n      jump\t// in\n    tag_243:\n        /* \"#utility.yul\":1139:1178   */\n      swap5\n        /* \"#utility.yul\":1225:1227   */\n      0x20\n        /* \"#utility.yul\":1210:1228   */\n      swap4\n      swap1\n      swap4\n      add\n        /* \"#utility.yul\":1197:1229   */\n      calldataload\n      swap4\n      pop\n      pop\n      pop\n        /* \"#utility.yul\":981:1235   */\n      jump\t// out\n        /* \"#utility.yul\":1640:2237   */\n    tag_26:\n        /* \"#utility.yul\":1752:1756   */\n      0x00\n        /* \"#utility.yul\":1781:1783   */\n      0x20\n        /* \"#utility.yul\":1810:1812   */\n      dup1\n        /* \"#utility.yul\":1799:1808   */\n      dup4\n        /* \"#utility.yul\":1792:1813   */\n      mstore\n        /* \"#utility.yul\":1842:1848   */\n      dup4\n        /* \"#utility.yul\":1836:1849   */\n      mload\n        /* \"#utility.yul\":1885:1891   */\n      dup1\n        /* \"#utility.yul\":1880:1882   */\n      dup3\n        /* \"#utility.yul\":1869:1878   */\n      dup6\n        /* \"#utility.yul\":1865:1883   */\n      add\n        /* \"#utility.yul\":1858:1892   */\n      mstore\n        /* \"#utility.yul\":1910:1911   */\n      0x00\n        /* \"#utility.yul\":1920:2060   */\n    tag_247:\n        /* \"#utility.yul\":1934:1940   */\n      dup2\n        /* \"#utility.yul\":1931:1932   */\n      dup2\n        /* \"#utility.yul\":1928:1941   */\n      lt\n        /* \"#utility.yul\":1920:2060   */\n      iszero\n      tag_249\n      jumpi\n        /* \"#utility.yul\":2029:2043   */\n      dup6\n      dup2\n      add\n        /* \"#utility.yul\":2025:2048   */\n      dup4\n      add\n        /* \"#utility.yul\":2019:2049   */\n      mload\n        /* \"#utility.yul\":1995:2012   */\n      dup6\n      dup3\n      add\n        /* \"#utility.yul\":2014:2016   */\n      0x40\n        /* \"#utility.yul\":1991:2017   */\n      add\n        /* \"#utility.yul\":1984:2050   */\n      mstore\n        /* \"#utility.yul\":1949:1959   */\n      dup3\n      add\n        /* \"#utility.yul\":1920:2060   */\n      jump(tag_247)\n    tag_249:\n        /* \"#utility.yul\":2078:2084   */\n      dup2\n        /* \"#utility.yul\":2075:2076   */\n      dup2\n        /* \"#utility.yul\":2072:2085   */\n      gt\n        /* \"#utility.yul\":2069:2160   */\n      iszero\n      tag_250\n      jumpi\n        /* \"#utility.yul\":2148:2149   */\n      0x00\n        /* \"#utility.yul\":2143:2145   */\n      0x40\n        /* \"#utility.yul\":2134:2140   */\n      dup4\n        /* \"#utility.yul\":2123:2132   */\n      dup8\n        /* \"#utility.yul\":2119:2141   */\n      add\n        /* \"#utility.yul\":2115:2146   */\n      add\n        /* \"#utility.yul\":2108:2150   */\n      mstore\n        /* \"#utility.yul\":2069:2160   */\n    tag_250:\n      pop\n        /* \"#utility.yul\":2221:2223   */\n      0x1f\n        /* \"#utility.yul\":2200:2215   */\n      add\n      not(0x1f)\n        /* \"#utility.yul\":2196:2225   */\n      and\n        /* \"#utility.yul\":2181:2226   */\n      swap3\n      swap1\n      swap3\n      add\n        /* \"#utility.yul\":2228:2230   */\n      0x40\n        /* \"#utility.yul\":2177:2231   */\n      add\n      swap4\n        /* \"#utility.yul\":1640:2237   */\n      swap3\n      pop\n      pop\n      pop\n      jump\t// out\n        /* \"#utility.yul\":4221:4577   */\n    tag_141:\n        /* \"#utility.yul\":4423:4425   */\n      0x20\n        /* \"#utility.yul\":4405:4426   */\n      dup1\n      dup3\n      mstore\n        /* \"#utility.yul\":4442:4460   */\n      dup2\n      dup2\n      add\n        /* \"#utility.yul\":4435:4465   */\n      mstore\n        /* \"#utility.yul\":4501:4535   */\n      0x4f776e61626c653a2063616c6c6572206973206e6f7420746865206f776e6572\n        /* \"#utility.yul\":4496:4498   */\n      0x40\n        /* \"#utility.yul\":4481:4499   */\n      dup3\n      add\n        /* \"#utility.yul\":4474:4536   */\n      mstore\n        /* \"#utility.yul\":4568:4570   */\n      0x60\n        /* \"#utility.yul\":4553:4571   */\n      add\n      swap1\n        /* \"#utility.yul\":4221:4577   */\n      jump\t// out\n        /* \"#utility.yul\":6530:6658   */\n    tag_120:\n        /* \"#utility.yul\":6570:6573   */\n      0x00\n        /* \"#utility.yul\":6601:6602   */\n      dup3\n        /* \"#utility.yul\":6597:6603   */\n      not\n        /* \"#utility.yul\":6594:6595   */\n      dup3\n        /* \"#utility.yul\":6591:6604   */\n      gt\n        /* \"#utility.yul\":6588:6627   */\n      iszero\n      tag_265\n      jumpi\n        /* \"#utility.yul\":6607:6625   */\n      tag_265\n      tag_266\n      jump\t// in\n    tag_265:\n      pop\n        /* \"#utility.yul\":6643:6652   */\n      add\n      swap1\n        /* \"#utility.yul\":6530:6658   */\n      jump\t// out\n        /* \"#utility.yul\":6663:6831   */\n    tag_116:\n        /* \"#utility.yul\":6703:6710   */\n      0x00\n        /* \"#utility.yul\":6769:6770   */\n      dup2\n        /* \"#utility.yul\":6765:6766   */\n      0x00\n        /* \"#utility.yul\":6761:6767   */\n      not\n        /* \"#utility.yul\":6757:6771   */\n      div\n        /* \"#utility.yul\":6754:6755   */\n      dup4\n        /* \"#utility.yul\":6751:6772   */\n      gt\n        /* \"#utility.yul\":6746:6747   */\n      dup3\n        /* \"#utility.yul\":6739:6748   */\n      iszero\n        /* \"#utility.yul\":6732:6749   */\n      iszero\n        /* \"#utility.yul\":6728:6773   */\n      and\n        /* \"#utility.yul\":6725:6796   */\n      iszero\n      tag_269\n      jumpi\n        /* \"#utility.yul\":6776:6794   */\n      tag_269\n      tag_266\n      jump\t// in\n    tag_269:\n      pop\n        /* \"#utility.yul\":6816:6825   */\n      mul\n      swap1\n        /* \"#utility.yul\":6663:6831   */\n      jump\t// out\n        /* \"#utility.yul\":6836:7216   */\n    tag_107:\n        /* \"#utility.yul\":6915:6916   */\n      0x01\n        /* \"#utility.yul\":6911:6923   */\n      dup2\n      dup2\n      shr\n      swap1\n        /* \"#utility.yul\":6958:6970   */\n      dup3\n      and\n      dup1\n        /* \"#utility.yul\":6979:7040   */\n      tag_271\n      jumpi\n        /* \"#utility.yul\":7033:7037   */\n      0x7f\n        /* \"#utility.yul\":7025:7031   */\n      dup3\n        /* \"#utility.yul\":7021:7038   */\n      and\n        /* \"#utility.yul\":7011:7038   */\n      swap2\n      pop\n        /* \"#utility.yul\":6979:7040   */\n    tag_271:\n        /* \"#utility.yul\":7086:7088   */\n      0x20\n        /* \"#utility.yul\":7078:7084   */\n      dup3\n        /* \"#utility.yul\":7075:7089   */\n      lt\n        /* \"#utility.yul\":7055:7073   */\n      dup2\n        /* \"#utility.yul\":7052:7090   */\n      eq\n        /* \"#utility.yul\":7049:7210   */\n      iszero\n      tag_272\n      jumpi\n        /* \"#utility.yul\":7132:7142   */\n      0x4e487b71\n        /* \"#utility.yul\":7127:7130   */\n      0xe0\n        /* \"#utility.yul\":7123:7143   */\n      shl\n        /* \"#utility.yul\":7120:7121   */\n      0x00\n        /* \"#utility.yul\":7113:7144   */\n      mstore\n        /* \"#utility.yul\":7167:7171   */\n      0x22\n        /* \"#utility.yul\":7164:7165   */\n      0x04\n        /* \"#utility.yul\":7157:7172   */\n      mstore\n        /* \"#utility.yul\":7195:7199   */\n      0x24\n        /* \"#utility.yul\":7192:7193   */\n      0x00\n        /* \"#utility.yul\":7185:7200   */\n      revert\n        /* \"#utility.yul\":7049:7210   */\n    tag_272:\n      pop\n        /* \"#utility.yul\":6836:7216   */\n      swap2\n      swap1\n      pop\n      jump\t// out\n        /* \"#utility.yul\":7221:7348   */\n    tag_266:\n        /* \"#utility.yul\":7282:7292   */\n      0x4e487b71\n        /* \"#utility.yul\":7277:7280   */\n      0xe0\n        /* \"#utility.yul\":7273:7293   */\n      shl\n        /* \"#utility.yul\":7270:7271   */\n      0x00\n        /* \"#utility.yul\":7263:7294   */\n      mstore\n        /* \"#utility.yul\":7313:7317   */\n      0x11\n        /* \"#utility.yul\":7310:7311   */\n      0x04\n        /* \"#utility.yul\":7303:7318   */\n      mstore\n        /* \"#utility.yul\":7337:7341   */\n      0x24\n        /* \"#utility.yul\":7334:7335   */\n      0x00\n        /* \"#utility.yul\":7327:7342   */\n      revert\n\n    auxdata: 0xa2646970667358221220edfbc54f13e366d56fd954e80575c44658d1bf158467384d4ee9390061a6132864736f6c63430008070033\n}\n",
				"bytecode": {
					"linkReferences": {},
					"object": "6080604052620000126012600a6200032b565b62000020906103e8620003f9565b6006553480156200003057600080fd5b5060405180604001604052806004815260200163444f4c5360e01b81525060405180604001604052806003815260200162444c5360e81b81525081600390805190602001906200008292919062000221565b5080516200009890600490602084019062000221565b505050620000b5620000af620000e360201b60201c565b620000e7565b620000dd33620000c86012600a6200032b565b620000d790620f4240620003f9565b62000139565b6200046e565b3390565b600580546001600160a01b038381166001600160a01b0319831681179093556040519116919082907f8be0079c531659141344cd1fd0a4f28419497f9722a3daafe3b4186f6b6457e090600090a35050565b6001600160a01b038216620001945760405162461bcd60e51b815260206004820152601f60248201527f45524332303a206d696e7420746f20746865207a65726f206164647265737300604482015260640160405180910390fd5b8060026000828254620001a89190620002c7565b90915550506001600160a01b03821660009081526020819052604081208054839290620001d7908490620002c7565b90915550506040518181526001600160a01b038316906000907fddf252ad1be2c89b69c2b068fc378daa952ba7f163c4a11628f55a4df523b3ef9060200160405180910390a35050565b8280546200022f906200041b565b90600052602060002090601f0160209004810192826200025357600085556200029e565b82601f106200026e57805160ff19168380011785556200029e565b828001600101855582156200029e579182015b828111156200029e57825182559160200191906001019062000281565b50620002ac929150620002b0565b5090565b5b80821115620002ac5760008155600101620002b1565b60008219821115620002dd57620002dd62000458565b500190565b600181815b808511156200032357816000190482111562000307576200030762000458565b808516156200031557918102915b93841c9390800290620002e7565b509250929050565b60006200033c60ff84168362000343565b9392505050565b6000826200035457506001620003f3565b816200036357506000620003f3565b81600181146200037c57600281146200038757620003a7565b6001915050620003f3565b60ff8411156200039b576200039b62000458565b50506001821b620003f3565b5060208310610133831016604e8410600b8410161715620003cc575081810a620003f3565b620003d88383620002e2565b8060001904821115620003ef57620003ef62000458565b0290505b92915050565b600081600019048311821515161562000416576200041662000458565b500290565b600181811c908216806200043057607f821691505b602082108114156200045257634e487b7160e01b600052602260045260246000fd5b50919050565b634e487b7160e01b600052601160045260246000fd5b610d56806200047e6000396000f3fe6080604052600436106100fe5760003560e01c806370a0823111610095578063a457c2d711610064578063a457c2d714610296578063a9059cbb146102b6578063cbdd69b5146102d6578063dd62ed3e146102ec578063f2fde38b1461033257600080fd5b806370a082311461020e578063715018a6146102445780638da5cb5b1461025957806395d89b411461028157600080fd5b806323b872dd116100d157806323b872dd14610190578063313ce567146101b057806339509351146101cc57806340c10f19146101ec57600080fd5b806306fdde03146101035780630752881a1461012e578063095ea7b31461015157806318160ddd14610171575b600080fd5b34801561010f57600080fd5b50610118610352565b6040516101259190610c0e565b60405180910390f35b61014161013c366004610be4565b6103e4565b6040519015158152602001610125565b34801561015d57600080fd5b5061014161016c366004610be4565b61043d565b34801561017d57600080fd5b506002545b604051908152602001610125565b34801561019c57600080fd5b506101416101ab366004610ba8565b610455565b3480156101bc57600080fd5b5060405160128152602001610125565b3480156101d857600080fd5b506101416101e7366004610be4565b610479565b3480156101f857600080fd5b5061020c610207366004610be4565b6104b8565b005b34801561021a57600080fd5b50610182610229366004610b53565b6001600160a01b031660009081526020819052604090205490565b34801561025057600080fd5b5061020c610506565b34801561026557600080fd5b506005546040516001600160a01b039091168152602001610125565b34801561028d57600080fd5b5061011861053c565b3480156102a257600080fd5b506101416102b1366004610be4565b61054b565b3480156102c257600080fd5b506101416102d1366004610be4565b6105dd565b3480156102e257600080fd5b5061018260065481565b3480156102f857600080fd5b50610182610307366004610b75565b6001600160a01b03918216600090815260016020908152604080832093909416825291909152205490565b34801561033e57600080fd5b5061020c61034d366004610b53565b6105eb565b60606003805461036190610ccf565b80601f016020809104026020016040519081016040528092919081815260200182805461038d90610ccf565b80156103da5780601f106103af576101008083540402835291602001916103da565b820191906000526020600020905b8154815290600101906020018083116103bd57829003601f168201915b5050505050905090565b600654600090339082906103f89085610cb0565b9050610405828683610686565b6001600160a01b0385166000908152600760205260408120805486929061042d908490610c98565b9091555060019695505050505050565b60003361044b818585610856565b5060019392505050565b60003361046385828561097a565b61046e858585610686565b506001949350505050565b3360008181526001602090815260408083206001600160a01b038716845290915281205490919061044b90829086906104b3908790610c98565b610856565b6005546001600160a01b031633146104eb5760405162461bcd60e51b81526004016104e290610c63565b60405180910390fd5b61050282600654836104fd9190610cb0565b610a06565b5050565b6005546001600160a01b031633146105305760405162461bcd60e51b81526004016104e290610c63565b61053a6000610ae5565b565b60606004805461036190610ccf565b3360008181526001602090815260408083206001600160a01b0387168452909152812054909190838110156105d05760405162461bcd60e51b815260206004820152602560248201527f45524332303a2064656372656173656420616c6c6f77616e63652062656c6f77604482015264207a65726f60d81b60648201526084016104e2565b61046e8286868403610856565b60003361044b818585610686565b6005546001600160a01b031633146106155760405162461bcd60e51b81526004016104e290610c63565b6001600160a01b03811661067a5760405162461bcd60e51b815260206004820152602660248201527f4f776e61626c653a206e6577206f776e657220697320746865207a65726f206160448201526564647265737360d01b60648201526084016104e2565b61068381610ae5565b50565b6001600160a01b0383166106ea5760405162461bcd60e51b815260206004820152602560248201527f45524332303a207472616e736665722066726f6d20746865207a65726f206164604482015264647265737360d81b60648201526084016104e2565b6001600160a01b03821661074c5760405162461bcd60e51b815260206004820152602360248201527f45524332303a207472616e7366657220746f20746865207a65726f206164647260448201526265737360e81b60648201526084016104e2565b6001600160a01b038316600090815260208190526040902054818110156107c45760405162461bcd60e51b815260206004820152602660248201527f45524332303a207472616e7366657220616d6f756e7420657863656564732062604482015265616c616e636560d01b60648201526084016104e2565b6001600160a01b038085166000908152602081905260408082208585039055918516815290812080548492906107fb908490610c98565b92505081905550826001600160a01b0316846001600160a01b03167fddf252ad1be2c89b69c2b068fc378daa952ba7f163c4a11628f55a4df523b3ef8460405161084791815260200190565b60405180910390a35b50505050565b6001600160a01b0383166108b85760405162461bcd60e51b8152602060048201526024808201527f45524332303a20617070726f76652066726f6d20746865207a65726f206164646044820152637265737360e01b60648201526084016104e2565b6001600160a01b0382166109195760405162461bcd60e51b815260206004820152602260248201527f45524332303a20617070726f766520746f20746865207a65726f206164647265604482015261737360f01b60648201526084016104e2565b6001600160a01b0383811660008181526001602090815260408083209487168084529482529182902085905590518481527f8c5be1e5ebec7d5bd14f71427d1e84f3dd0314c0f7b2291e5b200ac8c7c3b925910160405180910390a3505050565b6001600160a01b03838116600090815260016020908152604080832093861683529290522054600019811461085057818110156109f95760405162461bcd60e51b815260206004820152601d60248201527f45524332303a20696e73756666696369656e7420616c6c6f77616e636500000060448201526064016104e2565b6108508484848403610856565b6001600160a01b038216610a5c5760405162461bcd60e51b815260206004820152601f60248201527f45524332303a206d696e7420746f20746865207a65726f20616464726573730060448201526064016104e2565b8060026000828254610a6e9190610c98565b90915550506001600160a01b03821660009081526020819052604081208054839290610a9b908490610c98565b90915550506040518181526001600160a01b038316906000907fddf252ad1be2c89b69c2b068fc378daa952ba7f163c4a11628f55a4df523b3ef9060200160405180910390a35050565b600580546001600160a01b038381166001600160a01b0319831681179093556040519116919082907f8be0079c531659141344cd1fd0a4f28419497f9722a3daafe3b4186f6b6457e090600090a35050565b80356001600160a01b0381168114610b4e57600080fd5b919050565b600060208284031215610b6557600080fd5b610b6e82610b37565b9392505050565b60008060408385031215610b8857600080fd5b610b9183610b37565b9150610b9f60208401610b37565b90509250929050565b600080600060608486031215610bbd57600080fd5b610bc684610b37565b9250610bd460208501610b37565b9150604084013590509250925092565b60008060408385031215610bf757600080fd5b610c0083610b37565b946020939093013593505050565b600060208083528351808285015260005b81811015610c3b57858101830151858201604001528201610c1f565b81811115610c4d576000604083870101525b50601f01601f1916929092016040019392505050565b6020808252818101527f4f776e61626c653a2063616c6c6572206973206e6f7420746865206f776e6572604082015260600190565b60008219821115610cab57610cab610d0a565b500190565b6000816000190483118215151615610cca57610cca610d0a565b500290565b600181811c90821680610ce357607f821691505b60208210811415610d0457634e487b7160e01b600052602260045260246000fd5b50919050565b634e487b7160e01b600052601160045260246000fdfea2646970667358221220edfbc54f13e366d56fd954e80575c44658d1bf158467384d4ee9390061a6132864736f6c63430008070033",
					"opcodes": "PUSH1 0x80 PUSH1 0x40 MSTORE PUSH3 0x12 PUSH1 0x12 PUSH1 0xA PUSH3 0x32B JUMP JUMPDEST PUSH3 0x20 SWAP1 PUSH2 0x3E8 PUSH3 0x3F9 JUMP JUMPDEST PUSH1 0x6 SSTORE CALLVALUE DUP1 ISZERO PUSH3 0x30 JUMPI PUSH1 0x0 DUP1 REVERT JUMPDEST POP PUSH1 0x40 MLOAD DUP1 PUSH1 0x40 ADD PUSH1 0x40 MSTORE DUP1 PUSH1 0x4 DUP2 MSTORE PUSH1 0x20 ADD PUSH4 0x444F4C53 PUSH1 0xE0 SHL DUP2 MSTORE POP PUSH1 0x40 MLOAD DUP1 PUSH1 0x40 ADD PUSH1 0x40 MSTORE DUP1 PUSH1 0x3 DUP2 MSTORE PUSH1 0x20 ADD PUSH3 0x444C53 PUSH1 0xE8 SHL DUP2 MSTORE POP DUP2 PUSH1 0x3 SWAP1 DUP1 MLOAD SWAP1 PUSH1 0x20 ADD SWAP1 PUSH3 0x82 SWAP3 SWAP2 SWAP1 PUSH3 0x221 JUMP JUMPDEST POP DUP1 MLOAD PUSH3 0x98 SWAP1 PUSH1 0x4 SWAP1 PUSH1 0x20 DUP5 ADD SWAP1 PUSH3 0x221 JUMP JUMPDEST POP POP POP PUSH3 0xB5 PUSH3 0xAF PUSH3 0xE3 PUSH1 0x20 SHL PUSH1 0x20 SHR JUMP JUMPDEST PUSH3 0xE7 JUMP JUMPDEST PUSH3 0xDD CALLER PUSH3 0xC8 PUSH1 0x12 PUSH1 0xA PUSH3 0x32B JUMP JUMPDEST PUSH3 0xD7 SWAP1 PUSH3 0xF4240 PUSH3 0x3F9 JUMP JUMPDEST PUSH3 0x139 JUMP JUMPDEST PUSH3 0x46E JUMP JUMPDEST CALLER SWAP1 JUMP JUMPDEST PUSH1 0x5 DUP1 SLOAD PUSH1 0x1 PUSH1 0x1 PUSH1 0xA0 SHL SUB DUP4 DUP2 AND PUSH1 0x1 PUSH1 0x1 PUSH1 0xA0 SHL SUB NOT DUP4 AND DUP2 OR SWAP1 SWAP4 SSTORE PUSH1 0x40 MLOAD SWAP2 AND SWAP2 SWAP1 DUP3 SWAP1 PUSH32 0x8BE0079C531659141344CD1FD0A4F28419497F9722A3DAAFE3B4186F6B6457E0 SWAP1 PUSH1 0x0 SWAP1 LOG3 POP POP JUMP JUMPDEST PUSH1 0x1 PUSH1 0x1 PUSH1 0xA0 SHL SUB DUP3 AND PUSH3 0x194 JUMPI PUSH1 0x40 MLOAD PUSH3 0x461BCD PUSH1 0xE5 SHL DUP2 MSTORE PUSH1 0x20 PUSH1 0x4 DUP3 ADD MSTORE PUSH1 0x1F PUSH1 0x24 DUP3 ADD MSTORE PUSH32 0x45524332303A206D696E7420746F20746865207A65726F206164647265737300 PUSH1 0x44 DUP3 ADD MSTORE PUSH1 0x64 ADD PUSH1 0x40 MLOAD DUP1 SWAP2 SUB SWAP1 REVERT JUMPDEST DUP1 PUSH1 0x2 PUSH1 0x0 DUP3 DUP3 SLOAD PUSH3 0x1A8 SWAP2 SWAP1 PUSH3 0x2C7 JUMP JUMPDEST SWAP1 SWAP2 SSTORE POP POP PUSH1 0x1 PUSH1 0x1 PUSH1 0xA0 SHL SUB DUP3 AND PUSH1 0x0 SWAP1 DUP2 MSTORE PUSH1 0x20 DUP2 SWAP1 MSTORE PUSH1 0x40 DUP2 KECCAK256 DUP1 SLOAD DUP4 SWAP3 SWAP1 PUSH3 0x1D7 SWAP1 DUP5 SWAP1 PUSH3 0x2C7 JUMP JUMPDEST SWAP1 SWAP2 SSTORE POP POP PUSH1 0x40 MLOAD DUP2 DUP2 MSTORE PUSH1 0x1 PUSH1 0x1 PUSH1 0xA0 SHL SUB DUP4 AND SWAP1 PUSH1 0x0 SWAP1 PUSH32 0xDDF252AD1BE2C89B69C2B068FC378DAA952BA7F163C4A11628F55A4DF523B3EF SWAP1 PUSH1 0x20 ADD PUSH1 0x40 MLOAD DUP1 SWAP2 SUB SWAP1 LOG3 POP POP JUMP JUMPDEST DUP3 DUP1 SLOAD PUSH3 0x22F SWAP1 PUSH3 0x41B JUMP JUMPDEST SWAP1 PUSH1 0x0 MSTORE PUSH1 0x20 PUSH1 0x0 KECCAK256 SWAP1 PUSH1 0x1F ADD PUSH1 0x20 SWAP1 DIV DUP2 ADD SWAP3 DUP3 PUSH3 0x253 JUMPI PUSH1 0x0 DUP6 SSTORE PUSH3 0x29E JUMP JUMPDEST DUP3 PUSH1 0x1F LT PUSH3 0x26E JUMPI DUP1 MLOAD PUSH1 0xFF NOT AND DUP4 DUP1 ADD OR DUP6 SSTORE PUSH3 0x29E JUMP JUMPDEST DUP3 DUP1 ADD PUSH1 0x1 ADD DUP6 SSTORE DUP3 ISZERO PUSH3 0x29E JUMPI SWAP2 DUP3 ADD JUMPDEST DUP3 DUP2 GT ISZERO PUSH3 0x29E JUMPI DUP3 MLOAD DUP3 SSTORE SWAP2 PUSH1 0x20 ADD SWAP2 SWAP1 PUSH1 0x1 ADD SWAP1 PUSH3 0x281 JUMP JUMPDEST POP PUSH3 0x2AC SWAP3 SWAP2 POP PUSH3 0x2B0 JUMP JUMPDEST POP SWAP1 JUMP JUMPDEST JUMPDEST DUP1 DUP3 GT ISZERO PUSH3 0x2AC JUMPI PUSH1 0x0 DUP2 SSTORE PUSH1 0x1 ADD PUSH3 0x2B1 JUMP JUMPDEST PUSH1 0x0 DUP3 NOT DUP3 GT ISZERO PUSH3 0x2DD JUMPI PUSH3 0x2DD PUSH3 0x458 JUMP JUMPDEST POP ADD SWAP1 JUMP JUMPDEST PUSH1 0x1 DUP2 DUP2 JUMPDEST DUP1 DUP6 GT ISZERO PUSH3 0x323 JUMPI DUP2 PUSH1 0x0 NOT DIV DUP3 GT ISZERO PUSH3 0x307 JUMPI PUSH3 0x307 PUSH3 0x458 JUMP JUMPDEST DUP1 DUP6 AND ISZERO PUSH3 0x315 JUMPI SWAP2 DUP2 MUL SWAP2 JUMPDEST SWAP4 DUP5 SHR SWAP4 SWAP1 DUP1 MUL SWAP1 PUSH3 0x2E7 JUMP JUMPDEST POP SWAP3 POP SWAP3 SWAP1 POP JUMP JUMPDEST PUSH1 0x0 PUSH3 0x33C PUSH1 0xFF DUP5 AND DUP4 PUSH3 0x343 JUMP JUMPDEST SWAP4 SWAP3 POP POP POP JUMP JUMPDEST PUSH1 0x0 DUP3 PUSH3 0x354 JUMPI POP PUSH1 0x1 PUSH3 0x3F3 JUMP JUMPDEST DUP2 PUSH3 0x363 JUMPI POP PUSH1 0x0 PUSH3 0x3F3 JUMP JUMPDEST DUP2 PUSH1 0x1 DUP2 EQ PUSH3 0x37C JUMPI PUSH1 0x2 DUP2 EQ PUSH3 0x387 JUMPI PUSH3 0x3A7 JUMP JUMPDEST PUSH1 0x1 SWAP2 POP POP PUSH3 0x3F3 JUMP JUMPDEST PUSH1 0xFF DUP5 GT ISZERO PUSH3 0x39B JUMPI PUSH3 0x39B PUSH3 0x458 JUMP JUMPDEST POP POP PUSH1 0x1 DUP3 SHL PUSH3 0x3F3 JUMP JUMPDEST POP PUSH1 0x20 DUP4 LT PUSH2 0x133 DUP4 LT AND PUSH1 0x4E DUP5 LT PUSH1 0xB DUP5 LT AND OR ISZERO PUSH3 0x3CC JUMPI POP DUP2 DUP2 EXP PUSH3 0x3F3 JUMP JUMPDEST PUSH3 0x3D8 DUP4 DUP4 PUSH3 0x2E2 JUMP JUMPDEST DUP1 PUSH1 0x0 NOT DIV DUP3 GT ISZERO PUSH3 0x3EF JUMPI PUSH3 0x3EF PUSH3 0x458 JUMP JUMPDEST MUL SWAP1 POP JUMPDEST SWAP3 SWAP2 POP POP JUMP JUMPDEST PUSH1 0x0 DUP2 PUSH1 0x0 NOT DIV DUP4 GT DUP3 ISZERO ISZERO AND ISZERO PUSH3 0x416 JUMPI PUSH3 0x416 PUSH3 0x458 JUMP JUMPDEST POP MUL SWAP1 JUMP JUMPDEST PUSH1 0x1 DUP2 DUP2 SHR SWAP1 DUP3 AND DUP1 PUSH3 0x430 JUMPI PUSH1 0x7F DUP3 AND SWAP2 POP JUMPDEST PUSH1 0x20 DUP3 LT DUP2 EQ ISZERO PUSH3 0x452 JUMPI PUSH4 0x4E487B71 PUSH1 0xE0 SHL PUSH1 0x0 MSTORE PUSH1 0x22 PUSH1 0x4 MSTORE PUSH1 0x24 PUSH1 0x0 REVERT JUMPDEST POP SWAP2 SWAP1 POP JUMP JUMPDEST PUSH4 0x4E487B71 PUSH1 0xE0 SHL PUSH1 0x0 MSTORE PUSH1 0x11 PUSH1 0x4 MSTORE PUSH1 0x24 PUSH1 0x0 REVERT JUMPDEST PUSH2 0xD56 DUP1 PUSH3 0x47E PUSH1 0x0 CODECOPY PUSH1 0x0 RETURN INVALID PUSH1 0x80 PUSH1 0x40 MSTORE PUSH1 0x4 CALLDATASIZE LT PUSH2 0xFE JUMPI PUSH1 0x0 CALLDATALOAD PUSH1 0xE0 SHR DUP1 PUSH4 0x70A08231 GT PUSH2 0x95 JUMPI DUP1 PUSH4 0xA457C2D7 GT PUSH2 0x64 JUMPI DUP1 PUSH4 0xA457C2D7 EQ PUSH2 0x296 JUMPI DUP1 PUSH4 0xA9059CBB EQ PUSH2 0x2B6 JUMPI DUP1 PUSH4 0xCBDD69B5 EQ PUSH2 0x2D6 JUMPI DUP1 PUSH4 0xDD62ED3E EQ PUSH2 0x2EC JUMPI DUP1 PUSH4 0xF2FDE38B EQ PUSH2 0x332 JUMPI PUSH1 0x0 DUP1 REVERT JUMPDEST DUP1 PUSH4 0x70A08231 EQ PUSH2 0x20E JUMPI DUP1 PUSH4 0x715018A6 EQ PUSH2 0x244 JUMPI DUP1 PUSH4 0x8DA5CB5B EQ PUSH2 0x259 JUMPI DUP1 PUSH4 0x95D89B41 EQ PUSH2 0x281 JUMPI PUSH1 0x0 DUP1 REVERT JUMPDEST DUP1 PUSH4 0x23B872DD GT PUSH2 0xD1 JUMPI DUP1 PUSH4 0x23B872DD EQ PUSH2 0x190 JUMPI DUP1 PUSH4 0x313CE567 EQ PUSH2 0x1B0 JUMPI DUP1 PUSH4 0x39509351 EQ PUSH2 0x1CC JUMPI DUP1 PUSH4 0x40C10F19 EQ PUSH2 0x1EC JUMPI PUSH1 0x0 DUP1 REVERT JUMPDEST DUP1 PUSH4 0x6FDDE03 EQ PUSH2 0x103 JUMPI DUP1 PUSH4 0x752881A EQ PUSH2 0x12E JUMPI DUP1 PUSH4 0x95EA7B3 EQ PUSH2 0x151 JUMPI DUP1 PUSH4 0x18160DDD EQ PUSH2 0x171 JUMPI JUMPDEST PUSH1 0x0 DUP1 REVERT JUMPDEST CALLVALUE DUP1 ISZERO PUSH2 0x10F JUMPI PUSH1 0x0 DUP1 REVERT JUMPDEST POP PUSH2 0x118 PUSH2 0x352 JUMP JUMPDEST PUSH1 0x40 MLOAD PUSH2 0x125 SWAP2 SWAP1 PUSH2 0xC0E JUMP JUMPDEST PUSH1 0x40 MLOAD DUP1 SWAP2 SUB SWAP1 RETURN JUMPDEST PUSH2 0x141 PUSH2 0x13C CALLDATASIZE PUSH1 0x4 PUSH2 0xBE4 JUMP JUMPDEST PUSH2 0x3E4 JUMP JUMPDEST PUSH1 0x40 MLOAD SWAP1 ISZERO ISZERO DUP2 MSTORE PUSH1 0x20 ADD PUSH2 0x125 JUMP JUMPDEST CALLVALUE DUP1 ISZERO PUSH2 0x15D JUMPI PUSH1 0x0 DUP1 REVERT JUMPDEST POP PUSH2 0x141 PUSH2 0x16C CALLDATASIZE PUSH1 0x4 PUSH2 0xBE4 JUMP JUMPDEST PUSH2 0x43D JUMP JUMPDEST CALLVALUE DUP1 ISZERO PUSH2 0x17D JUMPI PUSH1 0x0 DUP1 REVERT JUMPDEST POP PUSH1 0x2 SLOAD JUMPDEST PUSH1 0x40 MLOAD SWAP1 DUP2 MSTORE PUSH1 0x20 ADD PUSH2 0x125 JUMP JUMPDEST CALLVALUE DUP1 ISZERO PUSH2 0x19C JUMPI PUSH1 0x0 DUP1 REVERT JUMPDEST POP PUSH2 0x141 PUSH2 0x1AB CALLDATASIZE PUSH1 0x4 PUSH2 0xBA8 JUMP JUMPDEST PUSH2 0x455 JUMP JUMPDEST CALLVALUE DUP1 ISZERO PUSH2 0x1BC JUMPI PUSH1 0x0 DUP1 REVERT JUMPDEST POP PUSH1 0x40 MLOAD PUSH1 0x12 DUP2 MSTORE PUSH1 0x20 ADD PUSH2 0x125 JUMP JUMPDEST CALLVALUE DUP1 ISZERO PUSH2 0x1D8 JUMPI PUSH1 0x0 DUP1 REVERT JUMPDEST POP PUSH2 0x141 PUSH2 0x1E7 CALLDATASIZE PUSH1 0x4 PUSH2 0xBE4 JUMP JUMPDEST PUSH2 0x479 JUMP JUMPDEST CALLVALUE DUP1 ISZERO PUSH2 0x1F8 JUMPI PUSH1 0x0 DUP1 REVERT JUMPDEST POP PUSH2 0x20C PUSH2 0x207 CALLDATASIZE PUSH1 0x4 PUSH2 0xBE4 JUMP JUMPDEST PUSH2 0x4B8 JUMP JUMPDEST STOP JUMPDEST CALLVALUE DUP1 ISZERO PUSH2 0x21A JUMPI PUSH1 0x0 DUP1 REVERT JUMPDEST POP PUSH2 0x182 PUSH2 0x229 CALLDATASIZE PUSH1 0x4 PUSH2 0xB53 JUMP JUMPDEST PUSH1 0x1 PUSH1 0x1 PUSH1 0xA0 SHL SUB AND PUSH1 0x0 SWAP1 DUP2 MSTORE PUSH1 0x20 DUP2 SWAP1 MSTORE PUSH1 0x40 SWAP1 KECCAK256 SLOAD SWAP1 JUMP JUMPDEST CALLVALUE DUP1 ISZERO PUSH2 0x250 JUMPI PUSH1 0x0 DUP1 REVERT JUMPDEST POP PUSH2 0x20C PUSH2 0x506 JUMP JUMPDEST CALLVALUE DUP1 ISZERO PUSH2 0x265 JUMPI PUSH1 0x0 DUP1 REVERT JUMPDEST POP PUSH1 0x5 SLOAD PUSH1 0x40 MLOAD PUSH1 0x1 PUSH1 0x1 PUSH1 0xA0 SHL SUB SWAP1 SWAP2 AND DUP2 MSTORE PUSH1 0x20 ADD PUSH2 0x125 JUMP JUMPDEST CALLVALUE DUP1 ISZERO PUSH2 0x28D JUMPI PUSH1 0x0 DUP1 REVERT JUMPDEST POP PUSH2 0x118 PUSH2 0x53C JUMP JUMPDEST CALLVALUE DUP1 ISZERO PUSH2 0x2A2 JUMPI PUSH1 0x0 DUP1 REVERT JUMPDEST POP PUSH2 0x141 PUSH2 0x2B1 CALLDATASIZE PUSH1 0x4 PUSH2 0xBE4 JUMP JUMPDEST PUSH2 0x54B JUMP JUMPDEST CALLVALUE DUP1 ISZERO PUSH2 0x2C2 JUMPI PUSH1 0x0 DUP1 REVERT JUMPDEST POP PUSH2 0x141 PUSH2 0x2D1 CALLDATASIZE PUSH1 0x4 PUSH2 0xBE4 JUMP JUMPDEST PUSH2 0x5DD JUMP JUMPDEST CALLVALUE DUP1 ISZERO PUSH2 0x2E2 JUMPI PUSH1 0x0 DUP1 REVERT JUMPDEST POP PUSH2 0x182 PUSH1 0x6 SLOAD DUP2 JUMP JUMPDEST CALLVALUE DUP1 ISZERO PUSH2 0x2F8 JUMPI PUSH1 0x0 DUP1 REVERT JUMPDEST POP PUSH2 0x182 PUSH2 0x307 CALLDATASIZE PUSH1 0x4 PUSH2 0xB75 JUMP JUMPDEST PUSH1 0x1 PUSH1 0x1 PUSH1 0xA0 SHL SUB SWAP2 DUP3 AND PUSH1 0x0 SWAP1 DUP2 MSTORE PUSH1 0x1 PUSH1 0x20 SWAP1 DUP2 MSTORE PUSH1 0x40 DUP1 DUP4 KECCAK256 SWAP4 SWAP1 SWAP5 AND DUP3 MSTORE SWAP2 SWAP1 SWAP2 MSTORE KECCAK256 SLOAD SWAP1 JUMP JUMPDEST CALLVALUE DUP1 ISZERO PUSH2 0x33E JUMPI PUSH1 0x0 DUP1 REVERT JUMPDEST POP PUSH2 0x20C PUSH2 0x34D CALLDATASIZE PUSH1 0x4 PUSH2 0xB53 JUMP JUMPDEST PUSH2 0x5EB JUMP JUMPDEST PUSH1 0x60 PUSH1 0x3 DUP1 SLOAD PUSH2 0x361 SWAP1 PUSH2 0xCCF JUMP JUMPDEST DUP1 PUSH1 0x1F ADD PUSH1 0x20 DUP1 SWAP2 DIV MUL PUSH1 0x20 ADD PUSH1 0x40 MLOAD SWAP1 DUP2 ADD PUSH1 0x40 MSTORE DUP1 SWAP3 SWAP2 SWAP1 DUP2 DUP2 MSTORE PUSH1 0x20 ADD DUP3 DUP1 SLOAD PUSH2 0x38D SWAP1 PUSH2 0xCCF JUMP JUMPDEST DUP1 ISZERO PUSH2 0x3DA JUMPI DUP1 PUSH1 0x1F LT PUSH2 0x3AF JUMPI PUSH2 0x100 DUP1 DUP4 SLOAD DIV MUL DUP4 MSTORE SWAP2 PUSH1 0x20 ADD SWAP2 PUSH2 0x3DA JUMP JUMPDEST DUP3 ADD SWAP2 SWAP1 PUSH1 0x0 MSTORE PUSH1 0x20 PUSH1 0x0 KECCAK256 SWAP1 JUMPDEST DUP2 SLOAD DUP2 MSTORE SWAP1 PUSH1 0x1 ADD SWAP1 PUSH1 0x20 ADD DUP1 DUP4 GT PUSH2 0x3BD JUMPI DUP3 SWAP1 SUB PUSH1 0x1F AND DUP3 ADD SWAP2 JUMPDEST POP POP POP POP POP SWAP1 POP SWAP1 JUMP JUMPDEST PUSH1 0x6 SLOAD PUSH1 0x0 SWAP1 CALLER SWAP1 DUP3 SWAP1 PUSH2 0x3F8 SWAP1 DUP6 PUSH2 0xCB0 JUMP JUMPDEST SWAP1 POP PUSH2 0x405 DUP3 DUP7 DUP4 PUSH2 0x686 JUMP JUMPDEST PUSH1 0x1 PUSH1 0x1 PUSH1 0xA0 SHL SUB DUP6 AND PUSH1 0x0 SWAP1 DUP2 MSTORE PUSH1 0x7 PUSH1 0x20 MSTORE PUSH1 0x40 DUP2 KECCAK256 DUP1 SLOAD DUP7 SWAP3 SWAP1 PUSH2 0x42D SWAP1 DUP5 SWAP1 PUSH2 0xC98 JUMP JUMPDEST SWAP1 SWAP2 SSTORE POP PUSH1 0x1 SWAP7 SWAP6 POP POP POP POP POP POP JUMP JUMPDEST PUSH1 0x0 CALLER PUSH2 0x44B DUP2 DUP6 DUP6 PUSH2 0x856 JUMP JUMPDEST POP PUSH1 0x1 SWAP4 SWAP3 POP POP POP JUMP JUMPDEST PUSH1 0x0 CALLER PUSH2 0x463 DUP6 DUP3 DUP6 PUSH2 0x97A JUMP JUMPDEST PUSH2 0x46E DUP6 DUP6 DUP6 PUSH2 0x686 JUMP JUMPDEST POP PUSH1 0x1 SWAP5 SWAP4 POP POP POP POP JUMP JUMPDEST CALLER PUSH1 0x0 DUP2 DUP2 MSTORE PUSH1 0x1 PUSH1 0x20 SWAP1 DUP2 MSTORE PUSH1 0x40 DUP1 DUP4 KECCAK256 PUSH1 0x1 PUSH1 0x1 PUSH1 0xA0 SHL SUB DUP8 AND DUP5 MSTORE SWAP1 SWAP2 MSTORE DUP2 KECCAK256 SLOAD SWAP1 SWAP2 SWAP1 PUSH2 0x44B SWAP1 DUP3 SWAP1 DUP7 SWAP1 PUSH2 0x4B3 SWAP1 DUP8 SWAP1 PUSH2 0xC98 JUMP JUMPDEST PUSH2 0x856 JUMP JUMPDEST PUSH1 0x5 SLOAD PUSH1 0x1 PUSH1 0x1 PUSH1 0xA0 SHL SUB AND CALLER EQ PUSH2 0x4EB JUMPI PUSH1 0x40 MLOAD PUSH3 0x461BCD PUSH1 0xE5 SHL DUP2 MSTORE PUSH1 0x4 ADD PUSH2 0x4E2 SWAP1 PUSH2 0xC63 JUMP JUMPDEST PUSH1 0x40 MLOAD DUP1 SWAP2 SUB SWAP1 REVERT JUMPDEST PUSH2 0x502 DUP3 PUSH1 0x6 SLOAD DUP4 PUSH2 0x4FD SWAP2 SWAP1 PUSH2 0xCB0 JUMP JUMPDEST PUSH2 0xA06 JUMP JUMPDEST POP POP JUMP JUMPDEST PUSH1 0x5 SLOAD PUSH1 0x1 PUSH1 0x1 PUSH1 0xA0 SHL SUB AND CALLER EQ PUSH2 0x530 JUMPI PUSH1 0x40 MLOAD PUSH3 0x461BCD PUSH1 0xE5 SHL DUP2 MSTORE PUSH1 0x4 ADD PUSH2 0x4E2 SWAP1 PUSH2 0xC63 JUMP JUMPDEST PUSH2 0x53A PUSH1 0x0 PUSH2 0xAE5 JUMP JUMPDEST JUMP JUMPDEST PUSH1 0x60 PUSH1 0x4 DUP1 SLOAD PUSH2 0x361 SWAP1 PUSH2 0xCCF JUMP JUMPDEST CALLER PUSH1 0x0 DUP2 DUP2 MSTORE PUSH1 0x1 PUSH1 0x20 SWAP1 DUP2 MSTORE PUSH1 0x40 DUP1 DUP4 KECCAK256 PUSH1 0x1 PUSH1 0x1 PUSH1 0xA0 SHL SUB DUP8 AND DUP5 MSTORE SWAP1 SWAP2 MSTORE DUP2 KECCAK256 SLOAD SWAP1 SWAP2 SWAP1 DUP4 DUP2 LT ISZERO PUSH2 0x5D0 JUMPI PUSH1 0x40 MLOAD PUSH3 0x461BCD PUSH1 0xE5 SHL DUP2 MSTORE PUSH1 0x20 PUSH1 0x4 DUP3 ADD MSTORE PUSH1 0x25 PUSH1 0x24 DUP3 ADD MSTORE PUSH32 0x45524332303A2064656372656173656420616C6C6F77616E63652062656C6F77 PUSH1 0x44 DUP3 ADD MSTORE PUSH5 0x207A65726F PUSH1 0xD8 SHL PUSH1 0x64 DUP3 ADD MSTORE PUSH1 0x84 ADD PUSH2 0x4E2 JUMP JUMPDEST PUSH2 0x46E DUP3 DUP7 DUP7 DUP5 SUB PUSH2 0x856 JUMP JUMPDEST PUSH1 0x0 CALLER PUSH2 0x44B DUP2 DUP6 DUP6 PUSH2 0x686 JUMP JUMPDEST PUSH1 0x5 SLOAD PUSH1 0x1 PUSH1 0x1 PUSH1 0xA0 SHL SUB AND CALLER EQ PUSH2 0x615 JUMPI PUSH1 0x40 MLOAD PUSH3 0x461BCD PUSH1 0xE5 SHL DUP2 MSTORE PUSH1 0x4 ADD PUSH2 0x4E2 SWAP1 PUSH2 0xC63 JUMP JUMPDEST PUSH1 0x1 PUSH1 0x1 PUSH1 0xA0 SHL SUB DUP2 AND PUSH2 0x67A JUMPI PUSH1 0x40 MLOAD PUSH3 0x461BCD PUSH1 0xE5 SHL DUP2 MSTORE PUSH1 0x20 PUSH1 0x4 DUP3 ADD MSTORE PUSH1 0x26 PUSH1 0x24 DUP3 ADD MSTORE PUSH32 0x4F776E61626C653A206E6577206F776E657220697320746865207A65726F2061 PUSH1 0x44 DUP3 ADD MSTORE PUSH6 0x646472657373 PUSH1 0xD0 SHL PUSH1 0x64 DUP3 ADD MSTORE PUSH1 0x84 ADD PUSH2 0x4E2 JUMP JUMPDEST PUSH2 0x683 DUP2 PUSH2 0xAE5 JUMP JUMPDEST POP JUMP JUMPDEST PUSH1 0x1 PUSH1 0x1 PUSH1 0xA0 SHL SUB DUP4 AND PUSH2 0x6EA JUMPI PUSH1 0x40 MLOAD PUSH3 0x461BCD PUSH1 0xE5 SHL DUP2 MSTORE PUSH1 0x20 PUSH1 0x4 DUP3 ADD MSTORE PUSH1 0x25 PUSH1 0x24 DUP3 ADD MSTORE PUSH32 0x45524332303A207472616E736665722066726F6D20746865207A65726F206164 PUSH1 0x44 DUP3 ADD MSTORE PUSH5 0x6472657373 PUSH1 0xD8 SHL PUSH1 0x64 DUP3 ADD MSTORE PUSH1 0x84 ADD PUSH2 0x4E2 JUMP JUMPDEST PUSH1 0x1 PUSH1 0x1 PUSH1 0xA0 SHL SUB DUP3 AND PUSH2 0x74C JUMPI PUSH1 0x40 MLOAD PUSH3 0x461BCD PUSH1 0xE5 SHL DUP2 MSTORE PUSH1 0x20 PUSH1 0x4 DUP3 ADD MSTORE PUSH1 0x23 PUSH1 0x24 DUP3 ADD MSTORE PUSH32 0x45524332303A207472616E7366657220746F20746865207A65726F2061646472 PUSH1 0x44 DUP3 ADD MSTORE PUSH3 0x657373 PUSH1 0xE8 SHL PUSH1 0x64 DUP3 ADD MSTORE PUSH1 0x84 ADD PUSH2 0x4E2 JUMP JUMPDEST PUSH1 0x1 PUSH1 0x1 PUSH1 0xA0 SHL SUB DUP4 AND PUSH1 0x0 SWAP1 DUP2 MSTORE PUSH1 0x20 DUP2 SWAP1 MSTORE PUSH1 0x40 SWAP1 KECCAK256 SLOAD DUP2 DUP2 LT ISZERO PUSH2 0x7C4 JUMPI PUSH1 0x40 MLOAD PUSH3 0x461BCD PUSH1 0xE5 SHL DUP2 MSTORE PUSH1 0x20 PUSH1 0x4 DUP3 ADD MSTORE PUSH1 0x26 PUSH1 0x24 DUP3 ADD MSTORE PUSH32 0x45524332303A207472616E7366657220616D6F756E7420657863656564732062 PUSH1 0x44 DUP3 ADD MSTORE PUSH6 0x616C616E6365 PUSH1 0xD0 SHL PUSH1 0x64 DUP3 ADD MSTORE PUSH1 0x84 ADD PUSH2 0x4E2 JUMP JUMPDEST PUSH1 0x1 PUSH1 0x1 PUSH1 0xA0 SHL SUB DUP1 DUP6 AND PUSH1 0x0 SWAP1 DUP2 MSTORE PUSH1 0x20 DUP2 SWAP1 MSTORE PUSH1 0x40 DUP1 DUP3 KECCAK256 DUP6 DUP6 SUB SWAP1 SSTORE SWAP2 DUP6 AND DUP2 MSTORE SWAP1 DUP2 KECCAK256 DUP1 SLOAD DUP5 SWAP3 SWAP1 PUSH2 0x7FB SWAP1 DUP5 SWAP1 PUSH2 0xC98 JUMP JUMPDEST SWAP3 POP POP DUP2 SWAP1 SSTORE POP DUP3 PUSH1 0x1 PUSH1 0x1 PUSH1 0xA0 SHL SUB AND DUP5 PUSH1 0x1 PUSH1 0x1 PUSH1 0xA0 SHL SUB AND PUSH32 0xDDF252AD1BE2C89B69C2B068FC378DAA952BA7F163C4A11628F55A4DF523B3EF DUP5 PUSH1 0x40 MLOAD PUSH2 0x847 SWAP2 DUP2 MSTORE PUSH1 0x20 ADD SWAP1 JUMP JUMPDEST PUSH1 0x40 MLOAD DUP1 SWAP2 SUB SWAP1 LOG3 JUMPDEST POP POP POP POP JUMP JUMPDEST PUSH1 0x1 PUSH1 0x1 PUSH1 0xA0 SHL SUB DUP4 AND PUSH2 0x8B8 JUMPI PUSH1 0x40 MLOAD PUSH3 0x461BCD PUSH1 0xE5 SHL DUP2 MSTORE PUSH1 0x20 PUSH1 0x4 DUP3 ADD MSTORE PUSH1 0x24 DUP1 DUP3 ADD MSTORE PUSH32 0x45524332303A20617070726F76652066726F6D20746865207A65726F20616464 PUSH1 0x44 DUP3 ADD MSTORE PUSH4 0x72657373 PUSH1 0xE0 SHL PUSH1 0x64 DUP3 ADD MSTORE PUSH1 0x84 ADD PUSH2 0x4E2 JUMP JUMPDEST PUSH1 0x1 PUSH1 0x1 PUSH1 0xA0 SHL SUB DUP3 AND PUSH2 0x919 JUMPI PUSH1 0x40 MLOAD PUSH3 0x461BCD PUSH1 0xE5 SHL DUP2 MSTORE PUSH1 0x20 PUSH1 0x4 DUP3 ADD MSTORE PUSH1 0x22 PUSH1 0x24 DUP3 ADD MSTORE PUSH32 0x45524332303A20617070726F766520746F20746865207A65726F206164647265 PUSH1 0x44 DUP3 ADD MSTORE PUSH2 0x7373 PUSH1 0xF0 SHL PUSH1 0x64 DUP3 ADD MSTORE PUSH1 0x84 ADD PUSH2 0x4E2 JUMP JUMPDEST PUSH1 0x1 PUSH1 0x1 PUSH1 0xA0 SHL SUB DUP4 DUP2 AND PUSH1 0x0 DUP2 DUP2 MSTORE PUSH1 0x1 PUSH1 0x20 SWAP1 DUP2 MSTORE PUSH1 0x40 DUP1 DUP4 KECCAK256 SWAP5 DUP8 AND DUP1 DUP5 MSTORE SWAP5 DUP3 MSTORE SWAP2 DUP3 SWAP1 KECCAK256 DUP6 SWAP1 SSTORE SWAP1 MLOAD DUP5 DUP2 MSTORE PUSH32 0x8C5BE1E5EBEC7D5BD14F71427D1E84F3DD0314C0F7B2291E5B200AC8C7C3B925 SWAP2 ADD PUSH1 0x40 MLOAD DUP1 SWAP2 SUB SWAP1 LOG3 POP POP POP JUMP JUMPDEST PUSH1 0x1 PUSH1 0x1 PUSH1 0xA0 SHL SUB DUP4 DUP2 AND PUSH1 0x0 SWAP1 DUP2 MSTORE PUSH1 0x1 PUSH1 0x20 SWAP1 DUP2 MSTORE PUSH1 0x40 DUP1 DUP4 KECCAK256 SWAP4 DUP7 AND DUP4 MSTORE SWAP3 SWAP1 MSTORE KECCAK256 SLOAD PUSH1 0x0 NOT DUP2 EQ PUSH2 0x850 JUMPI DUP2 DUP2 LT ISZERO PUSH2 0x9F9 JUMPI PUSH1 0x40 MLOAD PUSH3 0x461BCD PUSH1 0xE5 SHL DUP2 MSTORE PUSH1 0x20 PUSH1 0x4 DUP3 ADD MSTORE PUSH1 0x1D PUSH1 0x24 DUP3 ADD MSTORE PUSH32 0x45524332303A20696E73756666696369656E7420616C6C6F77616E6365000000 PUSH1 0x44 DUP3 ADD MSTORE PUSH1 0x64 ADD PUSH2 0x4E2 JUMP JUMPDEST PUSH2 0x850 DUP5 DUP5 DUP5 DUP5 SUB PUSH2 0x856 JUMP JUMPDEST PUSH1 0x1 PUSH1 0x1 PUSH1 0xA0 SHL SUB DUP3 AND PUSH2 0xA5C JUMPI PUSH1 0x40 MLOAD PUSH3 0x461BCD PUSH1 0xE5 SHL DUP2 MSTORE PUSH1 0x20 PUSH1 0x4 DUP3 ADD MSTORE PUSH1 0x1F PUSH1 0x24 DUP3 ADD MSTORE PUSH32 0x45524332303A206D696E7420746F20746865207A65726F206164647265737300 PUSH1 0x44 DUP3 ADD MSTORE PUSH1 0x64 ADD PUSH2 0x4E2 JUMP JUMPDEST DUP1 PUSH1 0x2 PUSH1 0x0 DUP3 DUP3 SLOAD PUSH2 0xA6E SWAP2 SWAP1 PUSH2 0xC98 JUMP JUMPDEST SWAP1 SWAP2 SSTORE POP POP PUSH1 0x1 PUSH1 0x1 PUSH1 0xA0 SHL SUB DUP3 AND PUSH1 0x0 SWAP1 DUP2 MSTORE PUSH1 0x20 DUP2 SWAP1 MSTORE PUSH1 0x40 DUP2 KECCAK256 DUP1 SLOAD DUP4 SWAP3 SWAP1 PUSH2 0xA9B SWAP1 DUP5 SWAP1 PUSH2 0xC98 JUMP JUMPDEST SWAP1 SWAP2 SSTORE POP POP PUSH1 0x40 MLOAD DUP2 DUP2 MSTORE PUSH1 0x1 PUSH1 0x1 PUSH1 0xA0 SHL SUB DUP4 AND SWAP1 PUSH1 0x0 SWAP1 PUSH32 0xDDF252AD1BE2C89B69C2B068FC378DAA952BA7F163C4A11628F55A4DF523B3EF SWAP1 PUSH1 0x20 ADD PUSH1 0x40 MLOAD DUP1 SWAP2 SUB SWAP1 LOG3 POP POP JUMP JUMPDEST PUSH1 0x5 DUP1 SLOAD PUSH1 0x1 PUSH1 0x1 PUSH1 0xA0 SHL SUB DUP4 DUP2 AND PUSH1 0x1 PUSH1 0x1 PUSH1 0xA0 SHL SUB NOT DUP4 AND DUP2 OR SWAP1 SWAP4 SSTORE PUSH1 0x40 MLOAD SWAP2 AND SWAP2 SWAP1 DUP3 SWAP1 PUSH32 0x8BE0079C531659141344CD1FD0A4F28419497F9722A3DAAFE3B4186F6B6457E0 SWAP1 PUSH1 0x0 SWAP1 LOG3 POP POP JUMP JUMPDEST DUP1 CALLDATALOAD PUSH1 0x1 PUSH1 0x1 PUSH1 0xA0 SHL SUB DUP2 AND DUP2 EQ PUSH2 0xB4E JUMPI PUSH1 0x0 DUP1 REVERT JUMPDEST SWAP2 SWAP1 POP JUMP JUMPDEST PUSH1 0x0 PUSH1 0x20 DUP3 DUP5 SUB SLT ISZERO PUSH2 0xB65 JUMPI PUSH1 0x0 DUP1 REVERT JUMPDEST PUSH2 0xB6E DUP3 PUSH2 0xB37 JUMP JUMPDEST SWAP4 SWAP3 POP POP POP JUMP JUMPDEST PUSH1 0x0 DUP1 PUSH1 0x40 DUP4 DUP6 SUB SLT ISZERO PUSH2 0xB88 JUMPI PUSH1 0x0 DUP1 REVERT JUMPDEST PUSH2 0xB91 DUP4 PUSH2 0xB37 JUMP JUMPDEST SWAP2 POP PUSH2 0xB9F PUSH1 0x20 DUP5 ADD PUSH2 0xB37 JUMP JUMPDEST SWAP1 POP SWAP3 POP SWAP3 SWAP1 POP JUMP JUMPDEST PUSH1 0x0 DUP1 PUSH1 0x0 PUSH1 0x60 DUP5 DUP7 SUB SLT ISZERO PUSH2 0xBBD JUMPI PUSH1 0x0 DUP1 REVERT JUMPDEST PUSH2 0xBC6 DUP5 PUSH2 0xB37 JUMP JUMPDEST SWAP3 POP PUSH2 0xBD4 PUSH1 0x20 DUP6 ADD PUSH2 0xB37 JUMP JUMPDEST SWAP2 POP PUSH1 0x40 DUP5 ADD CALLDATALOAD SWAP1 POP SWAP3 POP SWAP3 POP SWAP3 JUMP JUMPDEST PUSH1 0x0 DUP1 PUSH1 0x40 DUP4 DUP6 SUB SLT ISZERO PUSH2 0xBF7 JUMPI PUSH1 0x0 DUP1 REVERT JUMPDEST PUSH2 0xC00 DUP4 PUSH2 0xB37 JUMP JUMPDEST SWAP5 PUSH1 0x20 SWAP4 SWAP1 SWAP4 ADD CALLDATALOAD SWAP4 POP POP POP JUMP JUMPDEST PUSH1 0x0 PUSH1 0x20 DUP1 DUP4 MSTORE DUP4 MLOAD DUP1 DUP3 DUP6 ADD MSTORE PUSH1 0x0 JUMPDEST DUP2 DUP2 LT ISZERO PUSH2 0xC3B JUMPI DUP6 DUP2 ADD DUP4 ADD MLOAD DUP6 DUP3 ADD PUSH1 0x40 ADD MSTORE DUP3 ADD PUSH2 0xC1F JUMP JUMPDEST DUP2 DUP2 GT ISZERO PUSH2 0xC4D JUMPI PUSH1 0x0 PUSH1 0x40 DUP4 DUP8 ADD ADD MSTORE JUMPDEST POP PUSH1 0x1F ADD PUSH1 0x1F NOT AND SWAP3 SWAP1 SWAP3 ADD PUSH1 0x40 ADD SWAP4 SWAP3 POP POP POP JUMP JUMPDEST PUSH1 0x20 DUP1 DUP3 MSTORE DUP2 DUP2 ADD MSTORE PUSH32 0x4F776E61626C653A2063616C6C6572206973206E6F7420746865206F776E6572 PUSH1 0x40 DUP3 ADD MSTORE PUSH1 0x60 ADD SWAP1 JUMP JUMPDEST PUSH1 0x0 DUP3 NOT DUP3 GT ISZERO PUSH2 0xCAB JUMPI PUSH2 0xCAB PUSH2 0xD0A JUMP JUMPDEST POP ADD SWAP1 JUMP JUMPDEST PUSH1 0x0 DUP2 PUSH1 0x0 NOT DIV DUP4 GT DUP3 ISZERO ISZERO AND ISZERO PUSH2 0xCCA JUMPI PUSH2 0xCCA PUSH2 0xD0A JUMP JUMPDEST POP MUL SWAP1 JUMP JUMPDEST PUSH1 0x1 DUP2 DUP2 SHR SWAP1 DUP3 AND DUP1 PUSH2 0xCE3 JUMPI PUSH1 0x7F DUP3 AND SWAP2 POP JUMPDEST PUSH1 0x20 DUP3 LT DUP2 EQ ISZERO PUSH2 0xD04 JUMPI PUSH4 0x4E487B71 PUSH1 0xE0 SHL PUSH1 0x0 MSTORE PUSH1 0x22 PUSH1 0x4 MSTORE PUSH1 0x24 PUSH1 0x0 REVERT JUMPDEST POP SWAP2 SWAP1 POP JUMP JUMPDEST PUSH4 0x4E487B71 PUSH1 0xE0 SHL PUSH1 0x0 MSTORE PUSH1 0x11 PUSH1 0x4 MSTORE PUSH1 0x24 PUSH1 0x0 REVERT INVALID LOG2 PUSH5 0x6970667358 0x22 SLT KECCAK256 0xED 0xFB 0xC5 0x4F SGT 0xE3 PUSH7 0xD56FD954E80575 0xC4 CHAINID PC 0xD1 0xBF ISZERO DUP5 PUSH8 0x384D4EE9390061A6 SGT 0x28 PUSH5 0x736F6C6343 STOP ADDMOD SMOD STOP CALLER "
				},
				"gasEstimates": {
					"creation": {
						"codeDepositCost": "682800",
						"executionCost": "infinite",
						"totalCost": "infinite"
					},
					"external": {
						"allowance(address,address)": "infinite",
						"approve(address,uint256)": "24669",
						"balanceOf(address)": "2563",
						"buyTokens(address,uint256)": "infinite",
						"decimals()": "222",
						"decreaseAllowance(address,uint256)": "26922",
						"increaseAllowance(address,uint256)": "27012",
						"mint(address,uint256)": "infinite",
						"name()": "infinite",
						"owner()": "2368",
						"renounceOwnership()": "28162",
						"symbol()": "infinite",
						"tokensPerEth()": "2361",
						"totalSupply()": "2371",
						"transfer(address,uint256)": "51215",
						"transferFrom(address,address,uint256)": "infinite",
						"transferOwnership(address)": "28422"
					}
				},
				"methodIdentifiers": {
					"allowance(address,address)": "dd62ed3e",
					"approve(address,uint256)": "095ea7b3",
					"balanceOf(address)": "70a08231",
					"buyTokens(address,uint256)": "0752881a",
					"decimals()": "313ce567",
					"decreaseAllowance(address,uint256)": "a457c2d7",
					"increaseAllowance(address,uint256)": "39509351",
					"mint(address,uint256)": "40c10f19",
					"name()": "06fdde03",
					"owner()": "8da5cb5b",
					"renounceOwnership()": "715018a6",
					"symbol()": "95d89b41",
					"tokensPerEth()": "cbdd69b5",
					"totalSupply()": "18160ddd",
					"transfer(address,uint256)": "a9059cbb",
					"transferFrom(address,address,uint256)": "23b872dd",
					"transferOwnership(address)": "f2fde38b"
				}
			},
			"userdoc": {
				"kind": "user",
				"methods": {},
				"version": 1
			}
		}
	}
}